{
	"contracts/mtb.sol": {
		"MTB": {
			"abi": [
				{
					"inputs": [
						{
							"internalType": "string",
							"name": "name",
							"type": "string"
						},
						{
							"internalType": "string",
							"name": "symbol",
							"type": "string"
						},
						{
							"internalType": "uint256",
							"name": "cap",
							"type": "uint256"
						}
					],
					"stateMutability": "nonpayable",
					"type": "constructor"
				},
				{
					"anonymous": false,
					"inputs": [
						{
							"indexed": true,
							"internalType": "address",
							"name": "owner",
							"type": "address"
						},
						{
							"indexed": true,
							"internalType": "address",
							"name": "spender",
							"type": "address"
						},
						{
							"indexed": false,
							"internalType": "uint256",
							"name": "value",
							"type": "uint256"
						}
					],
					"name": "Approval",
					"type": "event"
				},
				{
					"anonymous": false,
					"inputs": [
						{
							"indexed": true,
							"internalType": "address",
							"name": "previousOwner",
							"type": "address"
						},
						{
							"indexed": true,
							"internalType": "address",
							"name": "newOwner",
							"type": "address"
						}
					],
					"name": "OwnershipTransferred",
					"type": "event"
				},
				{
					"anonymous": false,
					"inputs": [
						{
							"indexed": false,
							"internalType": "address",
							"name": "account",
							"type": "address"
						}
					],
					"name": "Paused",
					"type": "event"
				},
				{
					"anonymous": false,
					"inputs": [
						{
							"indexed": true,
							"internalType": "address",
							"name": "from",
							"type": "address"
						},
						{
							"indexed": true,
							"internalType": "address",
							"name": "to",
							"type": "address"
						},
						{
							"indexed": false,
							"internalType": "uint256",
							"name": "value",
							"type": "uint256"
						}
					],
					"name": "Transfer",
					"type": "event"
				},
				{
					"anonymous": false,
					"inputs": [
						{
							"indexed": false,
							"internalType": "address",
							"name": "account",
							"type": "address"
						}
					],
					"name": "Unpaused",
					"type": "event"
				},
				{
					"inputs": [
						{
							"internalType": "address",
							"name": "account",
							"type": "address"
						}
					],
					"name": "addMinter",
					"outputs": [],
					"stateMutability": "nonpayable",
					"type": "function"
				},
				{
					"inputs": [
						{
							"internalType": "address",
							"name": "owner",
							"type": "address"
						},
						{
							"internalType": "address",
							"name": "spender",
							"type": "address"
						}
					],
					"name": "allowance",
					"outputs": [
						{
							"internalType": "uint256",
							"name": "",
							"type": "uint256"
						}
					],
					"stateMutability": "view",
					"type": "function"
				},
				{
					"inputs": [
						{
							"internalType": "address",
							"name": "spender",
							"type": "address"
						},
						{
							"internalType": "uint256",
							"name": "amount",
							"type": "uint256"
						}
					],
					"name": "approve",
					"outputs": [
						{
							"internalType": "bool",
							"name": "",
							"type": "bool"
						}
					],
					"stateMutability": "nonpayable",
					"type": "function"
				},
				{
					"inputs": [
						{
							"internalType": "address",
							"name": "account",
							"type": "address"
						}
					],
					"name": "balanceOf",
					"outputs": [
						{
							"internalType": "uint256",
							"name": "",
							"type": "uint256"
						}
					],
					"stateMutability": "view",
					"type": "function"
				},
				{
					"inputs": [
						{
							"internalType": "uint256",
							"name": "amount",
							"type": "uint256"
						}
					],
					"name": "burn",
					"outputs": [],
					"stateMutability": "nonpayable",
					"type": "function"
				},
				{
					"inputs": [
						{
							"internalType": "address",
							"name": "account",
							"type": "address"
						},
						{
							"internalType": "uint256",
							"name": "amount",
							"type": "uint256"
						}
					],
					"name": "burnFrom",
					"outputs": [],
					"stateMutability": "nonpayable",
					"type": "function"
				},
				{
					"inputs": [],
					"name": "cap",
					"outputs": [
						{
							"internalType": "uint256",
							"name": "",
							"type": "uint256"
						}
					],
					"stateMutability": "view",
					"type": "function"
				},
				{
					"inputs": [],
					"name": "decimals",
					"outputs": [
						{
							"internalType": "uint8",
							"name": "",
							"type": "uint8"
						}
					],
					"stateMutability": "view",
					"type": "function"
				},
				{
					"inputs": [
						{
							"internalType": "address",
							"name": "spender",
							"type": "address"
						},
						{
							"internalType": "uint256",
							"name": "subtractedValue",
							"type": "uint256"
						}
					],
					"name": "decreaseAllowance",
					"outputs": [
						{
							"internalType": "bool",
							"name": "",
							"type": "bool"
						}
					],
					"stateMutability": "nonpayable",
					"type": "function"
				},
				{
					"inputs": [],
					"name": "getMinters",
					"outputs": [
						{
							"internalType": "address[]",
							"name": "",
							"type": "address[]"
						}
					],
					"stateMutability": "view",
					"type": "function"
				},
				{
					"inputs": [
						{
							"internalType": "address",
							"name": "spender",
							"type": "address"
						},
						{
							"internalType": "uint256",
							"name": "addedValue",
							"type": "uint256"
						}
					],
					"name": "increaseAllowance",
					"outputs": [
						{
							"internalType": "bool",
							"name": "",
							"type": "bool"
						}
					],
					"stateMutability": "nonpayable",
					"type": "function"
				},
				{
					"inputs": [],
					"name": "name",
					"outputs": [
						{
							"internalType": "string",
							"name": "",
							"type": "string"
						}
					],
					"stateMutability": "view",
					"type": "function"
				},
				{
					"inputs": [],
					"name": "owner",
					"outputs": [
						{
							"internalType": "address",
							"name": "",
							"type": "address"
						}
					],
					"stateMutability": "view",
					"type": "function"
				},
				{
					"inputs": [],
					"name": "paused",
					"outputs": [
						{
							"internalType": "bool",
							"name": "",
							"type": "bool"
						}
					],
					"stateMutability": "view",
					"type": "function"
				},
				{
					"inputs": [
						{
							"internalType": "address",
							"name": "account",
							"type": "address"
						}
					],
					"name": "removeMinter",
					"outputs": [],
					"stateMutability": "nonpayable",
					"type": "function"
				},
				{
					"inputs": [],
					"name": "renounceMinter",
					"outputs": [],
					"stateMutability": "nonpayable",
					"type": "function"
				},
				{
					"inputs": [],
					"name": "renounceOwnership",
					"outputs": [],
					"stateMutability": "nonpayable",
					"type": "function"
				},
				{
					"inputs": [],
					"name": "symbol",
					"outputs": [
						{
							"internalType": "string",
							"name": "",
							"type": "string"
						}
					],
					"stateMutability": "view",
					"type": "function"
				},
				{
					"inputs": [],
					"name": "totalSupply",
					"outputs": [
						{
							"internalType": "uint256",
							"name": "",
							"type": "uint256"
						}
					],
					"stateMutability": "view",
					"type": "function"
				},
				{
					"inputs": [
						{
							"internalType": "address",
							"name": "recipient",
							"type": "address"
						},
						{
							"internalType": "uint256",
							"name": "amount",
							"type": "uint256"
						}
					],
					"name": "transfer",
					"outputs": [
						{
							"internalType": "bool",
							"name": "",
							"type": "bool"
						}
					],
					"stateMutability": "nonpayable",
					"type": "function"
				},
				{
					"inputs": [
						{
							"internalType": "address",
							"name": "sender",
							"type": "address"
						},
						{
							"internalType": "address",
							"name": "recipient",
							"type": "address"
						},
						{
							"internalType": "uint256",
							"name": "amount",
							"type": "uint256"
						}
					],
					"name": "transferFrom",
					"outputs": [
						{
							"internalType": "bool",
							"name": "",
							"type": "bool"
						}
					],
					"stateMutability": "nonpayable",
					"type": "function"
				},
				{
					"inputs": [
						{
							"internalType": "address",
							"name": "newOwner",
							"type": "address"
						}
					],
					"name": "transferOwnership",
					"outputs": [],
					"stateMutability": "nonpayable",
					"type": "function"
				}
			],
			"devdoc": {
				"kind": "dev",
				"methods": {
					"allowance(address,address)": {
						"details": "See {IERC20-allowance}."
					},
					"approve(address,uint256)": {
						"details": "See {IERC20-approve}. Requirements: - `spender` cannot be the zero address."
					},
					"balanceOf(address)": {
						"details": "See {IERC20-balanceOf}."
					},
					"burn(uint256)": {
						"details": "Destroys `amount` tokens from the caller. See {ERC20-_burn}."
					},
					"burnFrom(address,uint256)": {
						"details": "Destroys `amount` tokens from `account`, deducting from the caller's allowance. See {ERC20-_burn} and {ERC20-allowance}. Requirements: - the caller must have allowance for ``accounts``'s tokens of at least `amount`."
					},
					"cap()": {
						"details": "Returns the cap on the token's total supply."
					},
					"decimals()": {
						"details": "Returns the number of decimals used to get its user representation. For example, if `decimals` equals `2`, a balance of `505` tokens should be displayed to a user as `5,05` (`505 / 10 ** 2`). Tokens usually opt for a value of 18, imitating the relationship between Ether and Wei. This is the value {ERC20} uses, unless {_setupDecimals} is called. NOTE: This information is only used for _display_ purposes: it in no way affects any of the arithmetic of the contract, including {IERC20-balanceOf} and {IERC20-transfer}."
					},
					"decreaseAllowance(address,uint256)": {
						"details": "Atomically decreases the allowance granted to `spender` by the caller. This is an alternative to {approve} that can be used as a mitigation for problems described in {IERC20-approve}. Emits an {Approval} event indicating the updated allowance. Requirements: - `spender` cannot be the zero address. - `spender` must have allowance for the caller of at least `subtractedValue`."
					},
					"increaseAllowance(address,uint256)": {
						"details": "Atomically increases the allowance granted to `spender` by the caller. This is an alternative to {approve} that can be used as a mitigation for problems described in {IERC20-approve}. Emits an {Approval} event indicating the updated allowance. Requirements: - `spender` cannot be the zero address."
					},
					"name()": {
						"details": "Returns the name of the token."
					},
					"owner()": {
						"details": "Returns the address of the current owner."
					},
					"paused()": {
						"details": "Returns true if the contract is paused, and false otherwise."
					},
					"renounceOwnership()": {
						"details": "Leaves the contract without owner. It will not be possible to call `onlyOwner` functions anymore. Can only be called by the current owner. NOTE: Renouncing ownership will leave the contract without an owner, thereby removing any functionality that is only available to the owner."
					},
					"symbol()": {
						"details": "Returns the symbol of the token, usually a shorter version of the name."
					},
					"totalSupply()": {
						"details": "See {IERC20-totalSupply}."
					},
					"transfer(address,uint256)": {
						"details": "See {IERC20-transfer}. Requirements: - `recipient` cannot be the zero address. - the caller must have a balance of at least `amount`."
					},
					"transferFrom(address,address,uint256)": {
						"details": "See {IERC20-transferFrom}. Emits an {Approval} event indicating the updated allowance. This is not required by the EIP. See the note at the beginning of {ERC20}. Requirements: - `sender` and `recipient` cannot be the zero address. - `sender` must have a balance of at least `amount`. - the caller must have allowance for ``sender``'s tokens of at least `amount`."
					},
					"transferOwnership(address)": {
						"details": "Transfers ownership of the contract to a new account (`newOwner`). Can only be called by the current owner."
					}
				},
				"version": 1
			},
			"evm": {
				"assembly": "    /* \"contracts/mtb.sol\":426:2201  contract MTB is ERC20, ERC20Burnable, ERC20Pausable, ERC20Capped, Ownable {\r... */\n  mstore(0x40, 0x80)\n    /* \"contracts/mtb.sol\":614:882  constructor(\r... */\n  callvalue\n  dup1\n  iszero\n  tag_1\n  jumpi\n  0x00\n  dup1\n  revert\ntag_1:\n  pop\n  mload(0x40)\n  sub(codesize, bytecodeSize)\n  dup1\n  bytecodeSize\n  dup4\n  codecopy\n  dup2\n  dup2\n  add\n  0x40\n  mstore\n  0x60\n  dup2\n  lt\n  iszero\n  tag_2\n  jumpi\n  0x00\n  dup1\n  revert\ntag_2:\n  dup2\n  add\n  swap1\n  dup1\n  dup1\n  mload\n  mload(0x40)\n  swap4\n  swap3\n  swap2\n  swap1\n  dup5\n  0x0100000000\n  dup3\n  gt\n  iszero\n  tag_3\n  jumpi\n  0x00\n  dup1\n  revert\ntag_3:\n  dup4\n  dup3\n  add\n  swap2\n  pop\n  0x20\n  dup3\n  add\n  dup6\n  dup2\n  gt\n  iszero\n  tag_4\n  jumpi\n  0x00\n  dup1\n  revert\ntag_4:\n  dup3\n  mload\n  dup7\n  0x01\n  dup3\n  mul\n  dup4\n  add\n  gt\n  0x0100000000\n  dup3\n  gt\n  or\n  iszero\n  tag_5\n  jumpi\n  0x00\n  dup1\n  revert\ntag_5:\n  dup1\n  dup4\n  mstore\n  0x20\n  dup4\n  add\n  swap3\n  pop\n  pop\n  pop\n  swap1\n  dup1\n  mload\n  swap1\n  0x20\n  add\n  swap1\n  dup1\n  dup4\n  dup4\n  0x00\ntag_6:\n  dup4\n  dup2\n  lt\n  iszero\n  tag_8\n  jumpi\n  dup1\n  dup3\n  add\n  mload\n  dup2\n  dup5\n  add\n  mstore\n  0x20\n  dup2\n  add\n  swap1\n  pop\n  jump(tag_6)\ntag_8:\n  pop\n  pop\n  pop\n  pop\n  swap1\n  pop\n  swap1\n  dup2\n  add\n  swap1\n  0x1f\n  and\n  dup1\n  iszero\n  tag_9\n  jumpi\n  dup1\n  dup3\n  sub\n  dup1\n  mload\n  0x01\n  dup4\n  0x20\n  sub\n  0x0100\n  exp\n  sub\n  not\n  and\n  dup2\n  mstore\n  0x20\n  add\n  swap2\n  pop\ntag_9:\n  pop\n  0x40\n  mstore\n  0x20\n  add\n  dup1\n  mload\n  mload(0x40)\n  swap4\n  swap3\n  swap2\n  swap1\n  dup5\n  0x0100000000\n  dup3\n  gt\n  iszero\n  tag_10\n  jumpi\n  0x00\n  dup1\n  revert\ntag_10:\n  dup4\n  dup3\n  add\n  swap2\n  pop\n  0x20\n  dup3\n  add\n  dup6\n  dup2\n  gt\n  iszero\n  tag_11\n  jumpi\n  0x00\n  dup1\n  revert\ntag_11:\n  dup3\n  mload\n  dup7\n  0x01\n  dup3\n  mul\n  dup4\n  add\n  gt\n  0x0100000000\n  dup3\n  gt\n  or\n  iszero\n  tag_12\n  jumpi\n  0x00\n  dup1\n  revert\ntag_12:\n  dup1\n  dup4\n  mstore\n  0x20\n  dup4\n  add\n  swap3\n  pop\n  pop\n  pop\n  swap1\n  dup1\n  mload\n  swap1\n  0x20\n  add\n  swap1\n  dup1\n  dup4\n  dup4\n  0x00\ntag_13:\n  dup4\n  dup2\n  lt\n  iszero\n  tag_15\n  jumpi\n  dup1\n  dup3\n  add\n  mload\n  dup2\n  dup5\n  add\n  mstore\n  0x20\n  dup2\n  add\n  swap1\n  pop\n  jump(tag_13)\ntag_15:\n  pop\n  pop\n  pop\n  pop\n  swap1\n  pop\n  swap1\n  dup2\n  add\n  swap1\n  0x1f\n  and\n  dup1\n  iszero\n  tag_16\n  jumpi\n  dup1\n  dup3\n  sub\n  dup1\n  mload\n  0x01\n  dup4\n  0x20\n  sub\n  0x0100\n  exp\n  sub\n  not\n  and\n  dup2\n  mstore\n  0x20\n  add\n  swap2\n  pop\ntag_16:\n  pop\n  0x40\n  mstore\n  0x20\n  add\n  dup1\n  mload\n  swap1\n  0x20\n  add\n  swap1\n  swap3\n  swap2\n  swap1\n  pop\n  pop\n  pop\n    /* \"contracts/mtb.sol\":768:771  cap */\n  dup1\n    /* \"contracts/mtb.sol\":733:737  name */\n  dup4\n    /* \"contracts/mtb.sol\":739:745  symbol */\n  dup4\n    /* \"@openzeppelin/contracts/token/ERC20/ERC20.sol\":2040:2045  name_ */\n  dup2\n    /* \"@openzeppelin/contracts/token/ERC20/ERC20.sol\":2032:2037  _name */\n  0x03\n    /* \"@openzeppelin/contracts/token/ERC20/ERC20.sol\":2032:2045  _name = name_ */\n  swap1\n  dup1\n  mload\n  swap1\n  0x20\n  add\n  swap1\n  tag_23\n  swap3\n  swap2\n  swap1\n  tag_24\n  jump\t// in\ntag_23:\n  pop\n    /* \"@openzeppelin/contracts/token/ERC20/ERC20.sol\":2065:2072  symbol_ */\n  dup1\n    /* \"@openzeppelin/contracts/token/ERC20/ERC20.sol\":2055:2062  _symbol */\n  0x04\n    /* \"@openzeppelin/contracts/token/ERC20/ERC20.sol\":2055:2072  _symbol = symbol_ */\n  swap1\n  dup1\n  mload\n  swap1\n  0x20\n  add\n  swap1\n  tag_25\n  swap3\n  swap2\n  swap1\n  tag_24\n  jump\t// in\ntag_25:\n  pop\n    /* \"@openzeppelin/contracts/token/ERC20/ERC20.sol\":2094:2096  18 */\n  0x12\n    /* \"@openzeppelin/contracts/token/ERC20/ERC20.sol\":2082:2091  _decimals */\n  0x05\n  0x00\n    /* \"@openzeppelin/contracts/token/ERC20/ERC20.sol\":2082:2096  _decimals = 18 */\n  0x0100\n  exp\n  dup2\n  sload\n  dup2\n  0xff\n  mul\n  not\n  and\n  swap1\n  dup4\n  0xff\n  and\n  mul\n  or\n  swap1\n  sstore\n  pop\n    /* \"@openzeppelin/contracts/token/ERC20/ERC20.sol\":1958:2103  constructor (string memory name_, string memory symbol_) public {... */\n  pop\n  pop\n    /* \"@openzeppelin/contracts/utils/Pausable.sol\":945:950  false */\n  0x00\n    /* \"@openzeppelin/contracts/utils/Pausable.sol\":935:942  _paused */\n  0x05\n  0x01\n    /* \"@openzeppelin/contracts/utils/Pausable.sol\":935:950  _paused = false */\n  0x0100\n  exp\n  dup2\n  sload\n  dup2\n  0xff\n  mul\n  not\n  and\n  swap1\n  dup4\n  iszero\n  iszero\n  mul\n  or\n  swap1\n  sstore\n  pop\n    /* \"@openzeppelin/contracts/token/ERC20/ERC20Capped.sol\":467:468  0 */\n  0x00\n    /* \"@openzeppelin/contracts/token/ERC20/ERC20Capped.sol\":460:464  cap_ */\n  dup2\n    /* \"@openzeppelin/contracts/token/ERC20/ERC20Capped.sol\":460:468  cap_ > 0 */\n  gt\n    /* \"@openzeppelin/contracts/token/ERC20/ERC20Capped.sol\":452:494  require(cap_ > 0, \"ERC20Capped: cap is 0\") */\n  tag_28\n  jumpi\n  mload(0x40)\n  0x08c379a000000000000000000000000000000000000000000000000000000000\n  dup2\n  mstore\n  0x04\n  add\n  dup1\n  dup1\n  0x20\n  add\n  dup3\n  dup2\n  sub\n  dup3\n  mstore\n  0x15\n  dup2\n  mstore\n  0x20\n  add\n  dup1\n  0x45524332304361707065643a2063617020697320300000000000000000000000\n  dup2\n  mstore\n  pop\n  0x20\n  add\n  swap2\n  pop\n  pop\n  mload(0x40)\n  dup1\n  swap2\n  sub\n  swap1\n  revert\ntag_28:\n    /* \"@openzeppelin/contracts/token/ERC20/ERC20Capped.sol\":511:515  cap_ */\n  dup1\n    /* \"@openzeppelin/contracts/token/ERC20/ERC20Capped.sol\":504:508  _cap */\n  0x06\n    /* \"@openzeppelin/contracts/token/ERC20/ERC20Capped.sol\":504:515  _cap = cap_ */\n  dup2\n  swap1\n  sstore\n  pop\n    /* \"@openzeppelin/contracts/token/ERC20/ERC20Capped.sol\":406:522  constructor (uint256 cap_) internal {... */\n  pop\n    /* \"@openzeppelin/contracts/access/Ownable.sol\":884:901  address msgSender */\n  0x00\n    /* \"@openzeppelin/contracts/access/Ownable.sol\":904:916  _msgSender() */\n  tag_30\n    /* \"@openzeppelin/contracts/access/Ownable.sol\":904:914  _msgSender */\n  shl(0x20, tag_31)\n    /* \"@openzeppelin/contracts/access/Ownable.sol\":904:916  _msgSender() */\n  0x20\n  shr\n  jump\t// in\ntag_30:\n    /* \"@openzeppelin/contracts/access/Ownable.sol\":884:916  address msgSender = _msgSender() */\n  swap1\n  pop\n    /* \"@openzeppelin/contracts/access/Ownable.sol\":935:944  msgSender */\n  dup1\n    /* \"@openzeppelin/contracts/access/Ownable.sol\":926:932  _owner */\n  0x07\n  0x00\n    /* \"@openzeppelin/contracts/access/Ownable.sol\":926:944  _owner = msgSender */\n  0x0100\n  exp\n  dup2\n  sload\n  dup2\n  0xffffffffffffffffffffffffffffffffffffffff\n  mul\n  not\n  and\n  swap1\n  dup4\n  0xffffffffffffffffffffffffffffffffffffffff\n  and\n  mul\n  or\n  swap1\n  sstore\n  pop\n    /* \"@openzeppelin/contracts/access/Ownable.sol\":992:1001  msgSender */\n  dup1\n    /* \"@openzeppelin/contracts/access/Ownable.sol\":959:1002  OwnershipTransferred(address(0), msgSender) */\n  0xffffffffffffffffffffffffffffffffffffffff\n  and\n    /* \"@openzeppelin/contracts/access/Ownable.sol\":988:989  0 */\n  0x00\n    /* \"@openzeppelin/contracts/access/Ownable.sol\":959:1002  OwnershipTransferred(address(0), msgSender) */\n  0xffffffffffffffffffffffffffffffffffffffff\n  and\n  0x8be0079c531659141344cd1fd0a4f28419497f9722a3daafe3b4186f6b6457e0\n  mload(0x40)\n  mload(0x40)\n  dup1\n  swap2\n  sub\n  swap1\n  log3\n    /* \"@openzeppelin/contracts/access/Ownable.sol\":850:1009  constructor () internal {... */\n  pop\n    /* \"contracts/mtb.sol\":852:874  _addMinter(msg.sender) */\n  tag_33\n    /* \"contracts/mtb.sol\":863:873  msg.sender */\n  caller\n    /* \"contracts/mtb.sol\":852:862  _addMinter */\n  shl(0x20, tag_34)\n    /* \"contracts/mtb.sol\":852:874  _addMinter(msg.sender) */\n  0x20\n  shr\n  jump\t// in\ntag_33:\n    /* \"contracts/mtb.sol\":614:882  constructor(\r... */\n  pop\n  pop\n  pop\n    /* \"contracts/mtb.sol\":426:2201  contract MTB is ERC20, ERC20Burnable, ERC20Pausable, ERC20Capped, Ownable {\r... */\n  jump(tag_35)\n    /* \"@openzeppelin/contracts/utils/Context.sol\":598:702  function _msgSender() internal view virtual returns (address payable) {... */\ntag_31:\n    /* \"@openzeppelin/contracts/utils/Context.sol\":651:666  address payable */\n  0x00\n    /* \"@openzeppelin/contracts/utils/Context.sol\":685:695  msg.sender */\n  caller\n    /* \"@openzeppelin/contracts/utils/Context.sol\":678:695  return msg.sender */\n  swap1\n  pop\n    /* \"@openzeppelin/contracts/utils/Context.sol\":598:702  function _msgSender() internal view virtual returns (address payable) {... */\n  swap1\n  jump\t// out\n    /* \"contracts/mtb.sol\":1402:1488  function _addMinter(address account) internal {\r... */\ntag_34:\n    /* \"contracts/mtb.sol\":1459:1480  _minters.add(account) */\n  tag_38\n    /* \"contracts/mtb.sol\":1472:1479  account */\n  dup2\n    /* \"contracts/mtb.sol\":1459:1467  _minters */\n  0x08\n    /* \"contracts/mtb.sol\":1459:1471  _minters.add */\n  or(tag_0_95, shl(0x20, tag_39))\n  swap1\n    /* \"contracts/mtb.sol\":1459:1480  _minters.add(account) */\n  swap2\n  swap1\n  0x20\n  shr\n  jump\t// in\ntag_38:\n  pop\n    /* \"contracts/mtb.sol\":1402:1488  function _addMinter(address account) internal {\r... */\n  pop\n  jump\t// out\n    /* \"@openzeppelin/contracts/utils/EnumerableSet.sol\":6429:6579  function add(AddressSet storage set, address value) internal returns (bool) {... */\ntag_39:\n    /* \"@openzeppelin/contracts/utils/EnumerableSet.sol\":6499:6503  bool */\n  0x00\n    /* \"@openzeppelin/contracts/utils/EnumerableSet.sol\":6522:6572  _add(set._inner, bytes32(uint256(uint160(value)))) */\n  tag_41\n    /* \"@openzeppelin/contracts/utils/EnumerableSet.sol\":6527:6530  set */\n  dup4\n    /* \"@openzeppelin/contracts/utils/EnumerableSet.sol\":6527:6537  set._inner */\n  0x00\n  add\n    /* \"@openzeppelin/contracts/utils/EnumerableSet.sol\":6563:6568  value */\n  dup4\n    /* \"@openzeppelin/contracts/utils/EnumerableSet.sol\":6547:6570  uint256(uint160(value)) */\n  0xffffffffffffffffffffffffffffffffffffffff\n  and\n    /* \"@openzeppelin/contracts/utils/EnumerableSet.sol\":6539:6571  bytes32(uint256(uint160(value))) */\n  0x00\n  shl\n    /* \"@openzeppelin/contracts/utils/EnumerableSet.sol\":6522:6526  _add */\n  shl(0x20, tag_42)\n    /* \"@openzeppelin/contracts/utils/EnumerableSet.sol\":6522:6572  _add(set._inner, bytes32(uint256(uint160(value)))) */\n  0x20\n  shr\n  jump\t// in\ntag_41:\n    /* \"@openzeppelin/contracts/utils/EnumerableSet.sol\":6515:6572  return _add(set._inner, bytes32(uint256(uint160(value)))) */\n  swap1\n  pop\n    /* \"@openzeppelin/contracts/utils/EnumerableSet.sol\":6429:6579  function add(AddressSet storage set, address value) internal returns (bool) {... */\n  swap3\n  swap2\n  pop\n  pop\n  jump\t// out\n    /* \"@openzeppelin/contracts/utils/EnumerableSet.sol\":1640:2044  function _add(Set storage set, bytes32 value) private returns (bool) {... */\ntag_42:\n    /* \"@openzeppelin/contracts/utils/EnumerableSet.sol\":1703:1707  bool */\n  0x00\n    /* \"@openzeppelin/contracts/utils/EnumerableSet.sol\":1724:1745  _contains(set, value) */\n  tag_44\n    /* \"@openzeppelin/contracts/utils/EnumerableSet.sol\":1734:1737  set */\n  dup4\n    /* \"@openzeppelin/contracts/utils/EnumerableSet.sol\":1739:1744  value */\n  dup4\n    /* \"@openzeppelin/contracts/utils/EnumerableSet.sol\":1724:1733  _contains */\n  shl(0x20, tag_45)\n    /* \"@openzeppelin/contracts/utils/EnumerableSet.sol\":1724:1745  _contains(set, value) */\n  0x20\n  shr\n  jump\t// in\ntag_44:\n    /* \"@openzeppelin/contracts/utils/EnumerableSet.sol\":1719:2038  if (!_contains(set, value)) {... */\n  tag_46\n  jumpi\n    /* \"@openzeppelin/contracts/utils/EnumerableSet.sol\":1761:1764  set */\n  dup3\n    /* \"@openzeppelin/contracts/utils/EnumerableSet.sol\":1761:1772  set._values */\n  0x00\n  add\n    /* \"@openzeppelin/contracts/utils/EnumerableSet.sol\":1778:1783  value */\n  dup3\n    /* \"@openzeppelin/contracts/utils/EnumerableSet.sol\":1761:1784  set._values.push(value) */\n  swap1\n  dup1\n  0x01\n  dup2\n  sload\n  add\n  dup1\n  dup3\n  sstore\n  dup1\n  swap2\n  pop\n  pop\n  0x01\n  swap1\n  sub\n  swap1\n  0x00\n  mstore\n  keccak256(0x00, 0x20)\n  add\n  0x00\n  swap1\n  swap2\n  swap1\n  swap2\n  swap1\n  swap2\n  pop\n  sstore\n    /* \"@openzeppelin/contracts/utils/EnumerableSet.sol\":1941:1944  set */\n  dup3\n    /* \"@openzeppelin/contracts/utils/EnumerableSet.sol\":1941:1952  set._values */\n  0x00\n  add\n    /* \"@openzeppelin/contracts/utils/EnumerableSet.sol\":1941:1959  set._values.length */\n  dup1\n  sload\n  swap1\n  pop\n    /* \"@openzeppelin/contracts/utils/EnumerableSet.sol\":1919:1922  set */\n  dup4\n    /* \"@openzeppelin/contracts/utils/EnumerableSet.sol\":1919:1931  set._indexes */\n  0x01\n  add\n    /* \"@openzeppelin/contracts/utils/EnumerableSet.sol\":1919:1938  set._indexes[value] */\n  0x00\n    /* \"@openzeppelin/contracts/utils/EnumerableSet.sol\":1932:1937  value */\n  dup5\n    /* \"@openzeppelin/contracts/utils/EnumerableSet.sol\":1919:1938  set._indexes[value] */\n  dup2\n  mstore\n  0x20\n  add\n  swap1\n  dup2\n  mstore\n  0x20\n  add\n  0x00\n  keccak256\n    /* \"@openzeppelin/contracts/utils/EnumerableSet.sol\":1919:1959  set._indexes[value] = set._values.length */\n  dup2\n  swap1\n  sstore\n  pop\n    /* \"@openzeppelin/contracts/utils/EnumerableSet.sol\":1980:1984  true */\n  0x01\n    /* \"@openzeppelin/contracts/utils/EnumerableSet.sol\":1973:1984  return true */\n  swap1\n  pop\n  jump(tag_43)\n    /* \"@openzeppelin/contracts/utils/EnumerableSet.sol\":1719:2038  if (!_contains(set, value)) {... */\ntag_46:\n    /* \"@openzeppelin/contracts/utils/EnumerableSet.sol\":2022:2027  false */\n  0x00\n    /* \"@openzeppelin/contracts/utils/EnumerableSet.sol\":2015:2027  return false */\n  swap1\n  pop\n    /* \"@openzeppelin/contracts/utils/EnumerableSet.sol\":1640:2044  function _add(Set storage set, bytes32 value) private returns (bool) {... */\ntag_43:\n  swap3\n  swap2\n  pop\n  pop\n  jump\t// out\n    /* \"@openzeppelin/contracts/utils/EnumerableSet.sol\":3805:3932  function _contains(Set storage set, bytes32 value) private view returns (bool) {... */\ntag_45:\n    /* \"@openzeppelin/contracts/utils/EnumerableSet.sol\":3878:3882  bool */\n  0x00\n    /* \"@openzeppelin/contracts/utils/EnumerableSet.sol\":3924:3925  0 */\n  dup1\n    /* \"@openzeppelin/contracts/utils/EnumerableSet.sol\":3901:3904  set */\n  dup4\n    /* \"@openzeppelin/contracts/utils/EnumerableSet.sol\":3901:3913  set._indexes */\n  0x01\n  add\n    /* \"@openzeppelin/contracts/utils/EnumerableSet.sol\":3901:3920  set._indexes[value] */\n  0x00\n    /* \"@openzeppelin/contracts/utils/EnumerableSet.sol\":3914:3919  value */\n  dup5\n    /* \"@openzeppelin/contracts/utils/EnumerableSet.sol\":3901:3920  set._indexes[value] */\n  dup2\n  mstore\n  0x20\n  add\n  swap1\n  dup2\n  mstore\n  0x20\n  add\n  0x00\n  keccak256\n  sload\n    /* \"@openzeppelin/contracts/utils/EnumerableSet.sol\":3901:3925  set._indexes[value] != 0 */\n  eq\n  iszero\n    /* \"@openzeppelin/contracts/utils/EnumerableSet.sol\":3894:3925  return set._indexes[value] != 0 */\n  swap1\n  pop\n    /* \"@openzeppelin/contracts/utils/EnumerableSet.sol\":3805:3932  function _contains(Set storage set, bytes32 value) private view returns (bool) {... */\n  swap3\n  swap2\n  pop\n  pop\n  jump\t// out\n    /* \"contracts/mtb.sol\":426:2201  contract MTB is ERC20, ERC20Burnable, ERC20Pausable, ERC20Capped, Ownable {\r... */\ntag_24:\n  dup3\n  dup1\n  sload\n  0x01\n  dup2\n  0x01\n  and\n  iszero\n  0x0100\n  mul\n  sub\n  and\n  0x02\n  swap1\n  div\n  swap1\n  0x00\n  mstore\n  keccak256(0x00, 0x20)\n  swap1\n  0x1f\n  add\n  0x20\n  swap1\n  div\n  dup2\n  add\n  swap3\n  dup3\n  0x1f\n  lt\n  tag_51\n  jumpi\n  dup1\n  mload\n  not(0xff)\n  and\n  dup4\n  dup1\n  add\n  or\n  dup6\n  sstore\n  jump(tag_50)\ntag_51:\n  dup3\n  dup1\n  add\n  0x01\n  add\n  dup6\n  sstore\n  dup3\n  iszero\n  tag_50\n  jumpi\n  swap2\n  dup3\n  add\ntag_52:\n  dup3\n  dup2\n  gt\n  iszero\n  tag_53\n  jumpi\n  dup3\n  mload\n  dup3\n  sstore\n  swap2\n  0x20\n  add\n  swap2\n  swap1\n  0x01\n  add\n  swap1\n  jump(tag_52)\ntag_53:\ntag_50:\n  pop\n  swap1\n  pop\n  tag_54\n  swap2\n  swap1\n  tag_55\n  jump\t// in\ntag_54:\n  pop\n  swap1\n  jump\t// out\ntag_55:\ntag_56:\n  dup1\n  dup3\n  gt\n  iszero\n  tag_57\n  jumpi\n  0x00\n  dup2\n  0x00\n  swap1\n  sstore\n  pop\n  0x01\n  add\n  jump(tag_56)\ntag_57:\n  pop\n  swap1\n  jump\t// out\ntag_35:\n  dataSize(sub_0)\n  dup1\n  dataOffset(sub_0)\n  0x00\n  codecopy\n  0x00\n  return\nstop\n\nsub_0: assembly {\n        /* \"contracts/mtb.sol\":426:2201  contract MTB is ERC20, ERC20Burnable, ERC20Pausable, ERC20Capped, Ownable {\r... */\n      mstore(0x40, 0x80)\n      callvalue\n      dup1\n      iszero\n      tag_1\n      jumpi\n      0x00\n      dup1\n      revert\n    tag_1:\n      pop\n      jumpi(tag_2, lt(calldatasize, 0x04))\n      shr(0xe0, calldataload(0x00))\n      dup1\n      0x70a08231\n      gt\n      tag_25\n      jumpi\n      dup1\n      0x983b2d56\n      gt\n      tag_26\n      jumpi\n      dup1\n      0x983b2d56\n      eq\n      tag_19\n      jumpi\n      dup1\n      0x98650275\n      eq\n      tag_20\n      jumpi\n      dup1\n      0xa457c2d7\n      eq\n      tag_21\n      jumpi\n      dup1\n      0xa9059cbb\n      eq\n      tag_22\n      jumpi\n      dup1\n      0xdd62ed3e\n      eq\n      tag_23\n      jumpi\n      dup1\n      0xf2fde38b\n      eq\n      tag_24\n      jumpi\n      jump(tag_2)\n    tag_26:\n      dup1\n      0x70a08231\n      eq\n      tag_14\n      jumpi\n      dup1\n      0x715018a6\n      eq\n      tag_15\n      jumpi\n      dup1\n      0x79cc6790\n      eq\n      tag_16\n      jumpi\n      dup1\n      0x8da5cb5b\n      eq\n      tag_17\n      jumpi\n      dup1\n      0x95d89b41\n      eq\n      tag_18\n      jumpi\n      jump(tag_2)\n    tag_25:\n      dup1\n      0x313ce567\n      gt\n      tag_27\n      jumpi\n      dup1\n      0x313ce567\n      eq\n      tag_8\n      jumpi\n      dup1\n      0x355274ea\n      eq\n      tag_9\n      jumpi\n      dup1\n      0x39509351\n      eq\n      tag_10\n      jumpi\n      dup1\n      0x42966c68\n      eq\n      tag_11\n      jumpi\n      dup1\n      0x5c975abb\n      eq\n      tag_12\n      jumpi\n      dup1\n      0x6b32810b\n      eq\n      tag_13\n      jumpi\n      jump(tag_2)\n    tag_27:\n      dup1\n      0x06fdde03\n      eq\n      tag_3\n      jumpi\n      dup1\n      0x095ea7b3\n      eq\n      tag_4\n      jumpi\n      dup1\n      0x18160ddd\n      eq\n      tag_5\n      jumpi\n      dup1\n      0x23b872dd\n      eq\n      tag_6\n      jumpi\n      dup1\n      0x3092afd5\n      eq\n      tag_7\n      jumpi\n    tag_2:\n      0x00\n      dup1\n      revert\n        /* \"@openzeppelin/contracts/token/ERC20/ERC20.sol\":2168:2257  function name() public view virtual returns (string memory) {... */\n    tag_3:\n      tag_28\n      tag_29\n      jump\t// in\n    tag_28:\n      mload(0x40)\n      dup1\n      dup1\n      0x20\n      add\n      dup3\n      dup2\n      sub\n      dup3\n      mstore\n      dup4\n      dup2\n      dup2\n      mload\n      dup2\n      mstore\n      0x20\n      add\n      swap2\n      pop\n      dup1\n      mload\n      swap1\n      0x20\n      add\n      swap1\n      dup1\n      dup4\n      dup4\n      0x00\n    tag_30:\n      dup4\n      dup2\n      lt\n      iszero\n      tag_32\n      jumpi\n      dup1\n      dup3\n      add\n      mload\n      dup2\n      dup5\n      add\n      mstore\n      0x20\n      dup2\n      add\n      swap1\n      pop\n      jump(tag_30)\n    tag_32:\n      pop\n      pop\n      pop\n      pop\n      swap1\n      pop\n      swap1\n      dup2\n      add\n      swap1\n      0x1f\n      and\n      dup1\n      iszero\n      tag_33\n      jumpi\n      dup1\n      dup3\n      sub\n      dup1\n      mload\n      0x01\n      dup4\n      0x20\n      sub\n      0x0100\n      exp\n      sub\n      not\n      and\n      dup2\n      mstore\n      0x20\n      add\n      swap2\n      pop\n    tag_33:\n      pop\n      swap3\n      pop\n      pop\n      pop\n      mload(0x40)\n      dup1\n      swap2\n      sub\n      swap1\n      return\n        /* \"@openzeppelin/contracts/token/ERC20/ERC20.sol\":4244:4410  function approve(address spender, uint256 amount) public virtual override returns (bool) {... */\n    tag_4:\n      tag_34\n      0x04\n      dup1\n      calldatasize\n      sub\n      0x40\n      dup2\n      lt\n      iszero\n      tag_35\n      jumpi\n      0x00\n      dup1\n      revert\n    tag_35:\n      dup2\n      add\n      swap1\n      dup1\n      dup1\n      calldataload\n      0xffffffffffffffffffffffffffffffffffffffff\n      and\n      swap1\n      0x20\n      add\n      swap1\n      swap3\n      swap2\n      swap1\n      dup1\n      calldataload\n      swap1\n      0x20\n      add\n      swap1\n      swap3\n      swap2\n      swap1\n      pop\n      pop\n      pop\n      tag_36\n      jump\t// in\n    tag_34:\n      mload(0x40)\n      dup1\n      dup3\n      iszero\n      iszero\n      dup2\n      mstore\n      0x20\n      add\n      swap2\n      pop\n      pop\n      mload(0x40)\n      dup1\n      swap2\n      sub\n      swap1\n      return\n        /* \"@openzeppelin/contracts/token/ERC20/ERC20.sol\":3235:3341  function totalSupply() public view virtual override returns (uint256) {... */\n    tag_5:\n      tag_37\n      tag_38\n      jump\t// in\n    tag_37:\n      mload(0x40)\n      dup1\n      dup3\n      dup2\n      mstore\n      0x20\n      add\n      swap2\n      pop\n      pop\n      mload(0x40)\n      dup1\n      swap2\n      sub\n      swap1\n      return\n        /* \"@openzeppelin/contracts/token/ERC20/ERC20.sol\":4877:5194  function transferFrom(address sender, address recipient, uint256 amount) public virtual override returns (bool) {... */\n    tag_6:\n      tag_39\n      0x04\n      dup1\n      calldatasize\n      sub\n      0x60\n      dup2\n      lt\n      iszero\n      tag_40\n      jumpi\n      0x00\n      dup1\n      revert\n    tag_40:\n      dup2\n      add\n      swap1\n      dup1\n      dup1\n      calldataload\n      0xffffffffffffffffffffffffffffffffffffffff\n      and\n      swap1\n      0x20\n      add\n      swap1\n      swap3\n      swap2\n      swap1\n      dup1\n      calldataload\n      0xffffffffffffffffffffffffffffffffffffffff\n      and\n      swap1\n      0x20\n      add\n      swap1\n      swap3\n      swap2\n      swap1\n      dup1\n      calldataload\n      swap1\n      0x20\n      add\n      swap1\n      swap3\n      swap2\n      swap1\n      pop\n      pop\n      pop\n      tag_41\n      jump\t// in\n    tag_39:\n      mload(0x40)\n      dup1\n      dup3\n      iszero\n      iszero\n      dup2\n      mstore\n      0x20\n      add\n      swap2\n      pop\n      pop\n      mload(0x40)\n      dup1\n      swap2\n      sub\n      swap1\n      return\n        /* \"contracts/mtb.sol\":989:1086  function removeMinter(address account) public onlyOwner {\r... */\n    tag_7:\n      tag_42\n      0x04\n      dup1\n      calldatasize\n      sub\n      0x20\n      dup2\n      lt\n      iszero\n      tag_43\n      jumpi\n      0x00\n      dup1\n      revert\n    tag_43:\n      dup2\n      add\n      swap1\n      dup1\n      dup1\n      calldataload\n      0xffffffffffffffffffffffffffffffffffffffff\n      and\n      swap1\n      0x20\n      add\n      swap1\n      swap3\n      swap2\n      swap1\n      pop\n      pop\n      pop\n      tag_44\n      jump\t// in\n    tag_42:\n      stop\n        /* \"@openzeppelin/contracts/token/ERC20/ERC20.sol\":3086:3175  function decimals() public view virtual returns (uint8) {... */\n    tag_8:\n      tag_45\n      tag_46\n      jump\t// in\n    tag_45:\n      mload(0x40)\n      dup1\n      dup3\n      0xff\n      and\n      dup2\n      mstore\n      0x20\n      add\n      swap2\n      pop\n      pop\n      mload(0x40)\n      dup1\n      swap2\n      sub\n      swap1\n      return\n        /* \"@openzeppelin/contracts/token/ERC20/ERC20Capped.sol\":601:682  function cap() public view virtual returns (uint256) {... */\n    tag_9:\n      tag_47\n      tag_48\n      jump\t// in\n    tag_47:\n      mload(0x40)\n      dup1\n      dup3\n      dup2\n      mstore\n      0x20\n      add\n      swap2\n      pop\n      pop\n      mload(0x40)\n      dup1\n      swap2\n      sub\n      swap1\n      return\n        /* \"@openzeppelin/contracts/token/ERC20/ERC20.sol\":5589:5804  function increaseAllowance(address spender, uint256 addedValue) public virtual returns (bool) {... */\n    tag_10:\n      tag_49\n      0x04\n      dup1\n      calldatasize\n      sub\n      0x40\n      dup2\n      lt\n      iszero\n      tag_50\n      jumpi\n      0x00\n      dup1\n      revert\n    tag_50:\n      dup2\n      add\n      swap1\n      dup1\n      dup1\n      calldataload\n      0xffffffffffffffffffffffffffffffffffffffff\n      and\n      swap1\n      0x20\n      add\n      swap1\n      swap3\n      swap2\n      swap1\n      dup1\n      calldataload\n      swap1\n      0x20\n      add\n      swap1\n      swap3\n      swap2\n      swap1\n      pop\n      pop\n      pop\n      tag_51\n      jump\t// in\n    tag_49:\n      mload(0x40)\n      dup1\n      dup3\n      iszero\n      iszero\n      dup2\n      mstore\n      0x20\n      add\n      swap2\n      pop\n      pop\n      mload(0x40)\n      dup1\n      swap2\n      sub\n      swap1\n      return\n        /* \"@openzeppelin/contracts/token/ERC20/ERC20Burnable.sol\":524:613  function burn(uint256 amount) public virtual {... */\n    tag_11:\n      tag_52\n      0x04\n      dup1\n      calldatasize\n      sub\n      0x20\n      dup2\n      lt\n      iszero\n      tag_53\n      jumpi\n      0x00\n      dup1\n      revert\n    tag_53:\n      dup2\n      add\n      swap1\n      dup1\n      dup1\n      calldataload\n      swap1\n      0x20\n      add\n      swap1\n      swap3\n      swap2\n      swap1\n      pop\n      pop\n      pop\n      tag_54\n      jump\t// in\n    tag_52:\n      stop\n        /* \"@openzeppelin/contracts/utils/Pausable.sol\":1052:1136  function paused() public view virtual returns (bool) {... */\n    tag_12:\n      tag_55\n      tag_56\n      jump\t// in\n    tag_55:\n      mload(0x40)\n      dup1\n      dup3\n      iszero\n      iszero\n      dup2\n      mstore\n      0x20\n      add\n      swap2\n      pop\n      pop\n      mload(0x40)\n      dup1\n      swap2\n      sub\n      swap1\n      return\n        /* \"contracts/mtb.sol\":1094:1394  function getMinters() public view returns (address[] memory) {\r... */\n    tag_13:\n      tag_57\n      tag_58\n      jump\t// in\n    tag_57:\n      mload(0x40)\n      dup1\n      dup1\n      0x20\n      add\n      dup3\n      dup2\n      sub\n      dup3\n      mstore\n      dup4\n      dup2\n      dup2\n      mload\n      dup2\n      mstore\n      0x20\n      add\n      swap2\n      pop\n      dup1\n      mload\n      swap1\n      0x20\n      add\n      swap1\n      0x20\n      mul\n      dup1\n      dup4\n      dup4\n      0x00\n    tag_59:\n      dup4\n      dup2\n      lt\n      iszero\n      tag_61\n      jumpi\n      dup1\n      dup3\n      add\n      mload\n      dup2\n      dup5\n      add\n      mstore\n      0x20\n      dup2\n      add\n      swap1\n      pop\n      jump(tag_59)\n    tag_61:\n      pop\n      pop\n      pop\n      pop\n      swap1\n      pop\n      add\n      swap3\n      pop\n      pop\n      pop\n      mload(0x40)\n      dup1\n      swap2\n      sub\n      swap1\n      return\n        /* \"@openzeppelin/contracts/token/ERC20/ERC20.sol\":3399:3524  function balanceOf(address account) public view virtual override returns (uint256) {... */\n    tag_14:\n      tag_62\n      0x04\n      dup1\n      calldatasize\n      sub\n      0x20\n      dup2\n      lt\n      iszero\n      tag_63\n      jumpi\n      0x00\n      dup1\n      revert\n    tag_63:\n      dup2\n      add\n      swap1\n      dup1\n      dup1\n      calldataload\n      0xffffffffffffffffffffffffffffffffffffffff\n      and\n      swap1\n      0x20\n      add\n      swap1\n      swap3\n      swap2\n      swap1\n      pop\n      pop\n      pop\n      tag_64\n      jump\t// in\n    tag_62:\n      mload(0x40)\n      dup1\n      dup3\n      dup2\n      mstore\n      0x20\n      add\n      swap2\n      pop\n      pop\n      mload(0x40)\n      dup1\n      swap2\n      sub\n      swap1\n      return\n        /* \"@openzeppelin/contracts/access/Ownable.sol\":1717:1862  function renounceOwnership() public virtual onlyOwner {... */\n    tag_15:\n      tag_65\n      tag_66\n      jump\t// in\n    tag_65:\n      stop\n        /* \"@openzeppelin/contracts/token/ERC20/ERC20Burnable.sol\":919:1209  function burnFrom(address account, uint256 amount) public virtual {... */\n    tag_16:\n      tag_67\n      0x04\n      dup1\n      calldatasize\n      sub\n      0x40\n      dup2\n      lt\n      iszero\n      tag_68\n      jumpi\n      0x00\n      dup1\n      revert\n    tag_68:\n      dup2\n      add\n      swap1\n      dup1\n      dup1\n      calldataload\n      0xffffffffffffffffffffffffffffffffffffffff\n      and\n      swap1\n      0x20\n      add\n      swap1\n      swap3\n      swap2\n      swap1\n      dup1\n      calldataload\n      swap1\n      0x20\n      add\n      swap1\n      swap3\n      swap2\n      swap1\n      pop\n      pop\n      pop\n      tag_69\n      jump\t// in\n    tag_67:\n      stop\n        /* \"@openzeppelin/contracts/access/Ownable.sol\":1085:1170  function owner() public view virtual returns (address) {... */\n    tag_17:\n      tag_70\n      tag_71\n      jump\t// in\n    tag_70:\n      mload(0x40)\n      dup1\n      dup3\n      0xffffffffffffffffffffffffffffffffffffffff\n      and\n      dup2\n      mstore\n      0x20\n      add\n      swap2\n      pop\n      pop\n      mload(0x40)\n      dup1\n      swap2\n      sub\n      swap1\n      return\n        /* \"@openzeppelin/contracts/token/ERC20/ERC20.sol\":2370:2463  function symbol() public view virtual returns (string memory) {... */\n    tag_18:\n      tag_72\n      tag_73\n      jump\t// in\n    tag_72:\n      mload(0x40)\n      dup1\n      dup1\n      0x20\n      add\n      dup3\n      dup2\n      sub\n      dup3\n      mstore\n      dup4\n      dup2\n      dup2\n      mload\n      dup2\n      mstore\n      0x20\n      add\n      swap2\n      pop\n      dup1\n      mload\n      swap1\n      0x20\n      add\n      swap1\n      dup1\n      dup4\n      dup4\n      0x00\n    tag_74:\n      dup4\n      dup2\n      lt\n      iszero\n      tag_76\n      jumpi\n      dup1\n      dup3\n      add\n      mload\n      dup2\n      dup5\n      add\n      mstore\n      0x20\n      dup2\n      add\n      swap1\n      pop\n      jump(tag_74)\n    tag_76:\n      pop\n      pop\n      pop\n      pop\n      swap1\n      pop\n      swap1\n      dup2\n      add\n      swap1\n      0x1f\n      and\n      dup1\n      iszero\n      tag_77\n      jumpi\n      dup1\n      dup3\n      sub\n      dup1\n      mload\n      0x01\n      dup4\n      0x20\n      sub\n      0x0100\n      exp\n      sub\n      not\n      and\n      dup2\n      mstore\n      0x20\n      add\n      swap2\n      pop\n    tag_77:\n      pop\n      swap3\n      pop\n      pop\n      pop\n      mload(0x40)\n      dup1\n      swap2\n      sub\n      swap1\n      return\n        /* \"contracts/mtb.sol\":890:981  function addMinter(address account) public onlyOwner {\r... */\n    tag_19:\n      tag_78\n      0x04\n      dup1\n      calldatasize\n      sub\n      0x20\n      dup2\n      lt\n      iszero\n      tag_79\n      jumpi\n      0x00\n      dup1\n      revert\n    tag_79:\n      dup2\n      add\n      swap1\n      dup1\n      dup1\n      calldataload\n      0xffffffffffffffffffffffffffffffffffffffff\n      and\n      swap1\n      0x20\n      add\n      swap1\n      swap3\n      swap2\n      swap1\n      pop\n      pop\n      pop\n      tag_80\n      jump\t// in\n    tag_78:\n      stop\n        /* \"contracts/mtb.sol\":1596:1673  function renounceMinter() public {\r... */\n    tag_20:\n      tag_81\n      tag_82\n      jump\t// in\n    tag_81:\n      stop\n        /* \"@openzeppelin/contracts/token/ERC20/ERC20.sol\":6291:6557  function decreaseAllowance(address spender, uint256 subtractedValue) public virtual returns (bool) {... */\n    tag_21:\n      tag_83\n      0x04\n      dup1\n      calldatasize\n      sub\n      0x40\n      dup2\n      lt\n      iszero\n      tag_84\n      jumpi\n      0x00\n      dup1\n      revert\n    tag_84:\n      dup2\n      add\n      swap1\n      dup1\n      dup1\n      calldataload\n      0xffffffffffffffffffffffffffffffffffffffff\n      and\n      swap1\n      0x20\n      add\n      swap1\n      swap3\n      swap2\n      swap1\n      dup1\n      calldataload\n      swap1\n      0x20\n      add\n      swap1\n      swap3\n      swap2\n      swap1\n      pop\n      pop\n      pop\n      tag_85\n      jump\t// in\n    tag_83:\n      mload(0x40)\n      dup1\n      dup3\n      iszero\n      iszero\n      dup2\n      mstore\n      0x20\n      add\n      swap2\n      pop\n      pop\n      mload(0x40)\n      dup1\n      swap2\n      sub\n      swap1\n      return\n        /* \"@openzeppelin/contracts/token/ERC20/ERC20.sol\":3727:3899  function transfer(address recipient, uint256 amount) public virtual override returns (bool) {... */\n    tag_22:\n      tag_86\n      0x04\n      dup1\n      calldatasize\n      sub\n      0x40\n      dup2\n      lt\n      iszero\n      tag_87\n      jumpi\n      0x00\n      dup1\n      revert\n    tag_87:\n      dup2\n      add\n      swap1\n      dup1\n      dup1\n      calldataload\n      0xffffffffffffffffffffffffffffffffffffffff\n      and\n      swap1\n      0x20\n      add\n      swap1\n      swap3\n      swap2\n      swap1\n      dup1\n      calldataload\n      swap1\n      0x20\n      add\n      swap1\n      swap3\n      swap2\n      swap1\n      pop\n      pop\n      pop\n      tag_88\n      jump\t// in\n    tag_86:\n      mload(0x40)\n      dup1\n      dup3\n      iszero\n      iszero\n      dup2\n      mstore\n      0x20\n      add\n      swap2\n      pop\n      pop\n      mload(0x40)\n      dup1\n      swap2\n      sub\n      swap1\n      return\n        /* \"@openzeppelin/contracts/token/ERC20/ERC20.sol\":3957:4106  function allowance(address owner, address spender) public view virtual override returns (uint256) {... */\n    tag_23:\n      tag_89\n      0x04\n      dup1\n      calldatasize\n      sub\n      0x40\n      dup2\n      lt\n      iszero\n      tag_90\n      jumpi\n      0x00\n      dup1\n      revert\n    tag_90:\n      dup2\n      add\n      swap1\n      dup1\n      dup1\n      calldataload\n      0xffffffffffffffffffffffffffffffffffffffff\n      and\n      swap1\n      0x20\n      add\n      swap1\n      swap3\n      swap2\n      swap1\n      dup1\n      calldataload\n      0xffffffffffffffffffffffffffffffffffffffff\n      and\n      swap1\n      0x20\n      add\n      swap1\n      swap3\n      swap2\n      swap1\n      pop\n      pop\n      pop\n      tag_91\n      jump\t// in\n    tag_89:\n      mload(0x40)\n      dup1\n      dup3\n      dup2\n      mstore\n      0x20\n      add\n      swap2\n      pop\n      pop\n      mload(0x40)\n      dup1\n      swap2\n      sub\n      swap1\n      return\n        /* \"@openzeppelin/contracts/access/Ownable.sol\":2011:2251  function transferOwnership(address newOwner) public virtual onlyOwner {... */\n    tag_24:\n      tag_92\n      0x04\n      dup1\n      calldatasize\n      sub\n      0x20\n      dup2\n      lt\n      iszero\n      tag_93\n      jumpi\n      0x00\n      dup1\n      revert\n    tag_93:\n      dup2\n      add\n      swap1\n      dup1\n      dup1\n      calldataload\n      0xffffffffffffffffffffffffffffffffffffffff\n      and\n      swap1\n      0x20\n      add\n      swap1\n      swap3\n      swap2\n      swap1\n      pop\n      pop\n      pop\n      tag_94\n      jump\t// in\n    tag_92:\n      stop\n        /* \"@openzeppelin/contracts/token/ERC20/ERC20.sol\":2168:2257  function name() public view virtual returns (string memory) {... */\n    tag_29:\n        /* \"@openzeppelin/contracts/token/ERC20/ERC20.sol\":2213:2226  string memory */\n      0x60\n        /* \"@openzeppelin/contracts/token/ERC20/ERC20.sol\":2245:2250  _name */\n      0x03\n        /* \"@openzeppelin/contracts/token/ERC20/ERC20.sol\":2238:2250  return _name */\n      dup1\n      sload\n      0x01\n      dup2\n      0x01\n      and\n      iszero\n      0x0100\n      mul\n      sub\n      and\n      0x02\n      swap1\n      div\n      dup1\n      0x1f\n      add\n      0x20\n      dup1\n      swap2\n      div\n      mul\n      0x20\n      add\n      mload(0x40)\n      swap1\n      dup2\n      add\n      0x40\n      mstore\n      dup1\n      swap3\n      swap2\n      swap1\n      dup2\n      dup2\n      mstore\n      0x20\n      add\n      dup3\n      dup1\n      sload\n      0x01\n      dup2\n      0x01\n      and\n      iszero\n      0x0100\n      mul\n      sub\n      and\n      0x02\n      swap1\n      div\n      dup1\n      iszero\n      tag_97\n      jumpi\n      dup1\n      0x1f\n      lt\n      tag_98\n      jumpi\n      0x0100\n      dup1\n      dup4\n      sload\n      div\n      mul\n      dup4\n      mstore\n      swap2\n      0x20\n      add\n      swap2\n      jump(tag_97)\n    tag_98:\n      dup3\n      add\n      swap2\n      swap1\n      0x00\n      mstore\n      keccak256(0x00, 0x20)\n      swap1\n    tag_99:\n      dup2\n      sload\n      dup2\n      mstore\n      swap1\n      0x01\n      add\n      swap1\n      0x20\n      add\n      dup1\n      dup4\n      gt\n      tag_99\n      jumpi\n      dup3\n      swap1\n      sub\n      0x1f\n      and\n      dup3\n      add\n      swap2\n    tag_97:\n      pop\n      pop\n      pop\n      pop\n      pop\n      swap1\n      pop\n        /* \"@openzeppelin/contracts/token/ERC20/ERC20.sol\":2168:2257  function name() public view virtual returns (string memory) {... */\n      swap1\n      jump\t// out\n        /* \"@openzeppelin/contracts/token/ERC20/ERC20.sol\":4244:4410  function approve(address spender, uint256 amount) public virtual override returns (bool) {... */\n    tag_36:\n        /* \"@openzeppelin/contracts/token/ERC20/ERC20.sol\":4327:4331  bool */\n      0x00\n        /* \"@openzeppelin/contracts/token/ERC20/ERC20.sol\":4343:4382  _approve(_msgSender(), spender, amount) */\n      tag_101\n        /* \"@openzeppelin/contracts/token/ERC20/ERC20.sol\":4352:4364  _msgSender() */\n      tag_102\n        /* \"@openzeppelin/contracts/token/ERC20/ERC20.sol\":4352:4362  _msgSender */\n      tag_103\n        /* \"@openzeppelin/contracts/token/ERC20/ERC20.sol\":4352:4364  _msgSender() */\n      jump\t// in\n    tag_102:\n        /* \"@openzeppelin/contracts/token/ERC20/ERC20.sol\":4366:4373  spender */\n      dup5\n        /* \"@openzeppelin/contracts/token/ERC20/ERC20.sol\":4375:4381  amount */\n      dup5\n        /* \"@openzeppelin/contracts/token/ERC20/ERC20.sol\":4343:4351  _approve */\n      tag_104\n        /* \"@openzeppelin/contracts/token/ERC20/ERC20.sol\":4343:4382  _approve(_msgSender(), spender, amount) */\n      jump\t// in\n    tag_101:\n        /* \"@openzeppelin/contracts/token/ERC20/ERC20.sol\":4399:4403  true */\n      0x01\n        /* \"@openzeppelin/contracts/token/ERC20/ERC20.sol\":4392:4403  return true */\n      swap1\n      pop\n        /* \"@openzeppelin/contracts/token/ERC20/ERC20.sol\":4244:4410  function approve(address spender, uint256 amount) public virtual override returns (bool) {... */\n      swap3\n      swap2\n      pop\n      pop\n      jump\t// out\n        /* \"@openzeppelin/contracts/token/ERC20/ERC20.sol\":3235:3341  function totalSupply() public view virtual override returns (uint256) {... */\n    tag_38:\n        /* \"@openzeppelin/contracts/token/ERC20/ERC20.sol\":3296:3303  uint256 */\n      0x00\n        /* \"@openzeppelin/contracts/token/ERC20/ERC20.sol\":3322:3334  _totalSupply */\n      sload(0x02)\n        /* \"@openzeppelin/contracts/token/ERC20/ERC20.sol\":3315:3334  return _totalSupply */\n      swap1\n      pop\n        /* \"@openzeppelin/contracts/token/ERC20/ERC20.sol\":3235:3341  function totalSupply() public view virtual override returns (uint256) {... */\n      swap1\n      jump\t// out\n        /* \"@openzeppelin/contracts/token/ERC20/ERC20.sol\":4877:5194  function transferFrom(address sender, address recipient, uint256 amount) public virtual override returns (bool) {... */\n    tag_41:\n        /* \"@openzeppelin/contracts/token/ERC20/ERC20.sol\":4983:4987  bool */\n      0x00\n        /* \"@openzeppelin/contracts/token/ERC20/ERC20.sol\":4999:5035  _transfer(sender, recipient, amount) */\n      tag_107\n        /* \"@openzeppelin/contracts/token/ERC20/ERC20.sol\":5009:5015  sender */\n      dup5\n        /* \"@openzeppelin/contracts/token/ERC20/ERC20.sol\":5017:5026  recipient */\n      dup5\n        /* \"@openzeppelin/contracts/token/ERC20/ERC20.sol\":5028:5034  amount */\n      dup5\n        /* \"@openzeppelin/contracts/token/ERC20/ERC20.sol\":4999:5008  _transfer */\n      tag_108\n        /* \"@openzeppelin/contracts/token/ERC20/ERC20.sol\":4999:5035  _transfer(sender, recipient, amount) */\n      jump\t// in\n    tag_107:\n        /* \"@openzeppelin/contracts/token/ERC20/ERC20.sol\":5045:5166  _approve(sender, _msgSender(), _allowances[sender][_msgSender()].sub(amount, \"ERC20: transfer amount exceeds allowance\")) */\n      tag_109\n        /* \"@openzeppelin/contracts/token/ERC20/ERC20.sol\":5054:5060  sender */\n      dup5\n        /* \"@openzeppelin/contracts/token/ERC20/ERC20.sol\":5062:5074  _msgSender() */\n      tag_110\n        /* \"@openzeppelin/contracts/token/ERC20/ERC20.sol\":5062:5072  _msgSender */\n      tag_103\n        /* \"@openzeppelin/contracts/token/ERC20/ERC20.sol\":5062:5074  _msgSender() */\n      jump\t// in\n    tag_110:\n        /* \"@openzeppelin/contracts/token/ERC20/ERC20.sol\":5076:5165  _allowances[sender][_msgSender()].sub(amount, \"ERC20: transfer amount exceeds allowance\") */\n      tag_111\n        /* \"@openzeppelin/contracts/token/ERC20/ERC20.sol\":5114:5120  amount */\n      dup6\n        /* \"@openzeppelin/contracts/token/ERC20/ERC20.sol\":5076:5165  _allowances[sender][_msgSender()].sub(amount, \"ERC20: transfer amount exceeds allowance\") */\n      mload(0x40)\n      dup1\n      0x60\n      add\n      0x40\n      mstore\n      dup1\n      0x28\n      dup2\n      mstore\n      0x20\n      add\n      data_974d1b4421da69cc60b481194f0dad36a5bb4e23da810da7a7fb30cdba178330\n      0x28\n      swap2\n      codecopy\n        /* \"@openzeppelin/contracts/token/ERC20/ERC20.sol\":5076:5087  _allowances */\n      0x01\n        /* \"@openzeppelin/contracts/token/ERC20/ERC20.sol\":5076:5095  _allowances[sender] */\n      0x00\n        /* \"@openzeppelin/contracts/token/ERC20/ERC20.sol\":5088:5094  sender */\n      dup12\n        /* \"@openzeppelin/contracts/token/ERC20/ERC20.sol\":5076:5095  _allowances[sender] */\n      0xffffffffffffffffffffffffffffffffffffffff\n      and\n      0xffffffffffffffffffffffffffffffffffffffff\n      and\n      dup2\n      mstore\n      0x20\n      add\n      swap1\n      dup2\n      mstore\n      0x20\n      add\n      0x00\n      keccak256\n        /* \"@openzeppelin/contracts/token/ERC20/ERC20.sol\":5076:5109  _allowances[sender][_msgSender()] */\n      0x00\n        /* \"@openzeppelin/contracts/token/ERC20/ERC20.sol\":5096:5108  _msgSender() */\n      tag_112\n        /* \"@openzeppelin/contracts/token/ERC20/ERC20.sol\":5096:5106  _msgSender */\n      tag_103\n        /* \"@openzeppelin/contracts/token/ERC20/ERC20.sol\":5096:5108  _msgSender() */\n      jump\t// in\n    tag_112:\n        /* \"@openzeppelin/contracts/token/ERC20/ERC20.sol\":5076:5109  _allowances[sender][_msgSender()] */\n      0xffffffffffffffffffffffffffffffffffffffff\n      and\n      0xffffffffffffffffffffffffffffffffffffffff\n      and\n      dup2\n      mstore\n      0x20\n      add\n      swap1\n      dup2\n      mstore\n      0x20\n      add\n      0x00\n      keccak256\n      sload\n        /* \"@openzeppelin/contracts/token/ERC20/ERC20.sol\":5076:5113  _allowances[sender][_msgSender()].sub */\n      tag_113\n      swap1\n        /* \"@openzeppelin/contracts/token/ERC20/ERC20.sol\":5076:5165  _allowances[sender][_msgSender()].sub(amount, \"ERC20: transfer amount exceeds allowance\") */\n      swap3\n      swap2\n      swap1\n      0xffffffff\n      and\n      jump\t// in\n    tag_111:\n        /* \"@openzeppelin/contracts/token/ERC20/ERC20.sol\":5045:5053  _approve */\n      tag_104\n        /* \"@openzeppelin/contracts/token/ERC20/ERC20.sol\":5045:5166  _approve(sender, _msgSender(), _allowances[sender][_msgSender()].sub(amount, \"ERC20: transfer amount exceeds allowance\")) */\n      jump\t// in\n    tag_109:\n        /* \"@openzeppelin/contracts/token/ERC20/ERC20.sol\":5183:5187  true */\n      0x01\n        /* \"@openzeppelin/contracts/token/ERC20/ERC20.sol\":5176:5187  return true */\n      swap1\n      pop\n        /* \"@openzeppelin/contracts/token/ERC20/ERC20.sol\":4877:5194  function transferFrom(address sender, address recipient, uint256 amount) public virtual override returns (bool) {... */\n      swap4\n      swap3\n      pop\n      pop\n      pop\n      jump\t// out\n        /* \"contracts/mtb.sol\":989:1086  function removeMinter(address account) public onlyOwner {\r... */\n    tag_44:\n        /* \"@openzeppelin/contracts/access/Ownable.sol\":1308:1320  _msgSender() */\n      tag_115\n        /* \"@openzeppelin/contracts/access/Ownable.sol\":1308:1318  _msgSender */\n      tag_103\n        /* \"@openzeppelin/contracts/access/Ownable.sol\":1308:1320  _msgSender() */\n      jump\t// in\n    tag_115:\n        /* \"@openzeppelin/contracts/access/Ownable.sol\":1297:1320  owner() == _msgSender() */\n      0xffffffffffffffffffffffffffffffffffffffff\n      and\n        /* \"@openzeppelin/contracts/access/Ownable.sol\":1297:1304  owner() */\n      tag_116\n        /* \"@openzeppelin/contracts/access/Ownable.sol\":1297:1302  owner */\n      tag_71\n        /* \"@openzeppelin/contracts/access/Ownable.sol\":1297:1304  owner() */\n      jump\t// in\n    tag_116:\n        /* \"@openzeppelin/contracts/access/Ownable.sol\":1297:1320  owner() == _msgSender() */\n      0xffffffffffffffffffffffffffffffffffffffff\n      and\n      eq\n        /* \"@openzeppelin/contracts/access/Ownable.sol\":1289:1357  require(owner() == _msgSender(), \"Ownable: caller is not the owner\") */\n      tag_117\n      jumpi\n      mload(0x40)\n      0x08c379a000000000000000000000000000000000000000000000000000000000\n      dup2\n      mstore\n      0x04\n      add\n      dup1\n      dup1\n      0x20\n      add\n      dup3\n      dup2\n      sub\n      dup3\n      mstore\n      0x20\n      dup2\n      mstore\n      0x20\n      add\n      dup1\n      0x4f776e61626c653a2063616c6c6572206973206e6f7420746865206f776e6572\n      dup2\n      mstore\n      pop\n      0x20\n      add\n      swap2\n      pop\n      pop\n      mload(0x40)\n      dup1\n      swap2\n      sub\n      swap1\n      revert\n    tag_117:\n        /* \"contracts/mtb.sol\":1056:1078  _removeMinter(account) */\n      tag_119\n        /* \"contracts/mtb.sol\":1070:1077  account */\n      dup2\n        /* \"contracts/mtb.sol\":1056:1069  _removeMinter */\n      tag_120\n        /* \"contracts/mtb.sol\":1056:1078  _removeMinter(account) */\n      jump\t// in\n    tag_119:\n        /* \"contracts/mtb.sol\":989:1086  function removeMinter(address account) public onlyOwner {\r... */\n      pop\n      jump\t// out\n        /* \"@openzeppelin/contracts/token/ERC20/ERC20.sol\":3086:3175  function decimals() public view virtual returns (uint8) {... */\n    tag_46:\n        /* \"@openzeppelin/contracts/token/ERC20/ERC20.sol\":3135:3140  uint8 */\n      0x00\n        /* \"@openzeppelin/contracts/token/ERC20/ERC20.sol\":3159:3168  _decimals */\n      0x05\n      0x00\n      swap1\n      sload\n      swap1\n      0x0100\n      exp\n      swap1\n      div\n      0xff\n      and\n        /* \"@openzeppelin/contracts/token/ERC20/ERC20.sol\":3152:3168  return _decimals */\n      swap1\n      pop\n        /* \"@openzeppelin/contracts/token/ERC20/ERC20.sol\":3086:3175  function decimals() public view virtual returns (uint8) {... */\n      swap1\n      jump\t// out\n        /* \"@openzeppelin/contracts/token/ERC20/ERC20Capped.sol\":601:682  function cap() public view virtual returns (uint256) {... */\n    tag_48:\n        /* \"@openzeppelin/contracts/token/ERC20/ERC20Capped.sol\":645:652  uint256 */\n      0x00\n        /* \"@openzeppelin/contracts/token/ERC20/ERC20Capped.sol\":671:675  _cap */\n      sload(0x06)\n        /* \"@openzeppelin/contracts/token/ERC20/ERC20Capped.sol\":664:675  return _cap */\n      swap1\n      pop\n        /* \"@openzeppelin/contracts/token/ERC20/ERC20Capped.sol\":601:682  function cap() public view virtual returns (uint256) {... */\n      swap1\n      jump\t// out\n        /* \"@openzeppelin/contracts/token/ERC20/ERC20.sol\":5589:5804  function increaseAllowance(address spender, uint256 addedValue) public virtual returns (bool) {... */\n    tag_51:\n        /* \"@openzeppelin/contracts/token/ERC20/ERC20.sol\":5677:5681  bool */\n      0x00\n        /* \"@openzeppelin/contracts/token/ERC20/ERC20.sol\":5693:5776  _approve(_msgSender(), spender, _allowances[_msgSender()][spender].add(addedValue)) */\n      tag_124\n        /* \"@openzeppelin/contracts/token/ERC20/ERC20.sol\":5702:5714  _msgSender() */\n      tag_125\n        /* \"@openzeppelin/contracts/token/ERC20/ERC20.sol\":5702:5712  _msgSender */\n      tag_103\n        /* \"@openzeppelin/contracts/token/ERC20/ERC20.sol\":5702:5714  _msgSender() */\n      jump\t// in\n    tag_125:\n        /* \"@openzeppelin/contracts/token/ERC20/ERC20.sol\":5716:5723  spender */\n      dup5\n        /* \"@openzeppelin/contracts/token/ERC20/ERC20.sol\":5725:5775  _allowances[_msgSender()][spender].add(addedValue) */\n      tag_126\n        /* \"@openzeppelin/contracts/token/ERC20/ERC20.sol\":5764:5774  addedValue */\n      dup6\n        /* \"@openzeppelin/contracts/token/ERC20/ERC20.sol\":5725:5736  _allowances */\n      0x01\n        /* \"@openzeppelin/contracts/token/ERC20/ERC20.sol\":5725:5750  _allowances[_msgSender()] */\n      0x00\n        /* \"@openzeppelin/contracts/token/ERC20/ERC20.sol\":5737:5749  _msgSender() */\n      tag_127\n        /* \"@openzeppelin/contracts/token/ERC20/ERC20.sol\":5737:5747  _msgSender */\n      tag_103\n        /* \"@openzeppelin/contracts/token/ERC20/ERC20.sol\":5737:5749  _msgSender() */\n      jump\t// in\n    tag_127:\n        /* \"@openzeppelin/contracts/token/ERC20/ERC20.sol\":5725:5750  _allowances[_msgSender()] */\n      0xffffffffffffffffffffffffffffffffffffffff\n      and\n      0xffffffffffffffffffffffffffffffffffffffff\n      and\n      dup2\n      mstore\n      0x20\n      add\n      swap1\n      dup2\n      mstore\n      0x20\n      add\n      0x00\n      keccak256\n        /* \"@openzeppelin/contracts/token/ERC20/ERC20.sol\":5725:5759  _allowances[_msgSender()][spender] */\n      0x00\n        /* \"@openzeppelin/contracts/token/ERC20/ERC20.sol\":5751:5758  spender */\n      dup10\n        /* \"@openzeppelin/contracts/token/ERC20/ERC20.sol\":5725:5759  _allowances[_msgSender()][spender] */\n      0xffffffffffffffffffffffffffffffffffffffff\n      and\n      0xffffffffffffffffffffffffffffffffffffffff\n      and\n      dup2\n      mstore\n      0x20\n      add\n      swap1\n      dup2\n      mstore\n      0x20\n      add\n      0x00\n      keccak256\n      sload\n        /* \"@openzeppelin/contracts/token/ERC20/ERC20.sol\":5725:5763  _allowances[_msgSender()][spender].add */\n      tag_128\n      swap1\n        /* \"@openzeppelin/contracts/token/ERC20/ERC20.sol\":5725:5775  _allowances[_msgSender()][spender].add(addedValue) */\n      swap2\n      swap1\n      0xffffffff\n      and\n      jump\t// in\n    tag_126:\n        /* \"@openzeppelin/contracts/token/ERC20/ERC20.sol\":5693:5701  _approve */\n      tag_104\n        /* \"@openzeppelin/contracts/token/ERC20/ERC20.sol\":5693:5776  _approve(_msgSender(), spender, _allowances[_msgSender()][spender].add(addedValue)) */\n      jump\t// in\n    tag_124:\n        /* \"@openzeppelin/contracts/token/ERC20/ERC20.sol\":5793:5797  true */\n      0x01\n        /* \"@openzeppelin/contracts/token/ERC20/ERC20.sol\":5786:5797  return true */\n      swap1\n      pop\n        /* \"@openzeppelin/contracts/token/ERC20/ERC20.sol\":5589:5804  function increaseAllowance(address spender, uint256 addedValue) public virtual returns (bool) {... */\n      swap3\n      swap2\n      pop\n      pop\n      jump\t// out\n        /* \"@openzeppelin/contracts/token/ERC20/ERC20Burnable.sol\":524:613  function burn(uint256 amount) public virtual {... */\n    tag_54:\n        /* \"@openzeppelin/contracts/token/ERC20/ERC20Burnable.sol\":579:606  _burn(_msgSender(), amount) */\n      tag_130\n        /* \"@openzeppelin/contracts/token/ERC20/ERC20Burnable.sol\":585:597  _msgSender() */\n      tag_131\n        /* \"@openzeppelin/contracts/token/ERC20/ERC20Burnable.sol\":585:595  _msgSender */\n      tag_103\n        /* \"@openzeppelin/contracts/token/ERC20/ERC20Burnable.sol\":585:597  _msgSender() */\n      jump\t// in\n    tag_131:\n        /* \"@openzeppelin/contracts/token/ERC20/ERC20Burnable.sol\":599:605  amount */\n      dup3\n        /* \"@openzeppelin/contracts/token/ERC20/ERC20Burnable.sol\":579:584  _burn */\n      tag_132\n        /* \"@openzeppelin/contracts/token/ERC20/ERC20Burnable.sol\":579:606  _burn(_msgSender(), amount) */\n      jump\t// in\n    tag_130:\n        /* \"@openzeppelin/contracts/token/ERC20/ERC20Burnable.sol\":524:613  function burn(uint256 amount) public virtual {... */\n      pop\n      jump\t// out\n        /* \"@openzeppelin/contracts/utils/Pausable.sol\":1052:1136  function paused() public view virtual returns (bool) {... */\n    tag_56:\n        /* \"@openzeppelin/contracts/utils/Pausable.sol\":1099:1103  bool */\n      0x00\n        /* \"@openzeppelin/contracts/utils/Pausable.sol\":1122:1129  _paused */\n      0x05\n      0x01\n      swap1\n      sload\n      swap1\n      0x0100\n      exp\n      swap1\n      div\n      0xff\n      and\n        /* \"@openzeppelin/contracts/utils/Pausable.sol\":1115:1129  return _paused */\n      swap1\n      pop\n        /* \"@openzeppelin/contracts/utils/Pausable.sol\":1052:1136  function paused() public view virtual returns (bool) {... */\n      swap1\n      jump\t// out\n        /* \"contracts/mtb.sol\":1094:1394  function getMinters() public view returns (address[] memory) {\r... */\n    tag_58:\n        /* \"contracts/mtb.sol\":1137:1153  address[] memory */\n      0x60\n        /* \"contracts/mtb.sol\":1166:1198  address[] memory minterAddresses */\n      dup1\n        /* \"contracts/mtb.sol\":1215:1232  _minters.length() */\n      tag_135\n        /* \"contracts/mtb.sol\":1215:1223  _minters */\n      0x08\n        /* \"contracts/mtb.sol\":1215:1230  _minters.length */\n      tag_136\n        /* \"contracts/mtb.sol\":1215:1232  _minters.length() */\n      jump\t// in\n    tag_135:\n        /* \"contracts/mtb.sol\":1201:1233  new address[](_minters.length()) */\n      0xffffffffffffffff\n      dup2\n      gt\n      dup1\n      iszero\n      tag_137\n      jumpi\n      0x00\n      dup1\n      revert\n    tag_137:\n      pop\n      mload(0x40)\n      swap1\n      dup1\n      dup3\n      mstore\n      dup1\n      0x20\n      mul\n      0x20\n      add\n      dup3\n      add\n      0x40\n      mstore\n      dup1\n      iszero\n      tag_138\n      jumpi\n      dup2\n      0x20\n      add\n      0x20\n      dup3\n      mul\n      dup1\n      calldatasize\n      dup4\n      calldatacopy\n      dup1\n      dup3\n      add\n      swap2\n      pop\n      pop\n      swap1\n      pop\n    tag_138:\n      pop\n        /* \"contracts/mtb.sol\":1166:1233  address[] memory minterAddresses = new address[](_minters.length()) */\n      swap1\n      pop\n        /* \"contracts/mtb.sol\":1249:1258  uint256 i */\n      0x00\n        /* \"contracts/mtb.sol\":1244:1354  for (uint256 i = 0; i < _minters.length(); i++) {\r... */\n    tag_139:\n        /* \"contracts/mtb.sol\":1268:1285  _minters.length() */\n      tag_142\n        /* \"contracts/mtb.sol\":1268:1276  _minters */\n      0x08\n        /* \"contracts/mtb.sol\":1268:1283  _minters.length */\n      tag_136\n        /* \"contracts/mtb.sol\":1268:1285  _minters.length() */\n      jump\t// in\n    tag_142:\n        /* \"contracts/mtb.sol\":1264:1265  i */\n      dup2\n        /* \"contracts/mtb.sol\":1264:1285  i < _minters.length() */\n      lt\n        /* \"contracts/mtb.sol\":1244:1354  for (uint256 i = 0; i < _minters.length(); i++) {\r... */\n      iszero\n      tag_140\n      jumpi\n        /* \"contracts/mtb.sol\":1328:1342  _minters.at(i) */\n      tag_143\n        /* \"contracts/mtb.sol\":1340:1341  i */\n      dup2\n        /* \"contracts/mtb.sol\":1328:1336  _minters */\n      0x08\n        /* \"contracts/mtb.sol\":1328:1339  _minters.at */\n      tag_144\n      swap1\n        /* \"contracts/mtb.sol\":1328:1342  _minters.at(i) */\n      swap2\n      swap1\n      0xffffffff\n      and\n      jump\t// in\n    tag_143:\n        /* \"contracts/mtb.sol\":1307:1322  minterAddresses */\n      dup3\n        /* \"contracts/mtb.sol\":1323:1324  i */\n      dup3\n        /* \"contracts/mtb.sol\":1307:1325  minterAddresses[i] */\n      dup2\n      mload\n      dup2\n      lt\n      tag_145\n      jumpi\n      invalid\n    tag_145:\n      0x20\n      mul\n      0x20\n      add\n      add\n        /* \"contracts/mtb.sol\":1307:1342  minterAddresses[i] = _minters.at(i) */\n      swap1\n      0xffffffffffffffffffffffffffffffffffffffff\n      and\n      swap1\n      dup2\n      0xffffffffffffffffffffffffffffffffffffffff\n      and\n      dup2\n      mstore\n      pop\n      pop\n        /* \"contracts/mtb.sol\":1287:1290  i++ */\n      dup1\n      dup1\n      0x01\n      add\n      swap2\n      pop\n      pop\n        /* \"contracts/mtb.sol\":1244:1354  for (uint256 i = 0; i < _minters.length(); i++) {\r... */\n      jump(tag_139)\n    tag_140:\n      pop\n        /* \"contracts/mtb.sol\":1371:1386  minterAddresses */\n      dup1\n        /* \"contracts/mtb.sol\":1364:1386  return minterAddresses */\n      swap2\n      pop\n      pop\n        /* \"contracts/mtb.sol\":1094:1394  function getMinters() public view returns (address[] memory) {\r... */\n      swap1\n      jump\t// out\n        /* \"@openzeppelin/contracts/token/ERC20/ERC20.sol\":3399:3524  function balanceOf(address account) public view virtual override returns (uint256) {... */\n    tag_64:\n        /* \"@openzeppelin/contracts/token/ERC20/ERC20.sol\":3473:3480  uint256 */\n      0x00\n        /* \"@openzeppelin/contracts/token/ERC20/ERC20.sol\":3499:3508  _balances */\n      dup1\n        /* \"@openzeppelin/contracts/token/ERC20/ERC20.sol\":3499:3517  _balances[account] */\n      0x00\n        /* \"@openzeppelin/contracts/token/ERC20/ERC20.sol\":3509:3516  account */\n      dup4\n        /* \"@openzeppelin/contracts/token/ERC20/ERC20.sol\":3499:3517  _balances[account] */\n      0xffffffffffffffffffffffffffffffffffffffff\n      and\n      0xffffffffffffffffffffffffffffffffffffffff\n      and\n      dup2\n      mstore\n      0x20\n      add\n      swap1\n      dup2\n      mstore\n      0x20\n      add\n      0x00\n      keccak256\n      sload\n        /* \"@openzeppelin/contracts/token/ERC20/ERC20.sol\":3492:3517  return _balances[account] */\n      swap1\n      pop\n        /* \"@openzeppelin/contracts/token/ERC20/ERC20.sol\":3399:3524  function balanceOf(address account) public view virtual override returns (uint256) {... */\n      swap2\n      swap1\n      pop\n      jump\t// out\n        /* \"@openzeppelin/contracts/access/Ownable.sol\":1717:1862  function renounceOwnership() public virtual onlyOwner {... */\n    tag_66:\n        /* \"@openzeppelin/contracts/access/Ownable.sol\":1308:1320  _msgSender() */\n      tag_148\n        /* \"@openzeppelin/contracts/access/Ownable.sol\":1308:1318  _msgSender */\n      tag_103\n        /* \"@openzeppelin/contracts/access/Ownable.sol\":1308:1320  _msgSender() */\n      jump\t// in\n    tag_148:\n        /* \"@openzeppelin/contracts/access/Ownable.sol\":1297:1320  owner() == _msgSender() */\n      0xffffffffffffffffffffffffffffffffffffffff\n      and\n        /* \"@openzeppelin/contracts/access/Ownable.sol\":1297:1304  owner() */\n      tag_149\n        /* \"@openzeppelin/contracts/access/Ownable.sol\":1297:1302  owner */\n      tag_71\n        /* \"@openzeppelin/contracts/access/Ownable.sol\":1297:1304  owner() */\n      jump\t// in\n    tag_149:\n        /* \"@openzeppelin/contracts/access/Ownable.sol\":1297:1320  owner() == _msgSender() */\n      0xffffffffffffffffffffffffffffffffffffffff\n      and\n      eq\n        /* \"@openzeppelin/contracts/access/Ownable.sol\":1289:1357  require(owner() == _msgSender(), \"Ownable: caller is not the owner\") */\n      tag_150\n      jumpi\n      mload(0x40)\n      0x08c379a000000000000000000000000000000000000000000000000000000000\n      dup2\n      mstore\n      0x04\n      add\n      dup1\n      dup1\n      0x20\n      add\n      dup3\n      dup2\n      sub\n      dup3\n      mstore\n      0x20\n      dup2\n      mstore\n      0x20\n      add\n      dup1\n      0x4f776e61626c653a2063616c6c6572206973206e6f7420746865206f776e6572\n      dup2\n      mstore\n      pop\n      0x20\n      add\n      swap2\n      pop\n      pop\n      mload(0x40)\n      dup1\n      swap2\n      sub\n      swap1\n      revert\n    tag_150:\n        /* \"@openzeppelin/contracts/access/Ownable.sol\":1823:1824  0 */\n      0x00\n        /* \"@openzeppelin/contracts/access/Ownable.sol\":1786:1826  OwnershipTransferred(_owner, address(0)) */\n      0xffffffffffffffffffffffffffffffffffffffff\n      and\n        /* \"@openzeppelin/contracts/access/Ownable.sol\":1807:1813  _owner */\n      0x07\n      0x00\n      swap1\n      sload\n      swap1\n      0x0100\n      exp\n      swap1\n      div\n      0xffffffffffffffffffffffffffffffffffffffff\n      and\n        /* \"@openzeppelin/contracts/access/Ownable.sol\":1786:1826  OwnershipTransferred(_owner, address(0)) */\n      0xffffffffffffffffffffffffffffffffffffffff\n      and\n      0x8be0079c531659141344cd1fd0a4f28419497f9722a3daafe3b4186f6b6457e0\n      mload(0x40)\n      mload(0x40)\n      dup1\n      swap2\n      sub\n      swap1\n      log3\n        /* \"@openzeppelin/contracts/access/Ownable.sol\":1853:1854  0 */\n      0x00\n        /* \"@openzeppelin/contracts/access/Ownable.sol\":1836:1842  _owner */\n      0x07\n      0x00\n        /* \"@openzeppelin/contracts/access/Ownable.sol\":1836:1855  _owner = address(0) */\n      0x0100\n      exp\n      dup2\n      sload\n      dup2\n      0xffffffffffffffffffffffffffffffffffffffff\n      mul\n      not\n      and\n      swap1\n      dup4\n      0xffffffffffffffffffffffffffffffffffffffff\n      and\n      mul\n      or\n      swap1\n      sstore\n      pop\n        /* \"@openzeppelin/contracts/access/Ownable.sol\":1717:1862  function renounceOwnership() public virtual onlyOwner {... */\n      jump\t// out\n        /* \"@openzeppelin/contracts/token/ERC20/ERC20Burnable.sol\":919:1209  function burnFrom(address account, uint256 amount) public virtual {... */\n    tag_69:\n        /* \"@openzeppelin/contracts/token/ERC20/ERC20Burnable.sol\":995:1021  uint256 decreasedAllowance */\n      0x00\n        /* \"@openzeppelin/contracts/token/ERC20/ERC20Burnable.sol\":1024:1108  allowance(account, _msgSender()).sub(amount, \"ERC20: burn amount exceeds allowance\") */\n      tag_153\n        /* \"@openzeppelin/contracts/token/ERC20/ERC20Burnable.sol\":1061:1067  amount */\n      dup3\n        /* \"@openzeppelin/contracts/token/ERC20/ERC20Burnable.sol\":1024:1108  allowance(account, _msgSender()).sub(amount, \"ERC20: burn amount exceeds allowance\") */\n      mload(0x40)\n      dup1\n      0x60\n      add\n      0x40\n      mstore\n      dup1\n      0x24\n      dup2\n      mstore\n      0x20\n      add\n      data_a287c363786607a1457a2d9d12fa61c0073358e02d76b4035fc2c2d86a19c0db\n      0x24\n      swap2\n      codecopy\n        /* \"@openzeppelin/contracts/token/ERC20/ERC20Burnable.sol\":1024:1056  allowance(account, _msgSender()) */\n      tag_154\n        /* \"@openzeppelin/contracts/token/ERC20/ERC20Burnable.sol\":1034:1041  account */\n      dup7\n        /* \"@openzeppelin/contracts/token/ERC20/ERC20Burnable.sol\":1043:1055  _msgSender() */\n      tag_155\n        /* \"@openzeppelin/contracts/token/ERC20/ERC20Burnable.sol\":1043:1053  _msgSender */\n      tag_103\n        /* \"@openzeppelin/contracts/token/ERC20/ERC20Burnable.sol\":1043:1055  _msgSender() */\n      jump\t// in\n    tag_155:\n        /* \"@openzeppelin/contracts/token/ERC20/ERC20Burnable.sol\":1024:1033  allowance */\n      tag_91\n        /* \"@openzeppelin/contracts/token/ERC20/ERC20Burnable.sol\":1024:1056  allowance(account, _msgSender()) */\n      jump\t// in\n    tag_154:\n        /* \"@openzeppelin/contracts/token/ERC20/ERC20Burnable.sol\":1024:1060  allowance(account, _msgSender()).sub */\n      tag_113\n      swap1\n        /* \"@openzeppelin/contracts/token/ERC20/ERC20Burnable.sol\":1024:1108  allowance(account, _msgSender()).sub(amount, \"ERC20: burn amount exceeds allowance\") */\n      swap3\n      swap2\n      swap1\n      0xffffffff\n      and\n      jump\t// in\n    tag_153:\n        /* \"@openzeppelin/contracts/token/ERC20/ERC20Burnable.sol\":995:1108  uint256 decreasedAllowance = allowance(account, _msgSender()).sub(amount, \"ERC20: burn amount exceeds allowance\") */\n      swap1\n      pop\n        /* \"@openzeppelin/contracts/token/ERC20/ERC20Burnable.sol\":1119:1170  _approve(account, _msgSender(), decreasedAllowance) */\n      tag_156\n        /* \"@openzeppelin/contracts/token/ERC20/ERC20Burnable.sol\":1128:1135  account */\n      dup4\n        /* \"@openzeppelin/contracts/token/ERC20/ERC20Burnable.sol\":1137:1149  _msgSender() */\n      tag_157\n        /* \"@openzeppelin/contracts/token/ERC20/ERC20Burnable.sol\":1137:1147  _msgSender */\n      tag_103\n        /* \"@openzeppelin/contracts/token/ERC20/ERC20Burnable.sol\":1137:1149  _msgSender() */\n      jump\t// in\n    tag_157:\n        /* \"@openzeppelin/contracts/token/ERC20/ERC20Burnable.sol\":1151:1169  decreasedAllowance */\n      dup4\n        /* \"@openzeppelin/contracts/token/ERC20/ERC20Burnable.sol\":1119:1127  _approve */\n      tag_104\n        /* \"@openzeppelin/contracts/token/ERC20/ERC20Burnable.sol\":1119:1170  _approve(account, _msgSender(), decreasedAllowance) */\n      jump\t// in\n    tag_156:\n        /* \"@openzeppelin/contracts/token/ERC20/ERC20Burnable.sol\":1180:1202  _burn(account, amount) */\n      tag_158\n        /* \"@openzeppelin/contracts/token/ERC20/ERC20Burnable.sol\":1186:1193  account */\n      dup4\n        /* \"@openzeppelin/contracts/token/ERC20/ERC20Burnable.sol\":1195:1201  amount */\n      dup4\n        /* \"@openzeppelin/contracts/token/ERC20/ERC20Burnable.sol\":1180:1185  _burn */\n      tag_132\n        /* \"@openzeppelin/contracts/token/ERC20/ERC20Burnable.sol\":1180:1202  _burn(account, amount) */\n      jump\t// in\n    tag_158:\n        /* \"@openzeppelin/contracts/token/ERC20/ERC20Burnable.sol\":919:1209  function burnFrom(address account, uint256 amount) public virtual {... */\n      pop\n      pop\n      pop\n      jump\t// out\n        /* \"@openzeppelin/contracts/access/Ownable.sol\":1085:1170  function owner() public view virtual returns (address) {... */\n    tag_71:\n        /* \"@openzeppelin/contracts/access/Ownable.sol\":1131:1138  address */\n      0x00\n        /* \"@openzeppelin/contracts/access/Ownable.sol\":1157:1163  _owner */\n      0x07\n      0x00\n      swap1\n      sload\n      swap1\n      0x0100\n      exp\n      swap1\n      div\n      0xffffffffffffffffffffffffffffffffffffffff\n      and\n        /* \"@openzeppelin/contracts/access/Ownable.sol\":1150:1163  return _owner */\n      swap1\n      pop\n        /* \"@openzeppelin/contracts/access/Ownable.sol\":1085:1170  function owner() public view virtual returns (address) {... */\n      swap1\n      jump\t// out\n        /* \"@openzeppelin/contracts/token/ERC20/ERC20.sol\":2370:2463  function symbol() public view virtual returns (string memory) {... */\n    tag_73:\n        /* \"@openzeppelin/contracts/token/ERC20/ERC20.sol\":2417:2430  string memory */\n      0x60\n        /* \"@openzeppelin/contracts/token/ERC20/ERC20.sol\":2449:2456  _symbol */\n      0x04\n        /* \"@openzeppelin/contracts/token/ERC20/ERC20.sol\":2442:2456  return _symbol */\n      dup1\n      sload\n      0x01\n      dup2\n      0x01\n      and\n      iszero\n      0x0100\n      mul\n      sub\n      and\n      0x02\n      swap1\n      div\n      dup1\n      0x1f\n      add\n      0x20\n      dup1\n      swap2\n      div\n      mul\n      0x20\n      add\n      mload(0x40)\n      swap1\n      dup2\n      add\n      0x40\n      mstore\n      dup1\n      swap3\n      swap2\n      swap1\n      dup2\n      dup2\n      mstore\n      0x20\n      add\n      dup3\n      dup1\n      sload\n      0x01\n      dup2\n      0x01\n      and\n      iszero\n      0x0100\n      mul\n      sub\n      and\n      0x02\n      swap1\n      div\n      dup1\n      iszero\n      tag_161\n      jumpi\n      dup1\n      0x1f\n      lt\n      tag_162\n      jumpi\n      0x0100\n      dup1\n      dup4\n      sload\n      div\n      mul\n      dup4\n      mstore\n      swap2\n      0x20\n      add\n      swap2\n      jump(tag_161)\n    tag_162:\n      dup3\n      add\n      swap2\n      swap1\n      0x00\n      mstore\n      keccak256(0x00, 0x20)\n      swap1\n    tag_163:\n      dup2\n      sload\n      dup2\n      mstore\n      swap1\n      0x01\n      add\n      swap1\n      0x20\n      add\n      dup1\n      dup4\n      gt\n      tag_163\n      jumpi\n      dup3\n      swap1\n      sub\n      0x1f\n      and\n      dup3\n      add\n      swap2\n    tag_161:\n      pop\n      pop\n      pop\n      pop\n      pop\n      swap1\n      pop\n        /* \"@openzeppelin/contracts/token/ERC20/ERC20.sol\":2370:2463  function symbol() public view virtual returns (string memory) {... */\n      swap1\n      jump\t// out\n        /* \"contracts/mtb.sol\":890:981  function addMinter(address account) public onlyOwner {\r... */\n    tag_80:\n        /* \"@openzeppelin/contracts/access/Ownable.sol\":1308:1320  _msgSender() */\n      tag_165\n        /* \"@openzeppelin/contracts/access/Ownable.sol\":1308:1318  _msgSender */\n      tag_103\n        /* \"@openzeppelin/contracts/access/Ownable.sol\":1308:1320  _msgSender() */\n      jump\t// in\n    tag_165:\n        /* \"@openzeppelin/contracts/access/Ownable.sol\":1297:1320  owner() == _msgSender() */\n      0xffffffffffffffffffffffffffffffffffffffff\n      and\n        /* \"@openzeppelin/contracts/access/Ownable.sol\":1297:1304  owner() */\n      tag_166\n        /* \"@openzeppelin/contracts/access/Ownable.sol\":1297:1302  owner */\n      tag_71\n        /* \"@openzeppelin/contracts/access/Ownable.sol\":1297:1304  owner() */\n      jump\t// in\n    tag_166:\n        /* \"@openzeppelin/contracts/access/Ownable.sol\":1297:1320  owner() == _msgSender() */\n      0xffffffffffffffffffffffffffffffffffffffff\n      and\n      eq\n        /* \"@openzeppelin/contracts/access/Ownable.sol\":1289:1357  require(owner() == _msgSender(), \"Ownable: caller is not the owner\") */\n      tag_167\n      jumpi\n      mload(0x40)\n      0x08c379a000000000000000000000000000000000000000000000000000000000\n      dup2\n      mstore\n      0x04\n      add\n      dup1\n      dup1\n      0x20\n      add\n      dup3\n      dup2\n      sub\n      dup3\n      mstore\n      0x20\n      dup2\n      mstore\n      0x20\n      add\n      dup1\n      0x4f776e61626c653a2063616c6c6572206973206e6f7420746865206f776e6572\n      dup2\n      mstore\n      pop\n      0x20\n      add\n      swap2\n      pop\n      pop\n      mload(0x40)\n      dup1\n      swap2\n      sub\n      swap1\n      revert\n    tag_167:\n        /* \"contracts/mtb.sol\":954:973  _addMinter(account) */\n      tag_169\n        /* \"contracts/mtb.sol\":965:972  account */\n      dup2\n        /* \"contracts/mtb.sol\":954:964  _addMinter */\n      tag_170\n        /* \"contracts/mtb.sol\":954:973  _addMinter(account) */\n      jump\t// in\n    tag_169:\n        /* \"contracts/mtb.sol\":890:981  function addMinter(address account) public onlyOwner {\r... */\n      pop\n      jump\t// out\n        /* \"contracts/mtb.sol\":1596:1673  function renounceMinter() public {\r... */\n    tag_82:\n        /* \"contracts/mtb.sol\":1640:1665  _removeMinter(msg.sender) */\n      tag_172\n        /* \"contracts/mtb.sol\":1654:1664  msg.sender */\n      caller\n        /* \"contracts/mtb.sol\":1640:1653  _removeMinter */\n      tag_120\n        /* \"contracts/mtb.sol\":1640:1665  _removeMinter(msg.sender) */\n      jump\t// in\n    tag_172:\n        /* \"contracts/mtb.sol\":1596:1673  function renounceMinter() public {\r... */\n      jump\t// out\n        /* \"@openzeppelin/contracts/token/ERC20/ERC20.sol\":6291:6557  function decreaseAllowance(address spender, uint256 subtractedValue) public virtual returns (bool) {... */\n    tag_85:\n        /* \"@openzeppelin/contracts/token/ERC20/ERC20.sol\":6384:6388  bool */\n      0x00\n        /* \"@openzeppelin/contracts/token/ERC20/ERC20.sol\":6400:6529  _approve(_msgSender(), spender, _allowances[_msgSender()][spender].sub(subtractedValue, \"ERC20: decreased allowance below zero\")) */\n      tag_174\n        /* \"@openzeppelin/contracts/token/ERC20/ERC20.sol\":6409:6421  _msgSender() */\n      tag_175\n        /* \"@openzeppelin/contracts/token/ERC20/ERC20.sol\":6409:6419  _msgSender */\n      tag_103\n        /* \"@openzeppelin/contracts/token/ERC20/ERC20.sol\":6409:6421  _msgSender() */\n      jump\t// in\n    tag_175:\n        /* \"@openzeppelin/contracts/token/ERC20/ERC20.sol\":6423:6430  spender */\n      dup5\n        /* \"@openzeppelin/contracts/token/ERC20/ERC20.sol\":6432:6528  _allowances[_msgSender()][spender].sub(subtractedValue, \"ERC20: decreased allowance below zero\") */\n      tag_176\n        /* \"@openzeppelin/contracts/token/ERC20/ERC20.sol\":6471:6486  subtractedValue */\n      dup6\n        /* \"@openzeppelin/contracts/token/ERC20/ERC20.sol\":6432:6528  _allowances[_msgSender()][spender].sub(subtractedValue, \"ERC20: decreased allowance below zero\") */\n      mload(0x40)\n      dup1\n      0x60\n      add\n      0x40\n      mstore\n      dup1\n      0x25\n      dup2\n      mstore\n      0x20\n      add\n      data_f8b476f7d28209d77d4a4ac1fe36b9f8259aa1bb6bddfa6e89de7e51615cf8a8\n      0x25\n      swap2\n      codecopy\n        /* \"@openzeppelin/contracts/token/ERC20/ERC20.sol\":6432:6443  _allowances */\n      0x01\n        /* \"@openzeppelin/contracts/token/ERC20/ERC20.sol\":6432:6457  _allowances[_msgSender()] */\n      0x00\n        /* \"@openzeppelin/contracts/token/ERC20/ERC20.sol\":6444:6456  _msgSender() */\n      tag_177\n        /* \"@openzeppelin/contracts/token/ERC20/ERC20.sol\":6444:6454  _msgSender */\n      tag_103\n        /* \"@openzeppelin/contracts/token/ERC20/ERC20.sol\":6444:6456  _msgSender() */\n      jump\t// in\n    tag_177:\n        /* \"@openzeppelin/contracts/token/ERC20/ERC20.sol\":6432:6457  _allowances[_msgSender()] */\n      0xffffffffffffffffffffffffffffffffffffffff\n      and\n      0xffffffffffffffffffffffffffffffffffffffff\n      and\n      dup2\n      mstore\n      0x20\n      add\n      swap1\n      dup2\n      mstore\n      0x20\n      add\n      0x00\n      keccak256\n        /* \"@openzeppelin/contracts/token/ERC20/ERC20.sol\":6432:6466  _allowances[_msgSender()][spender] */\n      0x00\n        /* \"@openzeppelin/contracts/token/ERC20/ERC20.sol\":6458:6465  spender */\n      dup11\n        /* \"@openzeppelin/contracts/token/ERC20/ERC20.sol\":6432:6466  _allowances[_msgSender()][spender] */\n      0xffffffffffffffffffffffffffffffffffffffff\n      and\n      0xffffffffffffffffffffffffffffffffffffffff\n      and\n      dup2\n      mstore\n      0x20\n      add\n      swap1\n      dup2\n      mstore\n      0x20\n      add\n      0x00\n      keccak256\n      sload\n        /* \"@openzeppelin/contracts/token/ERC20/ERC20.sol\":6432:6470  _allowances[_msgSender()][spender].sub */\n      tag_113\n      swap1\n        /* \"@openzeppelin/contracts/token/ERC20/ERC20.sol\":6432:6528  _allowances[_msgSender()][spender].sub(subtractedValue, \"ERC20: decreased allowance below zero\") */\n      swap3\n      swap2\n      swap1\n      0xffffffff\n      and\n      jump\t// in\n    tag_176:\n        /* \"@openzeppelin/contracts/token/ERC20/ERC20.sol\":6400:6408  _approve */\n      tag_104\n        /* \"@openzeppelin/contracts/token/ERC20/ERC20.sol\":6400:6529  _approve(_msgSender(), spender, _allowances[_msgSender()][spender].sub(subtractedValue, \"ERC20: decreased allowance below zero\")) */\n      jump\t// in\n    tag_174:\n        /* \"@openzeppelin/contracts/token/ERC20/ERC20.sol\":6546:6550  true */\n      0x01\n        /* \"@openzeppelin/contracts/token/ERC20/ERC20.sol\":6539:6550  return true */\n      swap1\n      pop\n        /* \"@openzeppelin/contracts/token/ERC20/ERC20.sol\":6291:6557  function decreaseAllowance(address spender, uint256 subtractedValue) public virtual returns (bool) {... */\n      swap3\n      swap2\n      pop\n      pop\n      jump\t// out\n        /* \"@openzeppelin/contracts/token/ERC20/ERC20.sol\":3727:3899  function transfer(address recipient, uint256 amount) public virtual override returns (bool) {... */\n    tag_88:\n        /* \"@openzeppelin/contracts/token/ERC20/ERC20.sol\":3813:3817  bool */\n      0x00\n        /* \"@openzeppelin/contracts/token/ERC20/ERC20.sol\":3829:3871  _transfer(_msgSender(), recipient, amount) */\n      tag_179\n        /* \"@openzeppelin/contracts/token/ERC20/ERC20.sol\":3839:3851  _msgSender() */\n      tag_180\n        /* \"@openzeppelin/contracts/token/ERC20/ERC20.sol\":3839:3849  _msgSender */\n      tag_103\n        /* \"@openzeppelin/contracts/token/ERC20/ERC20.sol\":3839:3851  _msgSender() */\n      jump\t// in\n    tag_180:\n        /* \"@openzeppelin/contracts/token/ERC20/ERC20.sol\":3853:3862  recipient */\n      dup5\n        /* \"@openzeppelin/contracts/token/ERC20/ERC20.sol\":3864:3870  amount */\n      dup5\n        /* \"@openzeppelin/contracts/token/ERC20/ERC20.sol\":3829:3838  _transfer */\n      tag_108\n        /* \"@openzeppelin/contracts/token/ERC20/ERC20.sol\":3829:3871  _transfer(_msgSender(), recipient, amount) */\n      jump\t// in\n    tag_179:\n        /* \"@openzeppelin/contracts/token/ERC20/ERC20.sol\":3888:3892  true */\n      0x01\n        /* \"@openzeppelin/contracts/token/ERC20/ERC20.sol\":3881:3892  return true */\n      swap1\n      pop\n        /* \"@openzeppelin/contracts/token/ERC20/ERC20.sol\":3727:3899  function transfer(address recipient, uint256 amount) public virtual override returns (bool) {... */\n      swap3\n      swap2\n      pop\n      pop\n      jump\t// out\n        /* \"@openzeppelin/contracts/token/ERC20/ERC20.sol\":3957:4106  function allowance(address owner, address spender) public view virtual override returns (uint256) {... */\n    tag_91:\n        /* \"@openzeppelin/contracts/token/ERC20/ERC20.sol\":4046:4053  uint256 */\n      0x00\n        /* \"@openzeppelin/contracts/token/ERC20/ERC20.sol\":4072:4083  _allowances */\n      0x01\n        /* \"@openzeppelin/contracts/token/ERC20/ERC20.sol\":4072:4090  _allowances[owner] */\n      0x00\n        /* \"@openzeppelin/contracts/token/ERC20/ERC20.sol\":4084:4089  owner */\n      dup5\n        /* \"@openzeppelin/contracts/token/ERC20/ERC20.sol\":4072:4090  _allowances[owner] */\n      0xffffffffffffffffffffffffffffffffffffffff\n      and\n      0xffffffffffffffffffffffffffffffffffffffff\n      and\n      dup2\n      mstore\n      0x20\n      add\n      swap1\n      dup2\n      mstore\n      0x20\n      add\n      0x00\n      keccak256\n        /* \"@openzeppelin/contracts/token/ERC20/ERC20.sol\":4072:4099  _allowances[owner][spender] */\n      0x00\n        /* \"@openzeppelin/contracts/token/ERC20/ERC20.sol\":4091:4098  spender */\n      dup4\n        /* \"@openzeppelin/contracts/token/ERC20/ERC20.sol\":4072:4099  _allowances[owner][spender] */\n      0xffffffffffffffffffffffffffffffffffffffff\n      and\n      0xffffffffffffffffffffffffffffffffffffffff\n      and\n      dup2\n      mstore\n      0x20\n      add\n      swap1\n      dup2\n      mstore\n      0x20\n      add\n      0x00\n      keccak256\n      sload\n        /* \"@openzeppelin/contracts/token/ERC20/ERC20.sol\":4065:4099  return _allowances[owner][spender] */\n      swap1\n      pop\n        /* \"@openzeppelin/contracts/token/ERC20/ERC20.sol\":3957:4106  function allowance(address owner, address spender) public view virtual override returns (uint256) {... */\n      swap3\n      swap2\n      pop\n      pop\n      jump\t// out\n        /* \"@openzeppelin/contracts/access/Ownable.sol\":2011:2251  function transferOwnership(address newOwner) public virtual onlyOwner {... */\n    tag_94:\n        /* \"@openzeppelin/contracts/access/Ownable.sol\":1308:1320  _msgSender() */\n      tag_183\n        /* \"@openzeppelin/contracts/access/Ownable.sol\":1308:1318  _msgSender */\n      tag_103\n        /* \"@openzeppelin/contracts/access/Ownable.sol\":1308:1320  _msgSender() */\n      jump\t// in\n    tag_183:\n        /* \"@openzeppelin/contracts/access/Ownable.sol\":1297:1320  owner() == _msgSender() */\n      0xffffffffffffffffffffffffffffffffffffffff\n      and\n        /* \"@openzeppelin/contracts/access/Ownable.sol\":1297:1304  owner() */\n      tag_184\n        /* \"@openzeppelin/contracts/access/Ownable.sol\":1297:1302  owner */\n      tag_71\n        /* \"@openzeppelin/contracts/access/Ownable.sol\":1297:1304  owner() */\n      jump\t// in\n    tag_184:\n        /* \"@openzeppelin/contracts/access/Ownable.sol\":1297:1320  owner() == _msgSender() */\n      0xffffffffffffffffffffffffffffffffffffffff\n      and\n      eq\n        /* \"@openzeppelin/contracts/access/Ownable.sol\":1289:1357  require(owner() == _msgSender(), \"Ownable: caller is not the owner\") */\n      tag_185\n      jumpi\n      mload(0x40)\n      0x08c379a000000000000000000000000000000000000000000000000000000000\n      dup2\n      mstore\n      0x04\n      add\n      dup1\n      dup1\n      0x20\n      add\n      dup3\n      dup2\n      sub\n      dup3\n      mstore\n      0x20\n      dup2\n      mstore\n      0x20\n      add\n      dup1\n      0x4f776e61626c653a2063616c6c6572206973206e6f7420746865206f776e6572\n      dup2\n      mstore\n      pop\n      0x20\n      add\n      swap2\n      pop\n      pop\n      mload(0x40)\n      dup1\n      swap2\n      sub\n      swap1\n      revert\n    tag_185:\n        /* \"@openzeppelin/contracts/access/Ownable.sol\":2119:2120  0 */\n      0x00\n        /* \"@openzeppelin/contracts/access/Ownable.sol\":2099:2121  newOwner != address(0) */\n      0xffffffffffffffffffffffffffffffffffffffff\n      and\n        /* \"@openzeppelin/contracts/access/Ownable.sol\":2099:2107  newOwner */\n      dup2\n        /* \"@openzeppelin/contracts/access/Ownable.sol\":2099:2121  newOwner != address(0) */\n      0xffffffffffffffffffffffffffffffffffffffff\n      and\n      eq\n      iszero\n        /* \"@openzeppelin/contracts/access/Ownable.sol\":2091:2164  require(newOwner != address(0), \"Ownable: new owner is the zero address\") */\n      tag_187\n      jumpi\n      mload(0x40)\n      0x08c379a000000000000000000000000000000000000000000000000000000000\n      dup2\n      mstore\n      0x04\n      add\n      dup1\n      dup1\n      0x20\n      add\n      dup3\n      dup2\n      sub\n      dup3\n      mstore\n      0x26\n      dup2\n      mstore\n      0x20\n      add\n      dup1\n      data_245f15ff17f551913a7a18385165551503906a406f905ac1c2437281a7cd0cfe\n      0x26\n      swap2\n      codecopy\n      0x40\n      add\n      swap2\n      pop\n      pop\n      mload(0x40)\n      dup1\n      swap2\n      sub\n      swap1\n      revert\n    tag_187:\n        /* \"@openzeppelin/contracts/access/Ownable.sol\":2208:2216  newOwner */\n      dup1\n        /* \"@openzeppelin/contracts/access/Ownable.sol\":2179:2217  OwnershipTransferred(_owner, newOwner) */\n      0xffffffffffffffffffffffffffffffffffffffff\n      and\n        /* \"@openzeppelin/contracts/access/Ownable.sol\":2200:2206  _owner */\n      0x07\n      0x00\n      swap1\n      sload\n      swap1\n      0x0100\n      exp\n      swap1\n      div\n      0xffffffffffffffffffffffffffffffffffffffff\n      and\n        /* \"@openzeppelin/contracts/access/Ownable.sol\":2179:2217  OwnershipTransferred(_owner, newOwner) */\n      0xffffffffffffffffffffffffffffffffffffffff\n      and\n      0x8be0079c531659141344cd1fd0a4f28419497f9722a3daafe3b4186f6b6457e0\n      mload(0x40)\n      mload(0x40)\n      dup1\n      swap2\n      sub\n      swap1\n      log3\n        /* \"@openzeppelin/contracts/access/Ownable.sol\":2236:2244  newOwner */\n      dup1\n        /* \"@openzeppelin/contracts/access/Ownable.sol\":2227:2233  _owner */\n      0x07\n      0x00\n        /* \"@openzeppelin/contracts/access/Ownable.sol\":2227:2244  _owner = newOwner */\n      0x0100\n      exp\n      dup2\n      sload\n      dup2\n      0xffffffffffffffffffffffffffffffffffffffff\n      mul\n      not\n      and\n      swap1\n      dup4\n      0xffffffffffffffffffffffffffffffffffffffff\n      and\n      mul\n      or\n      swap1\n      sstore\n      pop\n        /* \"@openzeppelin/contracts/access/Ownable.sol\":2011:2251  function transferOwnership(address newOwner) public virtual onlyOwner {... */\n      pop\n      jump\t// out\n        /* \"@openzeppelin/contracts/utils/EnumerableSet.sol\":6429:6579  function add(AddressSet storage set, address value) internal returns (bool) {... */\n    tag_95:\n        /* \"@openzeppelin/contracts/utils/EnumerableSet.sol\":6499:6503  bool */\n      0x00\n        /* \"@openzeppelin/contracts/utils/EnumerableSet.sol\":6522:6572  _add(set._inner, bytes32(uint256(uint160(value)))) */\n      tag_189\n        /* \"@openzeppelin/contracts/utils/EnumerableSet.sol\":6527:6530  set */\n      dup4\n        /* \"@openzeppelin/contracts/utils/EnumerableSet.sol\":6527:6537  set._inner */\n      0x00\n      add\n        /* \"@openzeppelin/contracts/utils/EnumerableSet.sol\":6563:6568  value */\n      dup4\n        /* \"@openzeppelin/contracts/utils/EnumerableSet.sol\":6547:6570  uint256(uint160(value)) */\n      0xffffffffffffffffffffffffffffffffffffffff\n      and\n        /* \"@openzeppelin/contracts/utils/EnumerableSet.sol\":6539:6571  bytes32(uint256(uint160(value))) */\n      0x00\n      shl\n        /* \"@openzeppelin/contracts/utils/EnumerableSet.sol\":6522:6526  _add */\n      tag_190\n        /* \"@openzeppelin/contracts/utils/EnumerableSet.sol\":6522:6572  _add(set._inner, bytes32(uint256(uint160(value)))) */\n      jump\t// in\n    tag_189:\n        /* \"@openzeppelin/contracts/utils/EnumerableSet.sol\":6515:6572  return _add(set._inner, bytes32(uint256(uint160(value)))) */\n      swap1\n      pop\n        /* \"@openzeppelin/contracts/utils/EnumerableSet.sol\":6429:6579  function add(AddressSet storage set, address value) internal returns (bool) {... */\n      swap3\n      swap2\n      pop\n      pop\n      jump\t// out\n        /* \"@openzeppelin/contracts/utils/Context.sol\":598:702  function _msgSender() internal view virtual returns (address payable) {... */\n    tag_103:\n        /* \"@openzeppelin/contracts/utils/Context.sol\":651:666  address payable */\n      0x00\n        /* \"@openzeppelin/contracts/utils/Context.sol\":685:695  msg.sender */\n      caller\n        /* \"@openzeppelin/contracts/utils/Context.sol\":678:695  return msg.sender */\n      swap1\n      pop\n        /* \"@openzeppelin/contracts/utils/Context.sol\":598:702  function _msgSender() internal view virtual returns (address payable) {... */\n      swap1\n      jump\t// out\n        /* \"@openzeppelin/contracts/token/ERC20/ERC20.sol\":9355:9695  function _approve(address owner, address spender, uint256 amount) internal virtual {... */\n    tag_104:\n        /* \"@openzeppelin/contracts/token/ERC20/ERC20.sol\":9473:9474  0 */\n      0x00\n        /* \"@openzeppelin/contracts/token/ERC20/ERC20.sol\":9456:9475  owner != address(0) */\n      0xffffffffffffffffffffffffffffffffffffffff\n      and\n        /* \"@openzeppelin/contracts/token/ERC20/ERC20.sol\":9456:9461  owner */\n      dup4\n        /* \"@openzeppelin/contracts/token/ERC20/ERC20.sol\":9456:9475  owner != address(0) */\n      0xffffffffffffffffffffffffffffffffffffffff\n      and\n      eq\n      iszero\n        /* \"@openzeppelin/contracts/token/ERC20/ERC20.sol\":9448:9516  require(owner != address(0), \"ERC20: approve from the zero address\") */\n      tag_193\n      jumpi\n      mload(0x40)\n      0x08c379a000000000000000000000000000000000000000000000000000000000\n      dup2\n      mstore\n      0x04\n      add\n      dup1\n      dup1\n      0x20\n      add\n      dup3\n      dup2\n      sub\n      dup3\n      mstore\n      0x24\n      dup2\n      mstore\n      0x20\n      add\n      dup1\n      data_c953f4879035ed60e766b34720f656aab5c697b141d924c283124ecedb91c208\n      0x24\n      swap2\n      codecopy\n      0x40\n      add\n      swap2\n      pop\n      pop\n      mload(0x40)\n      dup1\n      swap2\n      sub\n      swap1\n      revert\n    tag_193:\n        /* \"@openzeppelin/contracts/token/ERC20/ERC20.sol\":9553:9554  0 */\n      0x00\n        /* \"@openzeppelin/contracts/token/ERC20/ERC20.sol\":9534:9555  spender != address(0) */\n      0xffffffffffffffffffffffffffffffffffffffff\n      and\n        /* \"@openzeppelin/contracts/token/ERC20/ERC20.sol\":9534:9541  spender */\n      dup3\n        /* \"@openzeppelin/contracts/token/ERC20/ERC20.sol\":9534:9555  spender != address(0) */\n      0xffffffffffffffffffffffffffffffffffffffff\n      and\n      eq\n      iszero\n        /* \"@openzeppelin/contracts/token/ERC20/ERC20.sol\":9526:9594  require(spender != address(0), \"ERC20: approve to the zero address\") */\n      tag_194\n      jumpi\n      mload(0x40)\n      0x08c379a000000000000000000000000000000000000000000000000000000000\n      dup2\n      mstore\n      0x04\n      add\n      dup1\n      dup1\n      0x20\n      add\n      dup3\n      dup2\n      sub\n      dup3\n      mstore\n      0x22\n      dup2\n      mstore\n      0x20\n      add\n      dup1\n      data_24883cc5fe64ace9d0df1893501ecb93c77180f0ff69cca79affb3c316dc8029\n      0x22\n      swap2\n      codecopy\n      0x40\n      add\n      swap2\n      pop\n      pop\n      mload(0x40)\n      dup1\n      swap2\n      sub\n      swap1\n      revert\n    tag_194:\n        /* \"@openzeppelin/contracts/token/ERC20/ERC20.sol\":9635:9641  amount */\n      dup1\n        /* \"@openzeppelin/contracts/token/ERC20/ERC20.sol\":9605:9616  _allowances */\n      0x01\n        /* \"@openzeppelin/contracts/token/ERC20/ERC20.sol\":9605:9623  _allowances[owner] */\n      0x00\n        /* \"@openzeppelin/contracts/token/ERC20/ERC20.sol\":9617:9622  owner */\n      dup6\n        /* \"@openzeppelin/contracts/token/ERC20/ERC20.sol\":9605:9623  _allowances[owner] */\n      0xffffffffffffffffffffffffffffffffffffffff\n      and\n      0xffffffffffffffffffffffffffffffffffffffff\n      and\n      dup2\n      mstore\n      0x20\n      add\n      swap1\n      dup2\n      mstore\n      0x20\n      add\n      0x00\n      keccak256\n        /* \"@openzeppelin/contracts/token/ERC20/ERC20.sol\":9605:9632  _allowances[owner][spender] */\n      0x00\n        /* \"@openzeppelin/contracts/token/ERC20/ERC20.sol\":9624:9631  spender */\n      dup5\n        /* \"@openzeppelin/contracts/token/ERC20/ERC20.sol\":9605:9632  _allowances[owner][spender] */\n      0xffffffffffffffffffffffffffffffffffffffff\n      and\n      0xffffffffffffffffffffffffffffffffffffffff\n      and\n      dup2\n      mstore\n      0x20\n      add\n      swap1\n      dup2\n      mstore\n      0x20\n      add\n      0x00\n      keccak256\n        /* \"@openzeppelin/contracts/token/ERC20/ERC20.sol\":9605:9641  _allowances[owner][spender] = amount */\n      dup2\n      swap1\n      sstore\n      pop\n        /* \"@openzeppelin/contracts/token/ERC20/ERC20.sol\":9672:9679  spender */\n      dup2\n        /* \"@openzeppelin/contracts/token/ERC20/ERC20.sol\":9656:9688  Approval(owner, spender, amount) */\n      0xffffffffffffffffffffffffffffffffffffffff\n      and\n        /* \"@openzeppelin/contracts/token/ERC20/ERC20.sol\":9665:9670  owner */\n      dup4\n        /* \"@openzeppelin/contracts/token/ERC20/ERC20.sol\":9656:9688  Approval(owner, spender, amount) */\n      0xffffffffffffffffffffffffffffffffffffffff\n      and\n      0x8c5be1e5ebec7d5bd14f71427d1e84f3dd0314c0f7b2291e5b200ac8c7c3b925\n        /* \"@openzeppelin/contracts/token/ERC20/ERC20.sol\":9681:9687  amount */\n      dup4\n        /* \"@openzeppelin/contracts/token/ERC20/ERC20.sol\":9656:9688  Approval(owner, spender, amount) */\n      mload(0x40)\n      dup1\n      dup3\n      dup2\n      mstore\n      0x20\n      add\n      swap2\n      pop\n      pop\n      mload(0x40)\n      dup1\n      swap2\n      sub\n      swap1\n      log3\n        /* \"@openzeppelin/contracts/token/ERC20/ERC20.sol\":9355:9695  function _approve(address owner, address spender, uint256 amount) internal virtual {... */\n      pop\n      pop\n      pop\n      jump\t// out\n        /* \"@openzeppelin/contracts/token/ERC20/ERC20.sol\":7031:7561  function _transfer(address sender, address recipient, uint256 amount) internal virtual {... */\n    tag_108:\n        /* \"@openzeppelin/contracts/token/ERC20/ERC20.sol\":7154:7155  0 */\n      0x00\n        /* \"@openzeppelin/contracts/token/ERC20/ERC20.sol\":7136:7156  sender != address(0) */\n      0xffffffffffffffffffffffffffffffffffffffff\n      and\n        /* \"@openzeppelin/contracts/token/ERC20/ERC20.sol\":7136:7142  sender */\n      dup4\n        /* \"@openzeppelin/contracts/token/ERC20/ERC20.sol\":7136:7156  sender != address(0) */\n      0xffffffffffffffffffffffffffffffffffffffff\n      and\n      eq\n      iszero\n        /* \"@openzeppelin/contracts/token/ERC20/ERC20.sol\":7128:7198  require(sender != address(0), \"ERC20: transfer from the zero address\") */\n      tag_196\n      jumpi\n      mload(0x40)\n      0x08c379a000000000000000000000000000000000000000000000000000000000\n      dup2\n      mstore\n      0x04\n      add\n      dup1\n      dup1\n      0x20\n      add\n      dup3\n      dup2\n      sub\n      dup3\n      mstore\n      0x25\n      dup2\n      mstore\n      0x20\n      add\n      dup1\n      data_baecc556b46f4ed0f2b4cb599d60785ac8563dd2dc0a5bf12edea1c39e5e1fea\n      0x25\n      swap2\n      codecopy\n      0x40\n      add\n      swap2\n      pop\n      pop\n      mload(0x40)\n      dup1\n      swap2\n      sub\n      swap1\n      revert\n    tag_196:\n        /* \"@openzeppelin/contracts/token/ERC20/ERC20.sol\":7237:7238  0 */\n      0x00\n        /* \"@openzeppelin/contracts/token/ERC20/ERC20.sol\":7216:7239  recipient != address(0) */\n      0xffffffffffffffffffffffffffffffffffffffff\n      and\n        /* \"@openzeppelin/contracts/token/ERC20/ERC20.sol\":7216:7225  recipient */\n      dup3\n        /* \"@openzeppelin/contracts/token/ERC20/ERC20.sol\":7216:7239  recipient != address(0) */\n      0xffffffffffffffffffffffffffffffffffffffff\n      and\n      eq\n      iszero\n        /* \"@openzeppelin/contracts/token/ERC20/ERC20.sol\":7208:7279  require(recipient != address(0), \"ERC20: transfer to the zero address\") */\n      tag_197\n      jumpi\n      mload(0x40)\n      0x08c379a000000000000000000000000000000000000000000000000000000000\n      dup2\n      mstore\n      0x04\n      add\n      dup1\n      dup1\n      0x20\n      add\n      dup3\n      dup2\n      sub\n      dup3\n      mstore\n      0x23\n      dup2\n      mstore\n      0x20\n      add\n      dup1\n      data_0557e210f7a69a685100a7e4e3d0a7024c546085cee28910fd17d0b081d9516f\n      0x23\n      swap2\n      codecopy\n      0x40\n      add\n      swap2\n      pop\n      pop\n      mload(0x40)\n      dup1\n      swap2\n      sub\n      swap1\n      revert\n    tag_197:\n        /* \"@openzeppelin/contracts/token/ERC20/ERC20.sol\":7290:7337  _beforeTokenTransfer(sender, recipient, amount) */\n      tag_198\n        /* \"@openzeppelin/contracts/token/ERC20/ERC20.sol\":7311:7317  sender */\n      dup4\n        /* \"@openzeppelin/contracts/token/ERC20/ERC20.sol\":7319:7328  recipient */\n      dup4\n        /* \"@openzeppelin/contracts/token/ERC20/ERC20.sol\":7330:7336  amount */\n      dup4\n        /* \"@openzeppelin/contracts/token/ERC20/ERC20.sol\":7290:7310  _beforeTokenTransfer */\n      tag_199\n        /* \"@openzeppelin/contracts/token/ERC20/ERC20.sol\":7290:7337  _beforeTokenTransfer(sender, recipient, amount) */\n      jump\t// in\n    tag_198:\n        /* \"@openzeppelin/contracts/token/ERC20/ERC20.sol\":7368:7439  _balances[sender].sub(amount, \"ERC20: transfer amount exceeds balance\") */\n      tag_200\n        /* \"@openzeppelin/contracts/token/ERC20/ERC20.sol\":7390:7396  amount */\n      dup2\n        /* \"@openzeppelin/contracts/token/ERC20/ERC20.sol\":7368:7439  _balances[sender].sub(amount, \"ERC20: transfer amount exceeds balance\") */\n      mload(0x40)\n      dup1\n      0x60\n      add\n      0x40\n      mstore\n      dup1\n      0x26\n      dup2\n      mstore\n      0x20\n      add\n      data_4107e8a8b9e94bf8ff83080ddec1c0bffe897ebc2241b89d44f66b3d274088b6\n      0x26\n      swap2\n      codecopy\n        /* \"@openzeppelin/contracts/token/ERC20/ERC20.sol\":7368:7377  _balances */\n      0x00\n        /* \"@openzeppelin/contracts/token/ERC20/ERC20.sol\":7368:7385  _balances[sender] */\n      dup1\n        /* \"@openzeppelin/contracts/token/ERC20/ERC20.sol\":7378:7384  sender */\n      dup8\n        /* \"@openzeppelin/contracts/token/ERC20/ERC20.sol\":7368:7385  _balances[sender] */\n      0xffffffffffffffffffffffffffffffffffffffff\n      and\n      0xffffffffffffffffffffffffffffffffffffffff\n      and\n      dup2\n      mstore\n      0x20\n      add\n      swap1\n      dup2\n      mstore\n      0x20\n      add\n      0x00\n      keccak256\n      sload\n        /* \"@openzeppelin/contracts/token/ERC20/ERC20.sol\":7368:7389  _balances[sender].sub */\n      tag_113\n      swap1\n        /* \"@openzeppelin/contracts/token/ERC20/ERC20.sol\":7368:7439  _balances[sender].sub(amount, \"ERC20: transfer amount exceeds balance\") */\n      swap3\n      swap2\n      swap1\n      0xffffffff\n      and\n      jump\t// in\n    tag_200:\n        /* \"@openzeppelin/contracts/token/ERC20/ERC20.sol\":7348:7357  _balances */\n      0x00\n        /* \"@openzeppelin/contracts/token/ERC20/ERC20.sol\":7348:7365  _balances[sender] */\n      dup1\n        /* \"@openzeppelin/contracts/token/ERC20/ERC20.sol\":7358:7364  sender */\n      dup6\n        /* \"@openzeppelin/contracts/token/ERC20/ERC20.sol\":7348:7365  _balances[sender] */\n      0xffffffffffffffffffffffffffffffffffffffff\n      and\n      0xffffffffffffffffffffffffffffffffffffffff\n      and\n      dup2\n      mstore\n      0x20\n      add\n      swap1\n      dup2\n      mstore\n      0x20\n      add\n      0x00\n      keccak256\n        /* \"@openzeppelin/contracts/token/ERC20/ERC20.sol\":7348:7439  _balances[sender] = _balances[sender].sub(amount, \"ERC20: transfer amount exceeds balance\") */\n      dup2\n      swap1\n      sstore\n      pop\n        /* \"@openzeppelin/contracts/token/ERC20/ERC20.sol\":7472:7504  _balances[recipient].add(amount) */\n      tag_201\n        /* \"@openzeppelin/contracts/token/ERC20/ERC20.sol\":7497:7503  amount */\n      dup2\n        /* \"@openzeppelin/contracts/token/ERC20/ERC20.sol\":7472:7481  _balances */\n      0x00\n        /* \"@openzeppelin/contracts/token/ERC20/ERC20.sol\":7472:7492  _balances[recipient] */\n      dup1\n        /* \"@openzeppelin/contracts/token/ERC20/ERC20.sol\":7482:7491  recipient */\n      dup6\n        /* \"@openzeppelin/contracts/token/ERC20/ERC20.sol\":7472:7492  _balances[recipient] */\n      0xffffffffffffffffffffffffffffffffffffffff\n      and\n      0xffffffffffffffffffffffffffffffffffffffff\n      and\n      dup2\n      mstore\n      0x20\n      add\n      swap1\n      dup2\n      mstore\n      0x20\n      add\n      0x00\n      keccak256\n      sload\n        /* \"@openzeppelin/contracts/token/ERC20/ERC20.sol\":7472:7496  _balances[recipient].add */\n      tag_128\n      swap1\n        /* \"@openzeppelin/contracts/token/ERC20/ERC20.sol\":7472:7504  _balances[recipient].add(amount) */\n      swap2\n      swap1\n      0xffffffff\n      and\n      jump\t// in\n    tag_201:\n        /* \"@openzeppelin/contracts/token/ERC20/ERC20.sol\":7449:7458  _balances */\n      0x00\n        /* \"@openzeppelin/contracts/token/ERC20/ERC20.sol\":7449:7469  _balances[recipient] */\n      dup1\n        /* \"@openzeppelin/contracts/token/ERC20/ERC20.sol\":7459:7468  recipient */\n      dup5\n        /* \"@openzeppelin/contracts/token/ERC20/ERC20.sol\":7449:7469  _balances[recipient] */\n      0xffffffffffffffffffffffffffffffffffffffff\n      and\n      0xffffffffffffffffffffffffffffffffffffffff\n      and\n      dup2\n      mstore\n      0x20\n      add\n      swap1\n      dup2\n      mstore\n      0x20\n      add\n      0x00\n      keccak256\n        /* \"@openzeppelin/contracts/token/ERC20/ERC20.sol\":7449:7504  _balances[recipient] = _balances[recipient].add(amount) */\n      dup2\n      swap1\n      sstore\n      pop\n        /* \"@openzeppelin/contracts/token/ERC20/ERC20.sol\":7536:7545  recipient */\n      dup2\n        /* \"@openzeppelin/contracts/token/ERC20/ERC20.sol\":7519:7554  Transfer(sender, recipient, amount) */\n      0xffffffffffffffffffffffffffffffffffffffff\n      and\n        /* \"@openzeppelin/contracts/token/ERC20/ERC20.sol\":7528:7534  sender */\n      dup4\n        /* \"@openzeppelin/contracts/token/ERC20/ERC20.sol\":7519:7554  Transfer(sender, recipient, amount) */\n      0xffffffffffffffffffffffffffffffffffffffff\n      and\n      0xddf252ad1be2c89b69c2b068fc378daa952ba7f163c4a11628f55a4df523b3ef\n        /* \"@openzeppelin/contracts/token/ERC20/ERC20.sol\":7547:7553  amount */\n      dup4\n        /* \"@openzeppelin/contracts/token/ERC20/ERC20.sol\":7519:7554  Transfer(sender, recipient, amount) */\n      mload(0x40)\n      dup1\n      dup3\n      dup2\n      mstore\n      0x20\n      add\n      swap2\n      pop\n      pop\n      mload(0x40)\n      dup1\n      swap2\n      sub\n      swap1\n      log3\n        /* \"@openzeppelin/contracts/token/ERC20/ERC20.sol\":7031:7561  function _transfer(address sender, address recipient, uint256 amount) internal virtual {... */\n      pop\n      pop\n      pop\n      jump\t// out\n        /* \"@openzeppelin/contracts/math/SafeMath.sol\":5432:5595  function sub(uint256 a, uint256 b, string memory errorMessage) internal pure returns (uint256) {... */\n    tag_113:\n        /* \"@openzeppelin/contracts/math/SafeMath.sol\":5518:5525  uint256 */\n      0x00\n        /* \"@openzeppelin/contracts/math/SafeMath.sol\":5550:5551  a */\n      dup4\n        /* \"@openzeppelin/contracts/math/SafeMath.sol\":5545:5546  b */\n      dup4\n        /* \"@openzeppelin/contracts/math/SafeMath.sol\":5545:5551  b <= a */\n      gt\n      iszero\n        /* \"@openzeppelin/contracts/math/SafeMath.sol\":5553:5565  errorMessage */\n      dup3\n        /* \"@openzeppelin/contracts/math/SafeMath.sol\":5537:5566  require(b <= a, errorMessage) */\n      swap1\n      tag_203\n      jumpi\n      mload(0x40)\n      0x08c379a000000000000000000000000000000000000000000000000000000000\n      dup2\n      mstore\n      0x04\n      add\n      dup1\n      dup1\n      0x20\n      add\n      dup3\n      dup2\n      sub\n      dup3\n      mstore\n      dup4\n      dup2\n      dup2\n      mload\n      dup2\n      mstore\n      0x20\n      add\n      swap2\n      pop\n      dup1\n      mload\n      swap1\n      0x20\n      add\n      swap1\n      dup1\n      dup4\n      dup4\n      0x00\n    tag_204:\n      dup4\n      dup2\n      lt\n      iszero\n      tag_206\n      jumpi\n      dup1\n      dup3\n      add\n      mload\n      dup2\n      dup5\n      add\n      mstore\n      0x20\n      dup2\n      add\n      swap1\n      pop\n      jump(tag_204)\n    tag_206:\n      pop\n      pop\n      pop\n      pop\n      swap1\n      pop\n      swap1\n      dup2\n      add\n      swap1\n      0x1f\n      and\n      dup1\n      iszero\n      tag_207\n      jumpi\n      dup1\n      dup3\n      sub\n      dup1\n      mload\n      0x01\n      dup4\n      0x20\n      sub\n      0x0100\n      exp\n      sub\n      not\n      and\n      dup2\n      mstore\n      0x20\n      add\n      swap2\n      pop\n    tag_207:\n      pop\n      swap3\n      pop\n      pop\n      pop\n      mload(0x40)\n      dup1\n      swap2\n      sub\n      swap1\n      revert\n    tag_203:\n      pop\n        /* \"@openzeppelin/contracts/math/SafeMath.sol\":5587:5588  b */\n      dup3\n        /* \"@openzeppelin/contracts/math/SafeMath.sol\":5583:5584  a */\n      dup5\n        /* \"@openzeppelin/contracts/math/SafeMath.sol\":5583:5588  a - b */\n      sub\n        /* \"@openzeppelin/contracts/math/SafeMath.sol\":5576:5588  return a - b */\n      swap1\n      pop\n        /* \"@openzeppelin/contracts/math/SafeMath.sol\":5432:5595  function sub(uint256 a, uint256 b, string memory errorMessage) internal pure returns (uint256) {... */\n      swap4\n      swap3\n      pop\n      pop\n      pop\n      jump\t// out\n        /* \"contracts/mtb.sol\":1496:1588  function _removeMinter(address account) internal {\r... */\n    tag_120:\n        /* \"contracts/mtb.sol\":1556:1580  _minters.remove(account) */\n      tag_209\n        /* \"contracts/mtb.sol\":1572:1579  account */\n      dup2\n        /* \"contracts/mtb.sol\":1556:1564  _minters */\n      0x08\n        /* \"contracts/mtb.sol\":1556:1571  _minters.remove */\n      tag_210\n      swap1\n        /* \"contracts/mtb.sol\":1556:1580  _minters.remove(account) */\n      swap2\n      swap1\n      0xffffffff\n      and\n      jump\t// in\n    tag_209:\n      pop\n        /* \"contracts/mtb.sol\":1496:1588  function _removeMinter(address account) internal {\r... */\n      pop\n      jump\t// out\n        /* \"@openzeppelin/contracts/math/SafeMath.sol\":2690:2865  function add(uint256 a, uint256 b) internal pure returns (uint256) {... */\n    tag_128:\n        /* \"@openzeppelin/contracts/math/SafeMath.sol\":2748:2755  uint256 */\n      0x00\n        /* \"@openzeppelin/contracts/math/SafeMath.sol\":2767:2776  uint256 c */\n      dup1\n        /* \"@openzeppelin/contracts/math/SafeMath.sol\":2783:2784  b */\n      dup3\n        /* \"@openzeppelin/contracts/math/SafeMath.sol\":2779:2780  a */\n      dup5\n        /* \"@openzeppelin/contracts/math/SafeMath.sol\":2779:2784  a + b */\n      add\n        /* \"@openzeppelin/contracts/math/SafeMath.sol\":2767:2784  uint256 c = a + b */\n      swap1\n      pop\n        /* \"@openzeppelin/contracts/math/SafeMath.sol\":2807:2808  a */\n      dup4\n        /* \"@openzeppelin/contracts/math/SafeMath.sol\":2802:2803  c */\n      dup2\n        /* \"@openzeppelin/contracts/math/SafeMath.sol\":2802:2808  c >= a */\n      lt\n      iszero\n        /* \"@openzeppelin/contracts/math/SafeMath.sol\":2794:2840  require(c >= a, \"SafeMath: addition overflow\") */\n      tag_212\n      jumpi\n      mload(0x40)\n      0x08c379a000000000000000000000000000000000000000000000000000000000\n      dup2\n      mstore\n      0x04\n      add\n      dup1\n      dup1\n      0x20\n      add\n      dup3\n      dup2\n      sub\n      dup3\n      mstore\n      0x1b\n      dup2\n      mstore\n      0x20\n      add\n      dup1\n      0x536166654d6174683a206164646974696f6e206f766572666c6f770000000000\n      dup2\n      mstore\n      pop\n      0x20\n      add\n      swap2\n      pop\n      pop\n      mload(0x40)\n      dup1\n      swap2\n      sub\n      swap1\n      revert\n    tag_212:\n        /* \"@openzeppelin/contracts/math/SafeMath.sol\":2857:2858  c */\n      dup1\n        /* \"@openzeppelin/contracts/math/SafeMath.sol\":2850:2858  return c */\n      swap2\n      pop\n      pop\n        /* \"@openzeppelin/contracts/math/SafeMath.sol\":2690:2865  function add(uint256 a, uint256 b) internal pure returns (uint256) {... */\n      swap3\n      swap2\n      pop\n      pop\n      jump\t// out\n        /* \"@openzeppelin/contracts/token/ERC20/ERC20.sol\":8522:8932  function _burn(address account, uint256 amount) internal virtual {... */\n    tag_132:\n        /* \"@openzeppelin/contracts/token/ERC20/ERC20.sol\":8624:8625  0 */\n      0x00\n        /* \"@openzeppelin/contracts/token/ERC20/ERC20.sol\":8605:8626  account != address(0) */\n      0xffffffffffffffffffffffffffffffffffffffff\n      and\n        /* \"@openzeppelin/contracts/token/ERC20/ERC20.sol\":8605:8612  account */\n      dup3\n        /* \"@openzeppelin/contracts/token/ERC20/ERC20.sol\":8605:8626  account != address(0) */\n      0xffffffffffffffffffffffffffffffffffffffff\n      and\n      eq\n      iszero\n        /* \"@openzeppelin/contracts/token/ERC20/ERC20.sol\":8597:8664  require(account != address(0), \"ERC20: burn from the zero address\") */\n      tag_214\n      jumpi\n      mload(0x40)\n      0x08c379a000000000000000000000000000000000000000000000000000000000\n      dup2\n      mstore\n      0x04\n      add\n      dup1\n      dup1\n      0x20\n      add\n      dup3\n      dup2\n      sub\n      dup3\n      mstore\n      0x21\n      dup2\n      mstore\n      0x20\n      add\n      dup1\n      data_b16788493b576042bb52c50ed56189e0b250db113c7bfb1c3897d25cf9632d7f\n      0x21\n      swap2\n      codecopy\n      0x40\n      add\n      swap2\n      pop\n      pop\n      mload(0x40)\n      dup1\n      swap2\n      sub\n      swap1\n      revert\n    tag_214:\n        /* \"@openzeppelin/contracts/token/ERC20/ERC20.sol\":8675:8724  _beforeTokenTransfer(account, address(0), amount) */\n      tag_215\n        /* \"@openzeppelin/contracts/token/ERC20/ERC20.sol\":8696:8703  account */\n      dup3\n        /* \"@openzeppelin/contracts/token/ERC20/ERC20.sol\":8713:8714  0 */\n      0x00\n        /* \"@openzeppelin/contracts/token/ERC20/ERC20.sol\":8717:8723  amount */\n      dup4\n        /* \"@openzeppelin/contracts/token/ERC20/ERC20.sol\":8675:8695  _beforeTokenTransfer */\n      tag_199\n        /* \"@openzeppelin/contracts/token/ERC20/ERC20.sol\":8675:8724  _beforeTokenTransfer(account, address(0), amount) */\n      jump\t// in\n    tag_215:\n        /* \"@openzeppelin/contracts/token/ERC20/ERC20.sol\":8756:8824  _balances[account].sub(amount, \"ERC20: burn amount exceeds balance\") */\n      tag_216\n        /* \"@openzeppelin/contracts/token/ERC20/ERC20.sol\":8779:8785  amount */\n      dup2\n        /* \"@openzeppelin/contracts/token/ERC20/ERC20.sol\":8756:8824  _balances[account].sub(amount, \"ERC20: burn amount exceeds balance\") */\n      mload(0x40)\n      dup1\n      0x60\n      add\n      0x40\n      mstore\n      dup1\n      0x22\n      dup2\n      mstore\n      0x20\n      add\n      data_149b126e7125232b4200af45303d04fba8b74653b1a295a6a561a528c33fefdd\n      0x22\n      swap2\n      codecopy\n        /* \"@openzeppelin/contracts/token/ERC20/ERC20.sol\":8756:8765  _balances */\n      0x00\n        /* \"@openzeppelin/contracts/token/ERC20/ERC20.sol\":8756:8774  _balances[account] */\n      dup1\n        /* \"@openzeppelin/contracts/token/ERC20/ERC20.sol\":8766:8773  account */\n      dup7\n        /* \"@openzeppelin/contracts/token/ERC20/ERC20.sol\":8756:8774  _balances[account] */\n      0xffffffffffffffffffffffffffffffffffffffff\n      and\n      0xffffffffffffffffffffffffffffffffffffffff\n      and\n      dup2\n      mstore\n      0x20\n      add\n      swap1\n      dup2\n      mstore\n      0x20\n      add\n      0x00\n      keccak256\n      sload\n        /* \"@openzeppelin/contracts/token/ERC20/ERC20.sol\":8756:8778  _balances[account].sub */\n      tag_113\n      swap1\n        /* \"@openzeppelin/contracts/token/ERC20/ERC20.sol\":8756:8824  _balances[account].sub(amount, \"ERC20: burn amount exceeds balance\") */\n      swap3\n      swap2\n      swap1\n      0xffffffff\n      and\n      jump\t// in\n    tag_216:\n        /* \"@openzeppelin/contracts/token/ERC20/ERC20.sol\":8735:8744  _balances */\n      0x00\n        /* \"@openzeppelin/contracts/token/ERC20/ERC20.sol\":8735:8753  _balances[account] */\n      dup1\n        /* \"@openzeppelin/contracts/token/ERC20/ERC20.sol\":8745:8752  account */\n      dup5\n        /* \"@openzeppelin/contracts/token/ERC20/ERC20.sol\":8735:8753  _balances[account] */\n      0xffffffffffffffffffffffffffffffffffffffff\n      and\n      0xffffffffffffffffffffffffffffffffffffffff\n      and\n      dup2\n      mstore\n      0x20\n      add\n      swap1\n      dup2\n      mstore\n      0x20\n      add\n      0x00\n      keccak256\n        /* \"@openzeppelin/contracts/token/ERC20/ERC20.sol\":8735:8824  _balances[account] = _balances[account].sub(amount, \"ERC20: burn amount exceeds balance\") */\n      dup2\n      swap1\n      sstore\n      pop\n        /* \"@openzeppelin/contracts/token/ERC20/ERC20.sol\":8849:8873  _totalSupply.sub(amount) */\n      tag_217\n        /* \"@openzeppelin/contracts/token/ERC20/ERC20.sol\":8866:8872  amount */\n      dup2\n        /* \"@openzeppelin/contracts/token/ERC20/ERC20.sol\":8849:8861  _totalSupply */\n      sload(0x02)\n        /* \"@openzeppelin/contracts/token/ERC20/ERC20.sol\":8849:8865  _totalSupply.sub */\n      tag_218\n      swap1\n        /* \"@openzeppelin/contracts/token/ERC20/ERC20.sol\":8849:8873  _totalSupply.sub(amount) */\n      swap2\n      swap1\n      0xffffffff\n      and\n      jump\t// in\n    tag_217:\n        /* \"@openzeppelin/contracts/token/ERC20/ERC20.sol\":8834:8846  _totalSupply */\n      0x02\n        /* \"@openzeppelin/contracts/token/ERC20/ERC20.sol\":8834:8873  _totalSupply = _totalSupply.sub(amount) */\n      dup2\n      swap1\n      sstore\n      pop\n        /* \"@openzeppelin/contracts/token/ERC20/ERC20.sol\":8914:8915  0 */\n      0x00\n        /* \"@openzeppelin/contracts/token/ERC20/ERC20.sol\":8888:8925  Transfer(account, address(0), amount) */\n      0xffffffffffffffffffffffffffffffffffffffff\n      and\n        /* \"@openzeppelin/contracts/token/ERC20/ERC20.sol\":8897:8904  account */\n      dup3\n        /* \"@openzeppelin/contracts/token/ERC20/ERC20.sol\":8888:8925  Transfer(account, address(0), amount) */\n      0xffffffffffffffffffffffffffffffffffffffff\n      and\n      0xddf252ad1be2c89b69c2b068fc378daa952ba7f163c4a11628f55a4df523b3ef\n        /* \"@openzeppelin/contracts/token/ERC20/ERC20.sol\":8918:8924  amount */\n      dup4\n        /* \"@openzeppelin/contracts/token/ERC20/ERC20.sol\":8888:8925  Transfer(account, address(0), amount) */\n      mload(0x40)\n      dup1\n      dup3\n      dup2\n      mstore\n      0x20\n      add\n      swap2\n      pop\n      pop\n      mload(0x40)\n      dup1\n      swap2\n      sub\n      swap1\n      log3\n        /* \"@openzeppelin/contracts/token/ERC20/ERC20.sol\":8522:8932  function _burn(address account, uint256 amount) internal virtual {... */\n      pop\n      pop\n      jump\t// out\n        /* \"@openzeppelin/contracts/utils/EnumerableSet.sol\":7230:7345  function length(AddressSet storage set) internal view returns (uint256) {... */\n    tag_136:\n        /* \"@openzeppelin/contracts/utils/EnumerableSet.sol\":7293:7300  uint256 */\n      0x00\n        /* \"@openzeppelin/contracts/utils/EnumerableSet.sol\":7319:7338  _length(set._inner) */\n      tag_220\n        /* \"@openzeppelin/contracts/utils/EnumerableSet.sol\":7327:7330  set */\n      dup3\n        /* \"@openzeppelin/contracts/utils/EnumerableSet.sol\":7327:7337  set._inner */\n      0x00\n      add\n        /* \"@openzeppelin/contracts/utils/EnumerableSet.sol\":7319:7326  _length */\n      tag_221\n        /* \"@openzeppelin/contracts/utils/EnumerableSet.sol\":7319:7338  _length(set._inner) */\n      jump\t// in\n    tag_220:\n        /* \"@openzeppelin/contracts/utils/EnumerableSet.sol\":7312:7338  return _length(set._inner) */\n      swap1\n      pop\n        /* \"@openzeppelin/contracts/utils/EnumerableSet.sol\":7230:7345  function length(AddressSet storage set) internal view returns (uint256) {... */\n      swap2\n      swap1\n      pop\n      jump\t// out\n        /* \"@openzeppelin/contracts/utils/EnumerableSet.sol\":7677:7833  function at(AddressSet storage set, uint256 index) internal view returns (address) {... */\n    tag_144:\n        /* \"@openzeppelin/contracts/utils/EnumerableSet.sol\":7751:7758  address */\n      0x00\n        /* \"@openzeppelin/contracts/utils/EnumerableSet.sol\":7801:7823  _at(set._inner, index) */\n      tag_223\n        /* \"@openzeppelin/contracts/utils/EnumerableSet.sol\":7805:7808  set */\n      dup4\n        /* \"@openzeppelin/contracts/utils/EnumerableSet.sol\":7805:7815  set._inner */\n      0x00\n      add\n        /* \"@openzeppelin/contracts/utils/EnumerableSet.sol\":7817:7822  index */\n      dup4\n        /* \"@openzeppelin/contracts/utils/EnumerableSet.sol\":7801:7804  _at */\n      tag_224\n        /* \"@openzeppelin/contracts/utils/EnumerableSet.sol\":7801:7823  _at(set._inner, index) */\n      jump\t// in\n    tag_223:\n        /* \"@openzeppelin/contracts/utils/EnumerableSet.sol\":7793:7824  uint256(_at(set._inner, index)) */\n      0x00\n      shr\n        /* \"@openzeppelin/contracts/utils/EnumerableSet.sol\":7770:7826  return address(uint160(uint256(_at(set._inner, index)))) */\n      swap1\n      pop\n        /* \"@openzeppelin/contracts/utils/EnumerableSet.sol\":7677:7833  function at(AddressSet storage set, uint256 index) internal view returns (address) {... */\n      swap3\n      swap2\n      pop\n      pop\n      jump\t// out\n        /* \"contracts/mtb.sol\":1402:1488  function _addMinter(address account) internal {\r... */\n    tag_170:\n        /* \"contracts/mtb.sol\":1459:1480  _minters.add(account) */\n      tag_226\n        /* \"contracts/mtb.sol\":1472:1479  account */\n      dup2\n        /* \"contracts/mtb.sol\":1459:1467  _minters */\n      0x08\n        /* \"contracts/mtb.sol\":1459:1471  _minters.add */\n      tag_95\n      swap1\n        /* \"contracts/mtb.sol\":1459:1480  _minters.add(account) */\n      swap2\n      swap1\n      0xffffffff\n      and\n      jump\t// in\n    tag_226:\n      pop\n        /* \"contracts/mtb.sol\":1402:1488  function _addMinter(address account) internal {\r... */\n      pop\n      jump\t// out\n        /* \"@openzeppelin/contracts/utils/EnumerableSet.sol\":1640:2044  function _add(Set storage set, bytes32 value) private returns (bool) {... */\n    tag_190:\n        /* \"@openzeppelin/contracts/utils/EnumerableSet.sol\":1703:1707  bool */\n      0x00\n        /* \"@openzeppelin/contracts/utils/EnumerableSet.sol\":1724:1745  _contains(set, value) */\n      tag_228\n        /* \"@openzeppelin/contracts/utils/EnumerableSet.sol\":1734:1737  set */\n      dup4\n        /* \"@openzeppelin/contracts/utils/EnumerableSet.sol\":1739:1744  value */\n      dup4\n        /* \"@openzeppelin/contracts/utils/EnumerableSet.sol\":1724:1733  _contains */\n      tag_229\n        /* \"@openzeppelin/contracts/utils/EnumerableSet.sol\":1724:1745  _contains(set, value) */\n      jump\t// in\n    tag_228:\n        /* \"@openzeppelin/contracts/utils/EnumerableSet.sol\":1719:2038  if (!_contains(set, value)) {... */\n      tag_230\n      jumpi\n        /* \"@openzeppelin/contracts/utils/EnumerableSet.sol\":1761:1764  set */\n      dup3\n        /* \"@openzeppelin/contracts/utils/EnumerableSet.sol\":1761:1772  set._values */\n      0x00\n      add\n        /* \"@openzeppelin/contracts/utils/EnumerableSet.sol\":1778:1783  value */\n      dup3\n        /* \"@openzeppelin/contracts/utils/EnumerableSet.sol\":1761:1784  set._values.push(value) */\n      swap1\n      dup1\n      0x01\n      dup2\n      sload\n      add\n      dup1\n      dup3\n      sstore\n      dup1\n      swap2\n      pop\n      pop\n      0x01\n      swap1\n      sub\n      swap1\n      0x00\n      mstore\n      keccak256(0x00, 0x20)\n      add\n      0x00\n      swap1\n      swap2\n      swap1\n      swap2\n      swap1\n      swap2\n      pop\n      sstore\n        /* \"@openzeppelin/contracts/utils/EnumerableSet.sol\":1941:1944  set */\n      dup3\n        /* \"@openzeppelin/contracts/utils/EnumerableSet.sol\":1941:1952  set._values */\n      0x00\n      add\n        /* \"@openzeppelin/contracts/utils/EnumerableSet.sol\":1941:1959  set._values.length */\n      dup1\n      sload\n      swap1\n      pop\n        /* \"@openzeppelin/contracts/utils/EnumerableSet.sol\":1919:1922  set */\n      dup4\n        /* \"@openzeppelin/contracts/utils/EnumerableSet.sol\":1919:1931  set._indexes */\n      0x01\n      add\n        /* \"@openzeppelin/contracts/utils/EnumerableSet.sol\":1919:1938  set._indexes[value] */\n      0x00\n        /* \"@openzeppelin/contracts/utils/EnumerableSet.sol\":1932:1937  value */\n      dup5\n        /* \"@openzeppelin/contracts/utils/EnumerableSet.sol\":1919:1938  set._indexes[value] */\n      dup2\n      mstore\n      0x20\n      add\n      swap1\n      dup2\n      mstore\n      0x20\n      add\n      0x00\n      keccak256\n        /* \"@openzeppelin/contracts/utils/EnumerableSet.sol\":1919:1959  set._indexes[value] = set._values.length */\n      dup2\n      swap1\n      sstore\n      pop\n        /* \"@openzeppelin/contracts/utils/EnumerableSet.sol\":1980:1984  true */\n      0x01\n        /* \"@openzeppelin/contracts/utils/EnumerableSet.sol\":1973:1984  return true */\n      swap1\n      pop\n      jump(tag_227)\n        /* \"@openzeppelin/contracts/utils/EnumerableSet.sol\":1719:2038  if (!_contains(set, value)) {... */\n    tag_230:\n        /* \"@openzeppelin/contracts/utils/EnumerableSet.sol\":2022:2027  false */\n      0x00\n        /* \"@openzeppelin/contracts/utils/EnumerableSet.sol\":2015:2027  return false */\n      swap1\n      pop\n        /* \"@openzeppelin/contracts/utils/EnumerableSet.sol\":1640:2044  function _add(Set storage set, bytes32 value) private returns (bool) {... */\n    tag_227:\n      swap3\n      swap2\n      pop\n      pop\n      jump\t// out\n        /* \"contracts/mtb.sol\":1777:2022  function _beforeTokenTransfer(address from, address to, uint256 amount) internal override(ERC20, ERC20Pausable, ERC20Capped) {\r... */\n    tag_199:\n        /* \"contracts/mtb.sol\":1913:1957  super._beforeTokenTransfer(from, to, amount) */\n      tag_234\n        /* \"contracts/mtb.sol\":1940:1944  from */\n      dup4\n        /* \"contracts/mtb.sol\":1946:1948  to */\n      dup4\n        /* \"contracts/mtb.sol\":1950:1956  amount */\n      dup4\n        /* \"contracts/mtb.sol\":1913:1939  super._beforeTokenTransfer */\n      tag_235\n        /* \"contracts/mtb.sol\":1913:1957  super._beforeTokenTransfer(from, to, amount) */\n      jump\t// in\n    tag_234:\n        /* \"contracts/mtb.sol\":1777:2022  function _beforeTokenTransfer(address from, address to, uint256 amount) internal override(ERC20, ERC20Pausable, ERC20Capped) {\r... */\n      pop\n      pop\n      pop\n      jump\t// out\n        /* \"@openzeppelin/contracts/utils/EnumerableSet.sol\":6747:6903  function remove(AddressSet storage set, address value) internal returns (bool) {... */\n    tag_210:\n        /* \"@openzeppelin/contracts/utils/EnumerableSet.sol\":6820:6824  bool */\n      0x00\n        /* \"@openzeppelin/contracts/utils/EnumerableSet.sol\":6843:6896  _remove(set._inner, bytes32(uint256(uint160(value)))) */\n      tag_237\n        /* \"@openzeppelin/contracts/utils/EnumerableSet.sol\":6851:6854  set */\n      dup4\n        /* \"@openzeppelin/contracts/utils/EnumerableSet.sol\":6851:6861  set._inner */\n      0x00\n      add\n        /* \"@openzeppelin/contracts/utils/EnumerableSet.sol\":6887:6892  value */\n      dup4\n        /* \"@openzeppelin/contracts/utils/EnumerableSet.sol\":6871:6894  uint256(uint160(value)) */\n      0xffffffffffffffffffffffffffffffffffffffff\n      and\n        /* \"@openzeppelin/contracts/utils/EnumerableSet.sol\":6863:6895  bytes32(uint256(uint160(value))) */\n      0x00\n      shl\n        /* \"@openzeppelin/contracts/utils/EnumerableSet.sol\":6843:6850  _remove */\n      tag_238\n        /* \"@openzeppelin/contracts/utils/EnumerableSet.sol\":6843:6896  _remove(set._inner, bytes32(uint256(uint160(value)))) */\n      jump\t// in\n    tag_237:\n        /* \"@openzeppelin/contracts/utils/EnumerableSet.sol\":6836:6896  return _remove(set._inner, bytes32(uint256(uint160(value)))) */\n      swap1\n      pop\n        /* \"@openzeppelin/contracts/utils/EnumerableSet.sol\":6747:6903  function remove(AddressSet storage set, address value) internal returns (bool) {... */\n      swap3\n      swap2\n      pop\n      pop\n      jump\t// out\n        /* \"@openzeppelin/contracts/math/SafeMath.sol\":3136:3291  function sub(uint256 a, uint256 b) internal pure returns (uint256) {... */\n    tag_218:\n        /* \"@openzeppelin/contracts/math/SafeMath.sol\":3194:3201  uint256 */\n      0x00\n        /* \"@openzeppelin/contracts/math/SafeMath.sol\":3226:3227  a */\n      dup3\n        /* \"@openzeppelin/contracts/math/SafeMath.sol\":3221:3222  b */\n      dup3\n        /* \"@openzeppelin/contracts/math/SafeMath.sol\":3221:3227  b <= a */\n      gt\n      iszero\n        /* \"@openzeppelin/contracts/math/SafeMath.sol\":3213:3262  require(b <= a, \"SafeMath: subtraction overflow\") */\n      tag_240\n      jumpi\n      mload(0x40)\n      0x08c379a000000000000000000000000000000000000000000000000000000000\n      dup2\n      mstore\n      0x04\n      add\n      dup1\n      dup1\n      0x20\n      add\n      dup3\n      dup2\n      sub\n      dup3\n      mstore\n      0x1e\n      dup2\n      mstore\n      0x20\n      add\n      dup1\n      0x536166654d6174683a207375627472616374696f6e206f766572666c6f770000\n      dup2\n      mstore\n      pop\n      0x20\n      add\n      swap2\n      pop\n      pop\n      mload(0x40)\n      dup1\n      swap2\n      sub\n      swap1\n      revert\n    tag_240:\n        /* \"@openzeppelin/contracts/math/SafeMath.sol\":3283:3284  b */\n      dup2\n        /* \"@openzeppelin/contracts/math/SafeMath.sol\":3279:3280  a */\n      dup4\n        /* \"@openzeppelin/contracts/math/SafeMath.sol\":3279:3284  a - b */\n      sub\n        /* \"@openzeppelin/contracts/math/SafeMath.sol\":3272:3284  return a - b */\n      swap1\n      pop\n        /* \"@openzeppelin/contracts/math/SafeMath.sol\":3136:3291  function sub(uint256 a, uint256 b) internal pure returns (uint256) {... */\n      swap3\n      swap2\n      pop\n      pop\n      jump\t// out\n        /* \"@openzeppelin/contracts/utils/EnumerableSet.sol\":4013:4120  function _length(Set storage set) private view returns (uint256) {... */\n    tag_221:\n        /* \"@openzeppelin/contracts/utils/EnumerableSet.sol\":4069:4076  uint256 */\n      0x00\n        /* \"@openzeppelin/contracts/utils/EnumerableSet.sol\":4095:4098  set */\n      dup2\n        /* \"@openzeppelin/contracts/utils/EnumerableSet.sol\":4095:4106  set._values */\n      0x00\n      add\n        /* \"@openzeppelin/contracts/utils/EnumerableSet.sol\":4095:4113  set._values.length */\n      dup1\n      sload\n      swap1\n      pop\n        /* \"@openzeppelin/contracts/utils/EnumerableSet.sol\":4088:4113  return set._values.length */\n      swap1\n      pop\n        /* \"@openzeppelin/contracts/utils/EnumerableSet.sol\":4013:4120  function _length(Set storage set) private view returns (uint256) {... */\n      swap2\n      swap1\n      pop\n      jump\t// out\n        /* \"@openzeppelin/contracts/utils/EnumerableSet.sol\":4452:4653  function _at(Set storage set, uint256 index) private view returns (bytes32) {... */\n    tag_224:\n        /* \"@openzeppelin/contracts/utils/EnumerableSet.sol\":4519:4526  bytes32 */\n      0x00\n        /* \"@openzeppelin/contracts/utils/EnumerableSet.sol\":4567:4572  index */\n      dup2\n        /* \"@openzeppelin/contracts/utils/EnumerableSet.sol\":4546:4549  set */\n      dup4\n        /* \"@openzeppelin/contracts/utils/EnumerableSet.sol\":4546:4557  set._values */\n      0x00\n      add\n        /* \"@openzeppelin/contracts/utils/EnumerableSet.sol\":4546:4564  set._values.length */\n      dup1\n      sload\n      swap1\n      pop\n        /* \"@openzeppelin/contracts/utils/EnumerableSet.sol\":4546:4572  set._values.length > index */\n      gt\n        /* \"@openzeppelin/contracts/utils/EnumerableSet.sol\":4538:4611  require(set._values.length > index, \"EnumerableSet: index out of bounds\") */\n      tag_243\n      jumpi\n      mload(0x40)\n      0x08c379a000000000000000000000000000000000000000000000000000000000\n      dup2\n      mstore\n      0x04\n      add\n      dup1\n      dup1\n      0x20\n      add\n      dup3\n      dup2\n      sub\n      dup3\n      mstore\n      0x22\n      dup2\n      mstore\n      0x20\n      add\n      dup1\n      data_045d6834e6193a687012a3ad777f612279e549b6945364d9d2324f48610d3cbb\n      0x22\n      swap2\n      codecopy\n      0x40\n      add\n      swap2\n      pop\n      pop\n      mload(0x40)\n      dup1\n      swap2\n      sub\n      swap1\n      revert\n    tag_243:\n        /* \"@openzeppelin/contracts/utils/EnumerableSet.sol\":4628:4631  set */\n      dup3\n        /* \"@openzeppelin/contracts/utils/EnumerableSet.sol\":4628:4639  set._values */\n      0x00\n      add\n        /* \"@openzeppelin/contracts/utils/EnumerableSet.sol\":4640:4645  index */\n      dup3\n        /* \"@openzeppelin/contracts/utils/EnumerableSet.sol\":4628:4646  set._values[index] */\n      dup2\n      sload\n      dup2\n      lt\n      tag_244\n      jumpi\n      invalid\n    tag_244:\n      swap1\n      0x00\n      mstore\n      keccak256(0x00, 0x20)\n      add\n      sload\n        /* \"@openzeppelin/contracts/utils/EnumerableSet.sol\":4621:4646  return set._values[index] */\n      swap1\n      pop\n        /* \"@openzeppelin/contracts/utils/EnumerableSet.sol\":4452:4653  function _at(Set storage set, uint256 index) private view returns (bytes32) {... */\n      swap3\n      swap2\n      pop\n      pop\n      jump\t// out\n        /* \"@openzeppelin/contracts/utils/EnumerableSet.sol\":3805:3932  function _contains(Set storage set, bytes32 value) private view returns (bool) {... */\n    tag_229:\n        /* \"@openzeppelin/contracts/utils/EnumerableSet.sol\":3878:3882  bool */\n      0x00\n        /* \"@openzeppelin/contracts/utils/EnumerableSet.sol\":3924:3925  0 */\n      dup1\n        /* \"@openzeppelin/contracts/utils/EnumerableSet.sol\":3901:3904  set */\n      dup4\n        /* \"@openzeppelin/contracts/utils/EnumerableSet.sol\":3901:3913  set._indexes */\n      0x01\n      add\n        /* \"@openzeppelin/contracts/utils/EnumerableSet.sol\":3901:3920  set._indexes[value] */\n      0x00\n        /* \"@openzeppelin/contracts/utils/EnumerableSet.sol\":3914:3919  value */\n      dup5\n        /* \"@openzeppelin/contracts/utils/EnumerableSet.sol\":3901:3920  set._indexes[value] */\n      dup2\n      mstore\n      0x20\n      add\n      swap1\n      dup2\n      mstore\n      0x20\n      add\n      0x00\n      keccak256\n      sload\n        /* \"@openzeppelin/contracts/utils/EnumerableSet.sol\":3901:3925  set._indexes[value] != 0 */\n      eq\n      iszero\n        /* \"@openzeppelin/contracts/utils/EnumerableSet.sol\":3894:3925  return set._indexes[value] != 0 */\n      swap1\n      pop\n        /* \"@openzeppelin/contracts/utils/EnumerableSet.sol\":3805:3932  function _contains(Set storage set, bytes32 value) private view returns (bool) {... */\n      swap3\n      swap2\n      pop\n      pop\n      jump\t// out\n        /* \"@openzeppelin/contracts/token/ERC20/ERC20Capped.sol\":860:1173  function _beforeTokenTransfer(address from, address to, uint256 amount) internal virtual override {... */\n    tag_235:\n        /* \"@openzeppelin/contracts/token/ERC20/ERC20Capped.sol\":968:1012  super._beforeTokenTransfer(from, to, amount) */\n      tag_248\n        /* \"@openzeppelin/contracts/token/ERC20/ERC20Capped.sol\":995:999  from */\n      dup4\n        /* \"@openzeppelin/contracts/token/ERC20/ERC20Capped.sol\":1001:1003  to */\n      dup4\n        /* \"@openzeppelin/contracts/token/ERC20/ERC20Capped.sol\":1005:1011  amount */\n      dup4\n        /* \"@openzeppelin/contracts/token/ERC20/ERC20Capped.sol\":968:994  super._beforeTokenTransfer */\n      tag_249\n        /* \"@openzeppelin/contracts/token/ERC20/ERC20Capped.sol\":968:1012  super._beforeTokenTransfer(from, to, amount) */\n      jump\t// in\n    tag_248:\n        /* \"@openzeppelin/contracts/token/ERC20/ERC20Capped.sol\":1043:1044  0 */\n      0x00\n        /* \"@openzeppelin/contracts/token/ERC20/ERC20Capped.sol\":1027:1045  from == address(0) */\n      0xffffffffffffffffffffffffffffffffffffffff\n      and\n        /* \"@openzeppelin/contracts/token/ERC20/ERC20Capped.sol\":1027:1031  from */\n      dup4\n        /* \"@openzeppelin/contracts/token/ERC20/ERC20Capped.sol\":1027:1045  from == address(0) */\n      0xffffffffffffffffffffffffffffffffffffffff\n      and\n      eq\n        /* \"@openzeppelin/contracts/token/ERC20/ERC20Capped.sol\":1023:1167  if (from == address(0)) { // When minting tokens... */\n      iszero\n      tag_250\n      jumpi\n        /* \"@openzeppelin/contracts/token/ERC20/ERC20Capped.sol\":1121:1126  cap() */\n      tag_251\n        /* \"@openzeppelin/contracts/token/ERC20/ERC20Capped.sol\":1121:1124  cap */\n      tag_48\n        /* \"@openzeppelin/contracts/token/ERC20/ERC20Capped.sol\":1121:1126  cap() */\n      jump\t// in\n    tag_251:\n        /* \"@openzeppelin/contracts/token/ERC20/ERC20Capped.sol\":1092:1117  totalSupply().add(amount) */\n      tag_252\n        /* \"@openzeppelin/contracts/token/ERC20/ERC20Capped.sol\":1110:1116  amount */\n      dup3\n        /* \"@openzeppelin/contracts/token/ERC20/ERC20Capped.sol\":1092:1105  totalSupply() */\n      tag_253\n        /* \"@openzeppelin/contracts/token/ERC20/ERC20Capped.sol\":1092:1103  totalSupply */\n      tag_38\n        /* \"@openzeppelin/contracts/token/ERC20/ERC20Capped.sol\":1092:1105  totalSupply() */\n      jump\t// in\n    tag_253:\n        /* \"@openzeppelin/contracts/token/ERC20/ERC20Capped.sol\":1092:1109  totalSupply().add */\n      tag_128\n      swap1\n        /* \"@openzeppelin/contracts/token/ERC20/ERC20Capped.sol\":1092:1117  totalSupply().add(amount) */\n      swap2\n      swap1\n      0xffffffff\n      and\n      jump\t// in\n    tag_252:\n        /* \"@openzeppelin/contracts/token/ERC20/ERC20Capped.sol\":1092:1126  totalSupply().add(amount) <= cap() */\n      gt\n      iszero\n        /* \"@openzeppelin/contracts/token/ERC20/ERC20Capped.sol\":1084:1156  require(totalSupply().add(amount) <= cap(), \"ERC20Capped: cap exceeded\") */\n      tag_254\n      jumpi\n      mload(0x40)\n      0x08c379a000000000000000000000000000000000000000000000000000000000\n      dup2\n      mstore\n      0x04\n      add\n      dup1\n      dup1\n      0x20\n      add\n      dup3\n      dup2\n      sub\n      dup3\n      mstore\n      0x19\n      dup2\n      mstore\n      0x20\n      add\n      dup1\n      0x45524332304361707065643a2063617020657863656564656400000000000000\n      dup2\n      mstore\n      pop\n      0x20\n      add\n      swap2\n      pop\n      pop\n      mload(0x40)\n      dup1\n      swap2\n      sub\n      swap1\n      revert\n    tag_254:\n        /* \"@openzeppelin/contracts/token/ERC20/ERC20Capped.sol\":1023:1167  if (from == address(0)) { // When minting tokens... */\n    tag_250:\n        /* \"@openzeppelin/contracts/token/ERC20/ERC20Capped.sol\":860:1173  function _beforeTokenTransfer(address from, address to, uint256 amount) internal virtual override {... */\n      pop\n      pop\n      pop\n      jump\t// out\n        /* \"@openzeppelin/contracts/utils/EnumerableSet.sol\":2212:3724  function _remove(Set storage set, bytes32 value) private returns (bool) {... */\n    tag_238:\n        /* \"@openzeppelin/contracts/utils/EnumerableSet.sol\":2278:2282  bool */\n      0x00\n        /* \"@openzeppelin/contracts/utils/EnumerableSet.sol\":2394:2412  uint256 valueIndex */\n      dup1\n        /* \"@openzeppelin/contracts/utils/EnumerableSet.sol\":2415:2418  set */\n      dup4\n        /* \"@openzeppelin/contracts/utils/EnumerableSet.sol\":2415:2427  set._indexes */\n      0x01\n      add\n        /* \"@openzeppelin/contracts/utils/EnumerableSet.sol\":2415:2434  set._indexes[value] */\n      0x00\n        /* \"@openzeppelin/contracts/utils/EnumerableSet.sol\":2428:2433  value */\n      dup5\n        /* \"@openzeppelin/contracts/utils/EnumerableSet.sol\":2415:2434  set._indexes[value] */\n      dup2\n      mstore\n      0x20\n      add\n      swap1\n      dup2\n      mstore\n      0x20\n      add\n      0x00\n      keccak256\n      sload\n        /* \"@openzeppelin/contracts/utils/EnumerableSet.sol\":2394:2434  uint256 valueIndex = set._indexes[value] */\n      swap1\n      pop\n        /* \"@openzeppelin/contracts/utils/EnumerableSet.sol\":2463:2464  0 */\n      0x00\n        /* \"@openzeppelin/contracts/utils/EnumerableSet.sol\":2449:2459  valueIndex */\n      dup2\n        /* \"@openzeppelin/contracts/utils/EnumerableSet.sol\":2449:2464  valueIndex != 0 */\n      eq\n        /* \"@openzeppelin/contracts/utils/EnumerableSet.sol\":2445:3718  if (valueIndex != 0) { // Equivalent to contains(set, value)... */\n      tag_256\n      jumpi\n        /* \"@openzeppelin/contracts/utils/EnumerableSet.sol\":2806:2827  uint256 toDeleteIndex */\n      0x00\n        /* \"@openzeppelin/contracts/utils/EnumerableSet.sol\":2843:2844  1 */\n      0x01\n        /* \"@openzeppelin/contracts/utils/EnumerableSet.sol\":2830:2840  valueIndex */\n      dup3\n        /* \"@openzeppelin/contracts/utils/EnumerableSet.sol\":2830:2844  valueIndex - 1 */\n      sub\n        /* \"@openzeppelin/contracts/utils/EnumerableSet.sol\":2806:2844  uint256 toDeleteIndex = valueIndex - 1 */\n      swap1\n      pop\n        /* \"@openzeppelin/contracts/utils/EnumerableSet.sol\":2858:2875  uint256 lastIndex */\n      0x00\n        /* \"@openzeppelin/contracts/utils/EnumerableSet.sol\":2899:2900  1 */\n      0x01\n        /* \"@openzeppelin/contracts/utils/EnumerableSet.sol\":2878:2881  set */\n      dup7\n        /* \"@openzeppelin/contracts/utils/EnumerableSet.sol\":2878:2889  set._values */\n      0x00\n      add\n        /* \"@openzeppelin/contracts/utils/EnumerableSet.sol\":2878:2896  set._values.length */\n      dup1\n      sload\n      swap1\n      pop\n        /* \"@openzeppelin/contracts/utils/EnumerableSet.sol\":2878:2900  set._values.length - 1 */\n      sub\n        /* \"@openzeppelin/contracts/utils/EnumerableSet.sol\":2858:2900  uint256 lastIndex = set._values.length - 1 */\n      swap1\n      pop\n        /* \"@openzeppelin/contracts/utils/EnumerableSet.sol\":3140:3157  bytes32 lastvalue */\n      0x00\n        /* \"@openzeppelin/contracts/utils/EnumerableSet.sol\":3160:3163  set */\n      dup7\n        /* \"@openzeppelin/contracts/utils/EnumerableSet.sol\":3160:3171  set._values */\n      0x00\n      add\n        /* \"@openzeppelin/contracts/utils/EnumerableSet.sol\":3172:3181  lastIndex */\n      dup3\n        /* \"@openzeppelin/contracts/utils/EnumerableSet.sol\":3160:3182  set._values[lastIndex] */\n      dup2\n      sload\n      dup2\n      lt\n      tag_257\n      jumpi\n      invalid\n    tag_257:\n      swap1\n      0x00\n      mstore\n      keccak256(0x00, 0x20)\n      add\n      sload\n        /* \"@openzeppelin/contracts/utils/EnumerableSet.sol\":3140:3182  bytes32 lastvalue = set._values[lastIndex] */\n      swap1\n      pop\n        /* \"@openzeppelin/contracts/utils/EnumerableSet.sol\":3303:3312  lastvalue */\n      dup1\n        /* \"@openzeppelin/contracts/utils/EnumerableSet.sol\":3274:3277  set */\n      dup8\n        /* \"@openzeppelin/contracts/utils/EnumerableSet.sol\":3274:3285  set._values */\n      0x00\n      add\n        /* \"@openzeppelin/contracts/utils/EnumerableSet.sol\":3286:3299  toDeleteIndex */\n      dup5\n        /* \"@openzeppelin/contracts/utils/EnumerableSet.sol\":3274:3300  set._values[toDeleteIndex] */\n      dup2\n      sload\n      dup2\n      lt\n      tag_259\n      jumpi\n      invalid\n    tag_259:\n      swap1\n      0x00\n      mstore\n      keccak256(0x00, 0x20)\n      add\n        /* \"@openzeppelin/contracts/utils/EnumerableSet.sol\":3274:3312  set._values[toDeleteIndex] = lastvalue */\n      dup2\n      swap1\n      sstore\n      pop\n        /* \"@openzeppelin/contracts/utils/EnumerableSet.sol\":3420:3421  1 */\n      0x01\n        /* \"@openzeppelin/contracts/utils/EnumerableSet.sol\":3404:3417  toDeleteIndex */\n      dup4\n        /* \"@openzeppelin/contracts/utils/EnumerableSet.sol\":3404:3421  toDeleteIndex + 1 */\n      add\n        /* \"@openzeppelin/contracts/utils/EnumerableSet.sol\":3378:3381  set */\n      dup8\n        /* \"@openzeppelin/contracts/utils/EnumerableSet.sol\":3378:3390  set._indexes */\n      0x01\n      add\n        /* \"@openzeppelin/contracts/utils/EnumerableSet.sol\":3378:3401  set._indexes[lastvalue] */\n      0x00\n        /* \"@openzeppelin/contracts/utils/EnumerableSet.sol\":3391:3400  lastvalue */\n      dup4\n        /* \"@openzeppelin/contracts/utils/EnumerableSet.sol\":3378:3401  set._indexes[lastvalue] */\n      dup2\n      mstore\n      0x20\n      add\n      swap1\n      dup2\n      mstore\n      0x20\n      add\n      0x00\n      keccak256\n        /* \"@openzeppelin/contracts/utils/EnumerableSet.sol\":3378:3421  set._indexes[lastvalue] = toDeleteIndex + 1 */\n      dup2\n      swap1\n      sstore\n      pop\n        /* \"@openzeppelin/contracts/utils/EnumerableSet.sol\":3527:3530  set */\n      dup7\n        /* \"@openzeppelin/contracts/utils/EnumerableSet.sol\":3527:3538  set._values */\n      0x00\n      add\n        /* \"@openzeppelin/contracts/utils/EnumerableSet.sol\":3527:3544  set._values.pop() */\n      dup1\n      sload\n      dup1\n      tag_261\n      jumpi\n      invalid\n    tag_261:\n      0x01\n      swap1\n      sub\n      dup2\n      dup2\n      swap1\n      0x00\n      mstore\n      keccak256(0x00, 0x20)\n      add\n      0x00\n      swap1\n      sstore\n      swap1\n      sstore\n        /* \"@openzeppelin/contracts/utils/EnumerableSet.sol\":3619:3622  set */\n      dup7\n        /* \"@openzeppelin/contracts/utils/EnumerableSet.sol\":3619:3631  set._indexes */\n      0x01\n      add\n        /* \"@openzeppelin/contracts/utils/EnumerableSet.sol\":3619:3638  set._indexes[value] */\n      0x00\n        /* \"@openzeppelin/contracts/utils/EnumerableSet.sol\":3632:3637  value */\n      dup8\n        /* \"@openzeppelin/contracts/utils/EnumerableSet.sol\":3619:3638  set._indexes[value] */\n      dup2\n      mstore\n      0x20\n      add\n      swap1\n      dup2\n      mstore\n      0x20\n      add\n      0x00\n      keccak256\n        /* \"@openzeppelin/contracts/utils/EnumerableSet.sol\":3612:3638  delete set._indexes[value] */\n      0x00\n      swap1\n      sstore\n        /* \"@openzeppelin/contracts/utils/EnumerableSet.sol\":3660:3664  true */\n      0x01\n        /* \"@openzeppelin/contracts/utils/EnumerableSet.sol\":3653:3664  return true */\n      swap5\n      pop\n      pop\n      pop\n      pop\n      pop\n      jump(tag_255)\n        /* \"@openzeppelin/contracts/utils/EnumerableSet.sol\":2445:3718  if (valueIndex != 0) { // Equivalent to contains(set, value)... */\n    tag_256:\n        /* \"@openzeppelin/contracts/utils/EnumerableSet.sol\":3702:3707  false */\n      0x00\n        /* \"@openzeppelin/contracts/utils/EnumerableSet.sol\":3695:3707  return false */\n      swap2\n      pop\n      pop\n        /* \"@openzeppelin/contracts/utils/EnumerableSet.sol\":2212:3724  function _remove(Set storage set, bytes32 value) private returns (bool) {... */\n    tag_255:\n      swap3\n      swap2\n      pop\n      pop\n      jump\t// out\n        /* \"@openzeppelin/contracts/token/ERC20/ERC20Pausable.sol\":590:824  function _beforeTokenTransfer(address from, address to, uint256 amount) internal virtual override {... */\n    tag_249:\n        /* \"@openzeppelin/contracts/token/ERC20/ERC20Pausable.sol\":698:742  super._beforeTokenTransfer(from, to, amount) */\n      tag_265\n        /* \"@openzeppelin/contracts/token/ERC20/ERC20Pausable.sol\":725:729  from */\n      dup4\n        /* \"@openzeppelin/contracts/token/ERC20/ERC20Pausable.sol\":731:733  to */\n      dup4\n        /* \"@openzeppelin/contracts/token/ERC20/ERC20Pausable.sol\":735:741  amount */\n      dup4\n        /* \"@openzeppelin/contracts/token/ERC20/ERC20Pausable.sol\":698:724  super._beforeTokenTransfer */\n      tag_266\n        /* \"@openzeppelin/contracts/token/ERC20/ERC20Pausable.sol\":698:742  super._beforeTokenTransfer(from, to, amount) */\n      jump\t// in\n    tag_265:\n        /* \"@openzeppelin/contracts/token/ERC20/ERC20Pausable.sol\":762:770  paused() */\n      tag_267\n        /* \"@openzeppelin/contracts/token/ERC20/ERC20Pausable.sol\":762:768  paused */\n      tag_56\n        /* \"@openzeppelin/contracts/token/ERC20/ERC20Pausable.sol\":762:770  paused() */\n      jump\t// in\n    tag_267:\n        /* \"@openzeppelin/contracts/token/ERC20/ERC20Pausable.sol\":761:770  !paused() */\n      iszero\n        /* \"@openzeppelin/contracts/token/ERC20/ERC20Pausable.sol\":753:817  require(!paused(), \"ERC20Pausable: token transfer while paused\") */\n      tag_268\n      jumpi\n      mload(0x40)\n      0x08c379a000000000000000000000000000000000000000000000000000000000\n      dup2\n      mstore\n      0x04\n      add\n      dup1\n      dup1\n      0x20\n      add\n      dup3\n      dup2\n      sub\n      dup3\n      mstore\n      0x2a\n      dup2\n      mstore\n      0x20\n      add\n      dup1\n      data_fcb1fc9f3615fd38ab90d28b50a608758c295eeacbd5840421a4ee3b0df2f1f4\n      0x2a\n      swap2\n      codecopy\n      0x40\n      add\n      swap2\n      pop\n      pop\n      mload(0x40)\n      dup1\n      swap2\n      sub\n      swap1\n      revert\n    tag_268:\n        /* \"@openzeppelin/contracts/token/ERC20/ERC20Pausable.sol\":590:824  function _beforeTokenTransfer(address from, address to, uint256 amount) internal virtual override {... */\n      pop\n      pop\n      pop\n      jump\t// out\n        /* \"@openzeppelin/contracts/token/ERC20/ERC20.sol\":10701:10793  function _beforeTokenTransfer(address from, address to, uint256 amount) internal virtual { } */\n    tag_266:\n      pop\n      pop\n      pop\n      jump\t// out\n    stop\n    data_045d6834e6193a687012a3ad777f612279e549b6945364d9d2324f48610d3cbb 456e756d657261626c655365743a20696e646578206f7574206f6620626f756e6473\n    data_0557e210f7a69a685100a7e4e3d0a7024c546085cee28910fd17d0b081d9516f 45524332303a207472616e7366657220746f20746865207a65726f2061646472657373\n    data_149b126e7125232b4200af45303d04fba8b74653b1a295a6a561a528c33fefdd 45524332303a206275726e20616d6f756e7420657863656564732062616c616e6365\n    data_245f15ff17f551913a7a18385165551503906a406f905ac1c2437281a7cd0cfe 4f776e61626c653a206e6577206f776e657220697320746865207a65726f2061646472657373\n    data_24883cc5fe64ace9d0df1893501ecb93c77180f0ff69cca79affb3c316dc8029 45524332303a20617070726f766520746f20746865207a65726f2061646472657373\n    data_4107e8a8b9e94bf8ff83080ddec1c0bffe897ebc2241b89d44f66b3d274088b6 45524332303a207472616e7366657220616d6f756e7420657863656564732062616c616e6365\n    data_974d1b4421da69cc60b481194f0dad36a5bb4e23da810da7a7fb30cdba178330 45524332303a207472616e7366657220616d6f756e74206578636565647320616c6c6f77616e6365\n    data_a287c363786607a1457a2d9d12fa61c0073358e02d76b4035fc2c2d86a19c0db 45524332303a206275726e20616d6f756e74206578636565647320616c6c6f77616e6365\n    data_b16788493b576042bb52c50ed56189e0b250db113c7bfb1c3897d25cf9632d7f 45524332303a206275726e2066726f6d20746865207a65726f2061646472657373\n    data_baecc556b46f4ed0f2b4cb599d60785ac8563dd2dc0a5bf12edea1c39e5e1fea 45524332303a207472616e736665722066726f6d20746865207a65726f2061646472657373\n    data_c953f4879035ed60e766b34720f656aab5c697b141d924c283124ecedb91c208 45524332303a20617070726f76652066726f6d20746865207a65726f2061646472657373\n    data_f8b476f7d28209d77d4a4ac1fe36b9f8259aa1bb6bddfa6e89de7e51615cf8a8 45524332303a2064656372656173656420616c6c6f77616e63652062656c6f77207a65726f\n    data_fcb1fc9f3615fd38ab90d28b50a608758c295eeacbd5840421a4ee3b0df2f1f4 45524332305061757361626c653a20746f6b656e207472616e73666572207768696c6520706175736564\n\n    auxdata: 0xa264697066735822122027f8c4a04ce8e91bca4f21e0e766a88f3443ee3d3bc5f0a8616416b57921374664736f6c634300060c0033\n}\n",
				"bytecode": {
					"linkReferences": {},
					"object": "60806040523480156200001157600080fd5b506040516200269738038062002697833981810160405260608110156200003757600080fd5b81019080805160405193929190846401000000008211156200005857600080fd5b838201915060208201858111156200006f57600080fd5b82518660018202830111640100000000821117156200008d57600080fd5b8083526020830192505050908051906020019080838360005b83811015620000c3578082015181840152602081019050620000a6565b50505050905090810190601f168015620000f15780820380516001836020036101000a031916815260200191505b50604052602001805160405193929190846401000000008211156200011557600080fd5b838201915060208201858111156200012c57600080fd5b82518660018202830111640100000000821117156200014a57600080fd5b8083526020830192505050908051906020019080838360005b838110156200018057808201518184015260208101905062000163565b50505050905090810190601f168015620001ae5780820380516001836020036101000a031916815260200191505b50604052602001805190602001909291905050508083838160039080519060200190620001dd92919062000476565b508060049080519060200190620001f692919062000476565b506012600560006101000a81548160ff021916908360ff16021790555050506000600560016101000a81548160ff02191690831515021790555060008111620002a7576040517f08c379a00000000000000000000000000000000000000000000000000000000081526004018080602001828103825260158152602001807f45524332304361707065643a206361702069732030000000000000000000000081525060200191505060405180910390fd5b80600681905550506000620002c16200037a60201b60201c565b905080600760006101000a81548173ffffffffffffffffffffffffffffffffffffffff021916908373ffffffffffffffffffffffffffffffffffffffff1602179055508073ffffffffffffffffffffffffffffffffffffffff16600073ffffffffffffffffffffffffffffffffffffffff167f8be0079c531659141344cd1fd0a4f28419497f9722a3daafe3b4186f6b6457e060405160405180910390a35062000371336200038260201b60201c565b5050506200051c565b600033905090565b6200039d816008620003a160201b620012e51790919060201c565b5050565b6000620003d1836000018373ffffffffffffffffffffffffffffffffffffffff1660001b620003d960201b60201c565b905092915050565b6000620003ed83836200045360201b60201c565b620004485782600001829080600181540180825580915050600190039060005260206000200160009091909190915055826000018054905083600101600084815260200190815260200160002081905550600190506200044d565b600090505b92915050565b600080836001016000848152602001908152602001600020541415905092915050565b828054600181600116156101000203166002900490600052602060002090601f016020900481019282601f10620004b957805160ff1916838001178555620004ea565b82800160010185558215620004ea579182015b82811115620004e9578251825591602001919060010190620004cc565b5b509050620004f99190620004fd565b5090565b5b8082111562000518576000816000905550600101620004fe565b5090565b61216b806200052c6000396000f3fe608060405234801561001057600080fd5b50600436106101425760003560e01c806370a08231116100b8578063983b2d561161007c578063983b2d56146105cb578063986502751461060f578063a457c2d714610619578063a9059cbb1461067d578063dd62ed3e146106e1578063f2fde38b1461075957610142565b806370a0823114610464578063715018a6146104bc57806379cc6790146104c65780638da5cb5b1461051457806395d89b411461054857610142565b8063313ce5671161010a578063313ce56714610314578063355274ea14610335578063395093511461035357806342966c68146103b75780635c975abb146103e55780636b32810b1461040557610142565b806306fdde0314610147578063095ea7b3146101ca57806318160ddd1461022e57806323b872dd1461024c5780633092afd5146102d0575b600080fd5b61014f61079d565b6040518080602001828103825283818151815260200191508051906020019080838360005b8381101561018f578082015181840152602081019050610174565b50505050905090810190601f1680156101bc5780820380516001836020036101000a031916815260200191505b509250505060405180910390f35b610216600480360360408110156101e057600080fd5b81019080803573ffffffffffffffffffffffffffffffffffffffff1690602001909291908035906020019092919050505061083f565b60405180821515815260200191505060405180910390f35b61023661085d565b6040518082815260200191505060405180910390f35b6102b86004803603606081101561026257600080fd5b81019080803573ffffffffffffffffffffffffffffffffffffffff169060200190929190803573ffffffffffffffffffffffffffffffffffffffff16906020019092919080359060200190929190505050610867565b60405180821515815260200191505060405180910390f35b610312600480360360208110156102e657600080fd5b81019080803573ffffffffffffffffffffffffffffffffffffffff169060200190929190505050610940565b005b61031c6109fb565b604051808260ff16815260200191505060405180910390f35b61033d610a12565b6040518082815260200191505060405180910390f35b61039f6004803603604081101561036957600080fd5b81019080803573ffffffffffffffffffffffffffffffffffffffff16906020019092919080359060200190929190505050610a1c565b60405180821515815260200191505060405180910390f35b6103e3600480360360208110156103cd57600080fd5b8101908080359060200190929190505050610acf565b005b6103ed610ae3565b60405180821515815260200191505060405180910390f35b61040d610afa565b6040518080602001828103825283818151815260200191508051906020019060200280838360005b83811015610450578082015181840152602081019050610435565b505050509050019250505060405180910390f35b6104a66004803603602081101561047a57600080fd5b81019080803573ffffffffffffffffffffffffffffffffffffffff169060200190929190505050610bd2565b6040518082815260200191505060405180910390f35b6104c4610c1a565b005b610512600480360360408110156104dc57600080fd5b81019080803573ffffffffffffffffffffffffffffffffffffffff16906020019092919080359060200190929190505050610d8a565b005b61051c610dec565b604051808273ffffffffffffffffffffffffffffffffffffffff16815260200191505060405180910390f35b610550610e16565b6040518080602001828103825283818151815260200191508051906020019080838360005b83811015610590578082015181840152602081019050610575565b50505050905090810190601f1680156105bd5780820380516001836020036101000a031916815260200191505b509250505060405180910390f35b61060d600480360360208110156105e157600080fd5b81019080803573ffffffffffffffffffffffffffffffffffffffff169060200190929190505050610eb8565b005b610617610f73565b005b6106656004803603604081101561062f57600080fd5b81019080803573ffffffffffffffffffffffffffffffffffffffff16906020019092919080359060200190929190505050610f7e565b60405180821515815260200191505060405180910390f35b6106c96004803603604081101561069357600080fd5b81019080803573ffffffffffffffffffffffffffffffffffffffff1690602001909291908035906020019092919050505061104b565b60405180821515815260200191505060405180910390f35b610743600480360360408110156106f757600080fd5b81019080803573ffffffffffffffffffffffffffffffffffffffff169060200190929190803573ffffffffffffffffffffffffffffffffffffffff169060200190929190505050611069565b6040518082815260200191505060405180910390f35b61079b6004803603602081101561076f57600080fd5b81019080803573ffffffffffffffffffffffffffffffffffffffff1690602001909291905050506110f0565b005b606060038054600181600116156101000203166002900480601f0160208091040260200160405190810160405280929190818152602001828054600181600116156101000203166002900480156108355780601f1061080a57610100808354040283529160200191610835565b820191906000526020600020905b81548152906001019060200180831161081857829003601f168201915b5050505050905090565b600061085361084c611315565b848461131d565b6001905092915050565b6000600254905090565b6000610874848484611514565b61093584610880611315565b6109308560405180606001604052806028815260200161203160289139600160008b73ffffffffffffffffffffffffffffffffffffffff1673ffffffffffffffffffffffffffffffffffffffff16815260200190815260200160002060006108e6611315565b73ffffffffffffffffffffffffffffffffffffffff1673ffffffffffffffffffffffffffffffffffffffff168152602001908152602001600020546117d59092919063ffffffff16565b61131d565b600190509392505050565b610948611315565b73ffffffffffffffffffffffffffffffffffffffff16610966610dec565b73ffffffffffffffffffffffffffffffffffffffff16146109ef576040517f08c379a00000000000000000000000000000000000000000000000000000000081526004018080602001828103825260208152602001807f4f776e61626c653a2063616c6c6572206973206e6f7420746865206f776e657281525060200191505060405180910390fd5b6109f88161188f565b50565b6000600560009054906101000a900460ff16905090565b6000600654905090565b6000610ac5610a29611315565b84610ac08560016000610a3a611315565b73ffffffffffffffffffffffffffffffffffffffff1673ffffffffffffffffffffffffffffffffffffffff16815260200190815260200160002060008973ffffffffffffffffffffffffffffffffffffffff1673ffffffffffffffffffffffffffffffffffffffff168152602001908152602001600020546118a790919063ffffffff16565b61131d565b6001905092915050565b610ae0610ada611315565b8261192f565b50565b6000600560019054906101000a900460ff16905090565b606080610b076008611af3565b67ffffffffffffffff81118015610b1d57600080fd5b50604051908082528060200260200182016040528015610b4c5781602001602082028036833780820191505090505b50905060005b610b5c6008611af3565b811015610bca57610b77816008611b0890919063ffffffff16565b828281518110610b8357fe5b602002602001019073ffffffffffffffffffffffffffffffffffffffff16908173ffffffffffffffffffffffffffffffffffffffff16815250508080600101915050610b52565b508091505090565b60008060008373ffffffffffffffffffffffffffffffffffffffff1673ffffffffffffffffffffffffffffffffffffffff168152602001908152602001600020549050919050565b610c22611315565b73ffffffffffffffffffffffffffffffffffffffff16610c40610dec565b73ffffffffffffffffffffffffffffffffffffffff1614610cc9576040517f08c379a00000000000000000000000000000000000000000000000000000000081526004018080602001828103825260208152602001807f4f776e61626c653a2063616c6c6572206973206e6f7420746865206f776e657281525060200191505060405180910390fd5b600073ffffffffffffffffffffffffffffffffffffffff16600760009054906101000a900473ffffffffffffffffffffffffffffffffffffffff1673ffffffffffffffffffffffffffffffffffffffff167f8be0079c531659141344cd1fd0a4f28419497f9722a3daafe3b4186f6b6457e060405160405180910390a36000600760006101000a81548173ffffffffffffffffffffffffffffffffffffffff021916908373ffffffffffffffffffffffffffffffffffffffff160217905550565b6000610dc98260405180606001604052806024815260200161205960249139610dba86610db5611315565b611069565b6117d59092919063ffffffff16565b9050610ddd83610dd7611315565b8361131d565b610de7838361192f565b505050565b6000600760009054906101000a900473ffffffffffffffffffffffffffffffffffffffff16905090565b606060048054600181600116156101000203166002900480601f016020809104026020016040519081016040528092919081815260200182805460018160011615610100020316600290048015610eae5780601f10610e8357610100808354040283529160200191610eae565b820191906000526020600020905b815481529060010190602001808311610e9157829003601f168201915b5050505050905090565b610ec0611315565b73ffffffffffffffffffffffffffffffffffffffff16610ede610dec565b73ffffffffffffffffffffffffffffffffffffffff1614610f67576040517f08c379a00000000000000000000000000000000000000000000000000000000081526004018080602001828103825260208152602001807f4f776e61626c653a2063616c6c6572206973206e6f7420746865206f776e657281525060200191505060405180910390fd5b610f7081611b22565b50565b610f7c3361188f565b565b6000611041610f8b611315565b8461103c856040518060600160405280602581526020016120e76025913960016000610fb5611315565b73ffffffffffffffffffffffffffffffffffffffff1673ffffffffffffffffffffffffffffffffffffffff16815260200190815260200160002060008a73ffffffffffffffffffffffffffffffffffffffff1673ffffffffffffffffffffffffffffffffffffffff168152602001908152602001600020546117d59092919063ffffffff16565b61131d565b6001905092915050565b600061105f611058611315565b8484611514565b6001905092915050565b6000600160008473ffffffffffffffffffffffffffffffffffffffff1673ffffffffffffffffffffffffffffffffffffffff16815260200190815260200160002060008373ffffffffffffffffffffffffffffffffffffffff1673ffffffffffffffffffffffffffffffffffffffff16815260200190815260200160002054905092915050565b6110f8611315565b73ffffffffffffffffffffffffffffffffffffffff16611116610dec565b73ffffffffffffffffffffffffffffffffffffffff161461119f576040517f08c379a00000000000000000000000000000000000000000000000000000000081526004018080602001828103825260208152602001807f4f776e61626c653a2063616c6c6572206973206e6f7420746865206f776e657281525060200191505060405180910390fd5b600073ffffffffffffffffffffffffffffffffffffffff168173ffffffffffffffffffffffffffffffffffffffff161415611225576040517f08c379a0000000000000000000000000000000000000000000000000000000008152600401808060200182810382526026815260200180611fc36026913960400191505060405180910390fd5b8073ffffffffffffffffffffffffffffffffffffffff16600760009054906101000a900473ffffffffffffffffffffffffffffffffffffffff1673ffffffffffffffffffffffffffffffffffffffff167f8be0079c531659141344cd1fd0a4f28419497f9722a3daafe3b4186f6b6457e060405160405180910390a380600760006101000a81548173ffffffffffffffffffffffffffffffffffffffff021916908373ffffffffffffffffffffffffffffffffffffffff16021790555050565b600061130d836000018373ffffffffffffffffffffffffffffffffffffffff1660001b611b3a565b905092915050565b600033905090565b600073ffffffffffffffffffffffffffffffffffffffff168373ffffffffffffffffffffffffffffffffffffffff1614156113a3576040517f08c379a00000000000000000000000000000000000000000000000000000000081526004018080602001828103825260248152602001806120c36024913960400191505060405180910390fd5b600073ffffffffffffffffffffffffffffffffffffffff168273ffffffffffffffffffffffffffffffffffffffff161415611429576040517f08c379a0000000000000000000000000000000000000000000000000000000008152600401808060200182810382526022815260200180611fe96022913960400191505060405180910390fd5b80600160008573ffffffffffffffffffffffffffffffffffffffff1673ffffffffffffffffffffffffffffffffffffffff16815260200190815260200160002060008473ffffffffffffffffffffffffffffffffffffffff1673ffffffffffffffffffffffffffffffffffffffff168152602001908152602001600020819055508173ffffffffffffffffffffffffffffffffffffffff168373ffffffffffffffffffffffffffffffffffffffff167f8c5be1e5ebec7d5bd14f71427d1e84f3dd0314c0f7b2291e5b200ac8c7c3b925836040518082815260200191505060405180910390a3505050565b600073ffffffffffffffffffffffffffffffffffffffff168373ffffffffffffffffffffffffffffffffffffffff16141561159a576040517f08c379a000000000000000000000000000000000000000000000000000000000815260040180806020018281038252602581526020018061209e6025913960400191505060405180910390fd5b600073ffffffffffffffffffffffffffffffffffffffff168273ffffffffffffffffffffffffffffffffffffffff161415611620576040517f08c379a0000000000000000000000000000000000000000000000000000000008152600401808060200182810382526023815260200180611f7e6023913960400191505060405180910390fd5b61162b838383611baa565b6116968160405180606001604052806026815260200161200b602691396000808773ffffffffffffffffffffffffffffffffffffffff1673ffffffffffffffffffffffffffffffffffffffff168152602001908152602001600020546117d59092919063ffffffff16565b6000808573ffffffffffffffffffffffffffffffffffffffff1673ffffffffffffffffffffffffffffffffffffffff16815260200190815260200160002081905550611729816000808573ffffffffffffffffffffffffffffffffffffffff1673ffffffffffffffffffffffffffffffffffffffff168152602001908152602001600020546118a790919063ffffffff16565b6000808473ffffffffffffffffffffffffffffffffffffffff1673ffffffffffffffffffffffffffffffffffffffff168152602001908152602001600020819055508173ffffffffffffffffffffffffffffffffffffffff168373ffffffffffffffffffffffffffffffffffffffff167fddf252ad1be2c89b69c2b068fc378daa952ba7f163c4a11628f55a4df523b3ef836040518082815260200191505060405180910390a3505050565b6000838311158290611882576040517f08c379a00000000000000000000000000000000000000000000000000000000081526004018080602001828103825283818151815260200191508051906020019080838360005b8381101561184757808201518184015260208101905061182c565b50505050905090810190601f1680156118745780820380516001836020036101000a031916815260200191505b509250505060405180910390fd5b5082840390509392505050565b6118a3816008611bba90919063ffffffff16565b5050565b600080828401905083811015611925576040517f08c379a000000000000000000000000000000000000000000000000000000000815260040180806020018281038252601b8152602001807f536166654d6174683a206164646974696f6e206f766572666c6f77000000000081525060200191505060405180910390fd5b8091505092915050565b600073ffffffffffffffffffffffffffffffffffffffff168273ffffffffffffffffffffffffffffffffffffffff1614156119b5576040517f08c379a000000000000000000000000000000000000000000000000000000000815260040180806020018281038252602181526020018061207d6021913960400191505060405180910390fd5b6119c182600083611baa565b611a2c81604051806060016040528060228152602001611fa1602291396000808673ffffffffffffffffffffffffffffffffffffffff1673ffffffffffffffffffffffffffffffffffffffff168152602001908152602001600020546117d59092919063ffffffff16565b6000808473ffffffffffffffffffffffffffffffffffffffff1673ffffffffffffffffffffffffffffffffffffffff16815260200190815260200160002081905550611a8381600254611bea90919063ffffffff16565b600281905550600073ffffffffffffffffffffffffffffffffffffffff168273ffffffffffffffffffffffffffffffffffffffff167fddf252ad1be2c89b69c2b068fc378daa952ba7f163c4a11628f55a4df523b3ef836040518082815260200191505060405180910390a35050565b6000611b0182600001611c6d565b9050919050565b6000611b178360000183611c7e565b60001c905092915050565b611b368160086112e590919063ffffffff16565b5050565b6000611b468383611d01565b611b9f578260000182908060018154018082558091505060019003906000526020600020016000909190919091505582600001805490508360010160008481526020019081526020016000208190555060019050611ba4565b600090505b92915050565b611bb5838383611d24565b505050565b6000611be2836000018373ffffffffffffffffffffffffffffffffffffffff1660001b611e00565b905092915050565b600082821115611c62576040517f08c379a000000000000000000000000000000000000000000000000000000000815260040180806020018281038252601e8152602001807f536166654d6174683a207375627472616374696f6e206f766572666c6f77000081525060200191505060405180910390fd5b818303905092915050565b600081600001805490509050919050565b600081836000018054905011611cdf576040517f08c379a0000000000000000000000000000000000000000000000000000000008152600401808060200182810382526022815260200180611f5c6022913960400191505060405180910390fd5b826000018281548110611cee57fe5b9060005260206000200154905092915050565b600080836001016000848152602001908152602001600020541415905092915050565b611d2f838383611ee8565b600073ffffffffffffffffffffffffffffffffffffffff168373ffffffffffffffffffffffffffffffffffffffff161415611dfb57611d6c610a12565b611d8682611d7861085d565b6118a790919063ffffffff16565b1115611dfa576040517f08c379a00000000000000000000000000000000000000000000000000000000081526004018080602001828103825260198152602001807f45524332304361707065643a206361702065786365656465640000000000000081525060200191505060405180910390fd5b5b505050565b60008083600101600084815260200190815260200160002054905060008114611edc5760006001820390506000600186600001805490500390506000866000018281548110611e4b57fe5b9060005260206000200154905080876000018481548110611e6857fe5b9060005260206000200181905550600183018760010160008381526020019081526020016000208190555086600001805480611ea057fe5b60019003818190600052602060002001600090559055866001016000878152602001908152602001600020600090556001945050505050611ee2565b60009150505b92915050565b611ef3838383611f56565b611efb610ae3565b15611f51576040517f08c379a000000000000000000000000000000000000000000000000000000000815260040180806020018281038252602a81526020018061210c602a913960400191505060405180910390fd5b505050565b50505056fe456e756d657261626c655365743a20696e646578206f7574206f6620626f756e647345524332303a207472616e7366657220746f20746865207a65726f206164647265737345524332303a206275726e20616d6f756e7420657863656564732062616c616e63654f776e61626c653a206e6577206f776e657220697320746865207a65726f206164647265737345524332303a20617070726f766520746f20746865207a65726f206164647265737345524332303a207472616e7366657220616d6f756e7420657863656564732062616c616e636545524332303a207472616e7366657220616d6f756e74206578636565647320616c6c6f77616e636545524332303a206275726e20616d6f756e74206578636565647320616c6c6f77616e636545524332303a206275726e2066726f6d20746865207a65726f206164647265737345524332303a207472616e736665722066726f6d20746865207a65726f206164647265737345524332303a20617070726f76652066726f6d20746865207a65726f206164647265737345524332303a2064656372656173656420616c6c6f77616e63652062656c6f77207a65726f45524332305061757361626c653a20746f6b656e207472616e73666572207768696c6520706175736564a264697066735822122027f8c4a04ce8e91bca4f21e0e766a88f3443ee3d3bc5f0a8616416b57921374664736f6c634300060c0033",
					"opcodes": "PUSH1 0x80 PUSH1 0x40 MSTORE CALLVALUE DUP1 ISZERO PUSH3 0x11 JUMPI PUSH1 0x0 DUP1 REVERT JUMPDEST POP PUSH1 0x40 MLOAD PUSH3 0x2697 CODESIZE SUB DUP1 PUSH3 0x2697 DUP4 CODECOPY DUP2 DUP2 ADD PUSH1 0x40 MSTORE PUSH1 0x60 DUP2 LT ISZERO PUSH3 0x37 JUMPI PUSH1 0x0 DUP1 REVERT JUMPDEST DUP2 ADD SWAP1 DUP1 DUP1 MLOAD PUSH1 0x40 MLOAD SWAP4 SWAP3 SWAP2 SWAP1 DUP5 PUSH5 0x100000000 DUP3 GT ISZERO PUSH3 0x58 JUMPI PUSH1 0x0 DUP1 REVERT JUMPDEST DUP4 DUP3 ADD SWAP2 POP PUSH1 0x20 DUP3 ADD DUP6 DUP2 GT ISZERO PUSH3 0x6F JUMPI PUSH1 0x0 DUP1 REVERT JUMPDEST DUP3 MLOAD DUP7 PUSH1 0x1 DUP3 MUL DUP4 ADD GT PUSH5 0x100000000 DUP3 GT OR ISZERO PUSH3 0x8D JUMPI PUSH1 0x0 DUP1 REVERT JUMPDEST DUP1 DUP4 MSTORE PUSH1 0x20 DUP4 ADD SWAP3 POP POP POP SWAP1 DUP1 MLOAD SWAP1 PUSH1 0x20 ADD SWAP1 DUP1 DUP4 DUP4 PUSH1 0x0 JUMPDEST DUP4 DUP2 LT ISZERO PUSH3 0xC3 JUMPI DUP1 DUP3 ADD MLOAD DUP2 DUP5 ADD MSTORE PUSH1 0x20 DUP2 ADD SWAP1 POP PUSH3 0xA6 JUMP JUMPDEST POP POP POP POP SWAP1 POP SWAP1 DUP2 ADD SWAP1 PUSH1 0x1F AND DUP1 ISZERO PUSH3 0xF1 JUMPI DUP1 DUP3 SUB DUP1 MLOAD PUSH1 0x1 DUP4 PUSH1 0x20 SUB PUSH2 0x100 EXP SUB NOT AND DUP2 MSTORE PUSH1 0x20 ADD SWAP2 POP JUMPDEST POP PUSH1 0x40 MSTORE PUSH1 0x20 ADD DUP1 MLOAD PUSH1 0x40 MLOAD SWAP4 SWAP3 SWAP2 SWAP1 DUP5 PUSH5 0x100000000 DUP3 GT ISZERO PUSH3 0x115 JUMPI PUSH1 0x0 DUP1 REVERT JUMPDEST DUP4 DUP3 ADD SWAP2 POP PUSH1 0x20 DUP3 ADD DUP6 DUP2 GT ISZERO PUSH3 0x12C JUMPI PUSH1 0x0 DUP1 REVERT JUMPDEST DUP3 MLOAD DUP7 PUSH1 0x1 DUP3 MUL DUP4 ADD GT PUSH5 0x100000000 DUP3 GT OR ISZERO PUSH3 0x14A JUMPI PUSH1 0x0 DUP1 REVERT JUMPDEST DUP1 DUP4 MSTORE PUSH1 0x20 DUP4 ADD SWAP3 POP POP POP SWAP1 DUP1 MLOAD SWAP1 PUSH1 0x20 ADD SWAP1 DUP1 DUP4 DUP4 PUSH1 0x0 JUMPDEST DUP4 DUP2 LT ISZERO PUSH3 0x180 JUMPI DUP1 DUP3 ADD MLOAD DUP2 DUP5 ADD MSTORE PUSH1 0x20 DUP2 ADD SWAP1 POP PUSH3 0x163 JUMP JUMPDEST POP POP POP POP SWAP1 POP SWAP1 DUP2 ADD SWAP1 PUSH1 0x1F AND DUP1 ISZERO PUSH3 0x1AE JUMPI DUP1 DUP3 SUB DUP1 MLOAD PUSH1 0x1 DUP4 PUSH1 0x20 SUB PUSH2 0x100 EXP SUB NOT AND DUP2 MSTORE PUSH1 0x20 ADD SWAP2 POP JUMPDEST POP PUSH1 0x40 MSTORE PUSH1 0x20 ADD DUP1 MLOAD SWAP1 PUSH1 0x20 ADD SWAP1 SWAP3 SWAP2 SWAP1 POP POP POP DUP1 DUP4 DUP4 DUP2 PUSH1 0x3 SWAP1 DUP1 MLOAD SWAP1 PUSH1 0x20 ADD SWAP1 PUSH3 0x1DD SWAP3 SWAP2 SWAP1 PUSH3 0x476 JUMP JUMPDEST POP DUP1 PUSH1 0x4 SWAP1 DUP1 MLOAD SWAP1 PUSH1 0x20 ADD SWAP1 PUSH3 0x1F6 SWAP3 SWAP2 SWAP1 PUSH3 0x476 JUMP JUMPDEST POP PUSH1 0x12 PUSH1 0x5 PUSH1 0x0 PUSH2 0x100 EXP DUP2 SLOAD DUP2 PUSH1 0xFF MUL NOT AND SWAP1 DUP4 PUSH1 0xFF AND MUL OR SWAP1 SSTORE POP POP POP PUSH1 0x0 PUSH1 0x5 PUSH1 0x1 PUSH2 0x100 EXP DUP2 SLOAD DUP2 PUSH1 0xFF MUL NOT AND SWAP1 DUP4 ISZERO ISZERO MUL OR SWAP1 SSTORE POP PUSH1 0x0 DUP2 GT PUSH3 0x2A7 JUMPI PUSH1 0x40 MLOAD PUSH32 0x8C379A000000000000000000000000000000000000000000000000000000000 DUP2 MSTORE PUSH1 0x4 ADD DUP1 DUP1 PUSH1 0x20 ADD DUP3 DUP2 SUB DUP3 MSTORE PUSH1 0x15 DUP2 MSTORE PUSH1 0x20 ADD DUP1 PUSH32 0x45524332304361707065643A2063617020697320300000000000000000000000 DUP2 MSTORE POP PUSH1 0x20 ADD SWAP2 POP POP PUSH1 0x40 MLOAD DUP1 SWAP2 SUB SWAP1 REVERT JUMPDEST DUP1 PUSH1 0x6 DUP2 SWAP1 SSTORE POP POP PUSH1 0x0 PUSH3 0x2C1 PUSH3 0x37A PUSH1 0x20 SHL PUSH1 0x20 SHR JUMP JUMPDEST SWAP1 POP DUP1 PUSH1 0x7 PUSH1 0x0 PUSH2 0x100 EXP DUP2 SLOAD DUP2 PUSH20 0xFFFFFFFFFFFFFFFFFFFFFFFFFFFFFFFFFFFFFFFF MUL NOT AND SWAP1 DUP4 PUSH20 0xFFFFFFFFFFFFFFFFFFFFFFFFFFFFFFFFFFFFFFFF AND MUL OR SWAP1 SSTORE POP DUP1 PUSH20 0xFFFFFFFFFFFFFFFFFFFFFFFFFFFFFFFFFFFFFFFF AND PUSH1 0x0 PUSH20 0xFFFFFFFFFFFFFFFFFFFFFFFFFFFFFFFFFFFFFFFF AND PUSH32 0x8BE0079C531659141344CD1FD0A4F28419497F9722A3DAAFE3B4186F6B6457E0 PUSH1 0x40 MLOAD PUSH1 0x40 MLOAD DUP1 SWAP2 SUB SWAP1 LOG3 POP PUSH3 0x371 CALLER PUSH3 0x382 PUSH1 0x20 SHL PUSH1 0x20 SHR JUMP JUMPDEST POP POP POP PUSH3 0x51C JUMP JUMPDEST PUSH1 0x0 CALLER SWAP1 POP SWAP1 JUMP JUMPDEST PUSH3 0x39D DUP2 PUSH1 0x8 PUSH3 0x3A1 PUSH1 0x20 SHL PUSH3 0x12E5 OR SWAP1 SWAP2 SWAP1 PUSH1 0x20 SHR JUMP JUMPDEST POP POP JUMP JUMPDEST PUSH1 0x0 PUSH3 0x3D1 DUP4 PUSH1 0x0 ADD DUP4 PUSH20 0xFFFFFFFFFFFFFFFFFFFFFFFFFFFFFFFFFFFFFFFF AND PUSH1 0x0 SHL PUSH3 0x3D9 PUSH1 0x20 SHL PUSH1 0x20 SHR JUMP JUMPDEST SWAP1 POP SWAP3 SWAP2 POP POP JUMP JUMPDEST PUSH1 0x0 PUSH3 0x3ED DUP4 DUP4 PUSH3 0x453 PUSH1 0x20 SHL PUSH1 0x20 SHR JUMP JUMPDEST PUSH3 0x448 JUMPI DUP3 PUSH1 0x0 ADD DUP3 SWAP1 DUP1 PUSH1 0x1 DUP2 SLOAD ADD DUP1 DUP3 SSTORE DUP1 SWAP2 POP POP PUSH1 0x1 SWAP1 SUB SWAP1 PUSH1 0x0 MSTORE PUSH1 0x20 PUSH1 0x0 KECCAK256 ADD PUSH1 0x0 SWAP1 SWAP2 SWAP1 SWAP2 SWAP1 SWAP2 POP SSTORE DUP3 PUSH1 0x0 ADD DUP1 SLOAD SWAP1 POP DUP4 PUSH1 0x1 ADD PUSH1 0x0 DUP5 DUP2 MSTORE PUSH1 0x20 ADD SWAP1 DUP2 MSTORE PUSH1 0x20 ADD PUSH1 0x0 KECCAK256 DUP2 SWAP1 SSTORE POP PUSH1 0x1 SWAP1 POP PUSH3 0x44D JUMP JUMPDEST PUSH1 0x0 SWAP1 POP JUMPDEST SWAP3 SWAP2 POP POP JUMP JUMPDEST PUSH1 0x0 DUP1 DUP4 PUSH1 0x1 ADD PUSH1 0x0 DUP5 DUP2 MSTORE PUSH1 0x20 ADD SWAP1 DUP2 MSTORE PUSH1 0x20 ADD PUSH1 0x0 KECCAK256 SLOAD EQ ISZERO SWAP1 POP SWAP3 SWAP2 POP POP JUMP JUMPDEST DUP3 DUP1 SLOAD PUSH1 0x1 DUP2 PUSH1 0x1 AND ISZERO PUSH2 0x100 MUL SUB AND PUSH1 0x2 SWAP1 DIV SWAP1 PUSH1 0x0 MSTORE PUSH1 0x20 PUSH1 0x0 KECCAK256 SWAP1 PUSH1 0x1F ADD PUSH1 0x20 SWAP1 DIV DUP2 ADD SWAP3 DUP3 PUSH1 0x1F LT PUSH3 0x4B9 JUMPI DUP1 MLOAD PUSH1 0xFF NOT AND DUP4 DUP1 ADD OR DUP6 SSTORE PUSH3 0x4EA JUMP JUMPDEST DUP3 DUP1 ADD PUSH1 0x1 ADD DUP6 SSTORE DUP3 ISZERO PUSH3 0x4EA JUMPI SWAP2 DUP3 ADD JUMPDEST DUP3 DUP2 GT ISZERO PUSH3 0x4E9 JUMPI DUP3 MLOAD DUP3 SSTORE SWAP2 PUSH1 0x20 ADD SWAP2 SWAP1 PUSH1 0x1 ADD SWAP1 PUSH3 0x4CC JUMP JUMPDEST JUMPDEST POP SWAP1 POP PUSH3 0x4F9 SWAP2 SWAP1 PUSH3 0x4FD JUMP JUMPDEST POP SWAP1 JUMP JUMPDEST JUMPDEST DUP1 DUP3 GT ISZERO PUSH3 0x518 JUMPI PUSH1 0x0 DUP2 PUSH1 0x0 SWAP1 SSTORE POP PUSH1 0x1 ADD PUSH3 0x4FE JUMP JUMPDEST POP SWAP1 JUMP JUMPDEST PUSH2 0x216B DUP1 PUSH3 0x52C PUSH1 0x0 CODECOPY PUSH1 0x0 RETURN INVALID PUSH1 0x80 PUSH1 0x40 MSTORE CALLVALUE DUP1 ISZERO PUSH2 0x10 JUMPI PUSH1 0x0 DUP1 REVERT JUMPDEST POP PUSH1 0x4 CALLDATASIZE LT PUSH2 0x142 JUMPI PUSH1 0x0 CALLDATALOAD PUSH1 0xE0 SHR DUP1 PUSH4 0x70A08231 GT PUSH2 0xB8 JUMPI DUP1 PUSH4 0x983B2D56 GT PUSH2 0x7C JUMPI DUP1 PUSH4 0x983B2D56 EQ PUSH2 0x5CB JUMPI DUP1 PUSH4 0x98650275 EQ PUSH2 0x60F JUMPI DUP1 PUSH4 0xA457C2D7 EQ PUSH2 0x619 JUMPI DUP1 PUSH4 0xA9059CBB EQ PUSH2 0x67D JUMPI DUP1 PUSH4 0xDD62ED3E EQ PUSH2 0x6E1 JUMPI DUP1 PUSH4 0xF2FDE38B EQ PUSH2 0x759 JUMPI PUSH2 0x142 JUMP JUMPDEST DUP1 PUSH4 0x70A08231 EQ PUSH2 0x464 JUMPI DUP1 PUSH4 0x715018A6 EQ PUSH2 0x4BC JUMPI DUP1 PUSH4 0x79CC6790 EQ PUSH2 0x4C6 JUMPI DUP1 PUSH4 0x8DA5CB5B EQ PUSH2 0x514 JUMPI DUP1 PUSH4 0x95D89B41 EQ PUSH2 0x548 JUMPI PUSH2 0x142 JUMP JUMPDEST DUP1 PUSH4 0x313CE567 GT PUSH2 0x10A JUMPI DUP1 PUSH4 0x313CE567 EQ PUSH2 0x314 JUMPI DUP1 PUSH4 0x355274EA EQ PUSH2 0x335 JUMPI DUP1 PUSH4 0x39509351 EQ PUSH2 0x353 JUMPI DUP1 PUSH4 0x42966C68 EQ PUSH2 0x3B7 JUMPI DUP1 PUSH4 0x5C975ABB EQ PUSH2 0x3E5 JUMPI DUP1 PUSH4 0x6B32810B EQ PUSH2 0x405 JUMPI PUSH2 0x142 JUMP JUMPDEST DUP1 PUSH4 0x6FDDE03 EQ PUSH2 0x147 JUMPI DUP1 PUSH4 0x95EA7B3 EQ PUSH2 0x1CA JUMPI DUP1 PUSH4 0x18160DDD EQ PUSH2 0x22E JUMPI DUP1 PUSH4 0x23B872DD EQ PUSH2 0x24C JUMPI DUP1 PUSH4 0x3092AFD5 EQ PUSH2 0x2D0 JUMPI JUMPDEST PUSH1 0x0 DUP1 REVERT JUMPDEST PUSH2 0x14F PUSH2 0x79D JUMP JUMPDEST PUSH1 0x40 MLOAD DUP1 DUP1 PUSH1 0x20 ADD DUP3 DUP2 SUB DUP3 MSTORE DUP4 DUP2 DUP2 MLOAD DUP2 MSTORE PUSH1 0x20 ADD SWAP2 POP DUP1 MLOAD SWAP1 PUSH1 0x20 ADD SWAP1 DUP1 DUP4 DUP4 PUSH1 0x0 JUMPDEST DUP4 DUP2 LT ISZERO PUSH2 0x18F JUMPI DUP1 DUP3 ADD MLOAD DUP2 DUP5 ADD MSTORE PUSH1 0x20 DUP2 ADD SWAP1 POP PUSH2 0x174 JUMP JUMPDEST POP POP POP POP SWAP1 POP SWAP1 DUP2 ADD SWAP1 PUSH1 0x1F AND DUP1 ISZERO PUSH2 0x1BC JUMPI DUP1 DUP3 SUB DUP1 MLOAD PUSH1 0x1 DUP4 PUSH1 0x20 SUB PUSH2 0x100 EXP SUB NOT AND DUP2 MSTORE PUSH1 0x20 ADD SWAP2 POP JUMPDEST POP SWAP3 POP POP POP PUSH1 0x40 MLOAD DUP1 SWAP2 SUB SWAP1 RETURN JUMPDEST PUSH2 0x216 PUSH1 0x4 DUP1 CALLDATASIZE SUB PUSH1 0x40 DUP2 LT ISZERO PUSH2 0x1E0 JUMPI PUSH1 0x0 DUP1 REVERT JUMPDEST DUP2 ADD SWAP1 DUP1 DUP1 CALLDATALOAD PUSH20 0xFFFFFFFFFFFFFFFFFFFFFFFFFFFFFFFFFFFFFFFF AND SWAP1 PUSH1 0x20 ADD SWAP1 SWAP3 SWAP2 SWAP1 DUP1 CALLDATALOAD SWAP1 PUSH1 0x20 ADD SWAP1 SWAP3 SWAP2 SWAP1 POP POP POP PUSH2 0x83F JUMP JUMPDEST PUSH1 0x40 MLOAD DUP1 DUP3 ISZERO ISZERO DUP2 MSTORE PUSH1 0x20 ADD SWAP2 POP POP PUSH1 0x40 MLOAD DUP1 SWAP2 SUB SWAP1 RETURN JUMPDEST PUSH2 0x236 PUSH2 0x85D JUMP JUMPDEST PUSH1 0x40 MLOAD DUP1 DUP3 DUP2 MSTORE PUSH1 0x20 ADD SWAP2 POP POP PUSH1 0x40 MLOAD DUP1 SWAP2 SUB SWAP1 RETURN JUMPDEST PUSH2 0x2B8 PUSH1 0x4 DUP1 CALLDATASIZE SUB PUSH1 0x60 DUP2 LT ISZERO PUSH2 0x262 JUMPI PUSH1 0x0 DUP1 REVERT JUMPDEST DUP2 ADD SWAP1 DUP1 DUP1 CALLDATALOAD PUSH20 0xFFFFFFFFFFFFFFFFFFFFFFFFFFFFFFFFFFFFFFFF AND SWAP1 PUSH1 0x20 ADD SWAP1 SWAP3 SWAP2 SWAP1 DUP1 CALLDATALOAD PUSH20 0xFFFFFFFFFFFFFFFFFFFFFFFFFFFFFFFFFFFFFFFF AND SWAP1 PUSH1 0x20 ADD SWAP1 SWAP3 SWAP2 SWAP1 DUP1 CALLDATALOAD SWAP1 PUSH1 0x20 ADD SWAP1 SWAP3 SWAP2 SWAP1 POP POP POP PUSH2 0x867 JUMP JUMPDEST PUSH1 0x40 MLOAD DUP1 DUP3 ISZERO ISZERO DUP2 MSTORE PUSH1 0x20 ADD SWAP2 POP POP PUSH1 0x40 MLOAD DUP1 SWAP2 SUB SWAP1 RETURN JUMPDEST PUSH2 0x312 PUSH1 0x4 DUP1 CALLDATASIZE SUB PUSH1 0x20 DUP2 LT ISZERO PUSH2 0x2E6 JUMPI PUSH1 0x0 DUP1 REVERT JUMPDEST DUP2 ADD SWAP1 DUP1 DUP1 CALLDATALOAD PUSH20 0xFFFFFFFFFFFFFFFFFFFFFFFFFFFFFFFFFFFFFFFF AND SWAP1 PUSH1 0x20 ADD SWAP1 SWAP3 SWAP2 SWAP1 POP POP POP PUSH2 0x940 JUMP JUMPDEST STOP JUMPDEST PUSH2 0x31C PUSH2 0x9FB JUMP JUMPDEST PUSH1 0x40 MLOAD DUP1 DUP3 PUSH1 0xFF AND DUP2 MSTORE PUSH1 0x20 ADD SWAP2 POP POP PUSH1 0x40 MLOAD DUP1 SWAP2 SUB SWAP1 RETURN JUMPDEST PUSH2 0x33D PUSH2 0xA12 JUMP JUMPDEST PUSH1 0x40 MLOAD DUP1 DUP3 DUP2 MSTORE PUSH1 0x20 ADD SWAP2 POP POP PUSH1 0x40 MLOAD DUP1 SWAP2 SUB SWAP1 RETURN JUMPDEST PUSH2 0x39F PUSH1 0x4 DUP1 CALLDATASIZE SUB PUSH1 0x40 DUP2 LT ISZERO PUSH2 0x369 JUMPI PUSH1 0x0 DUP1 REVERT JUMPDEST DUP2 ADD SWAP1 DUP1 DUP1 CALLDATALOAD PUSH20 0xFFFFFFFFFFFFFFFFFFFFFFFFFFFFFFFFFFFFFFFF AND SWAP1 PUSH1 0x20 ADD SWAP1 SWAP3 SWAP2 SWAP1 DUP1 CALLDATALOAD SWAP1 PUSH1 0x20 ADD SWAP1 SWAP3 SWAP2 SWAP1 POP POP POP PUSH2 0xA1C JUMP JUMPDEST PUSH1 0x40 MLOAD DUP1 DUP3 ISZERO ISZERO DUP2 MSTORE PUSH1 0x20 ADD SWAP2 POP POP PUSH1 0x40 MLOAD DUP1 SWAP2 SUB SWAP1 RETURN JUMPDEST PUSH2 0x3E3 PUSH1 0x4 DUP1 CALLDATASIZE SUB PUSH1 0x20 DUP2 LT ISZERO PUSH2 0x3CD JUMPI PUSH1 0x0 DUP1 REVERT JUMPDEST DUP2 ADD SWAP1 DUP1 DUP1 CALLDATALOAD SWAP1 PUSH1 0x20 ADD SWAP1 SWAP3 SWAP2 SWAP1 POP POP POP PUSH2 0xACF JUMP JUMPDEST STOP JUMPDEST PUSH2 0x3ED PUSH2 0xAE3 JUMP JUMPDEST PUSH1 0x40 MLOAD DUP1 DUP3 ISZERO ISZERO DUP2 MSTORE PUSH1 0x20 ADD SWAP2 POP POP PUSH1 0x40 MLOAD DUP1 SWAP2 SUB SWAP1 RETURN JUMPDEST PUSH2 0x40D PUSH2 0xAFA JUMP JUMPDEST PUSH1 0x40 MLOAD DUP1 DUP1 PUSH1 0x20 ADD DUP3 DUP2 SUB DUP3 MSTORE DUP4 DUP2 DUP2 MLOAD DUP2 MSTORE PUSH1 0x20 ADD SWAP2 POP DUP1 MLOAD SWAP1 PUSH1 0x20 ADD SWAP1 PUSH1 0x20 MUL DUP1 DUP4 DUP4 PUSH1 0x0 JUMPDEST DUP4 DUP2 LT ISZERO PUSH2 0x450 JUMPI DUP1 DUP3 ADD MLOAD DUP2 DUP5 ADD MSTORE PUSH1 0x20 DUP2 ADD SWAP1 POP PUSH2 0x435 JUMP JUMPDEST POP POP POP POP SWAP1 POP ADD SWAP3 POP POP POP PUSH1 0x40 MLOAD DUP1 SWAP2 SUB SWAP1 RETURN JUMPDEST PUSH2 0x4A6 PUSH1 0x4 DUP1 CALLDATASIZE SUB PUSH1 0x20 DUP2 LT ISZERO PUSH2 0x47A JUMPI PUSH1 0x0 DUP1 REVERT JUMPDEST DUP2 ADD SWAP1 DUP1 DUP1 CALLDATALOAD PUSH20 0xFFFFFFFFFFFFFFFFFFFFFFFFFFFFFFFFFFFFFFFF AND SWAP1 PUSH1 0x20 ADD SWAP1 SWAP3 SWAP2 SWAP1 POP POP POP PUSH2 0xBD2 JUMP JUMPDEST PUSH1 0x40 MLOAD DUP1 DUP3 DUP2 MSTORE PUSH1 0x20 ADD SWAP2 POP POP PUSH1 0x40 MLOAD DUP1 SWAP2 SUB SWAP1 RETURN JUMPDEST PUSH2 0x4C4 PUSH2 0xC1A JUMP JUMPDEST STOP JUMPDEST PUSH2 0x512 PUSH1 0x4 DUP1 CALLDATASIZE SUB PUSH1 0x40 DUP2 LT ISZERO PUSH2 0x4DC JUMPI PUSH1 0x0 DUP1 REVERT JUMPDEST DUP2 ADD SWAP1 DUP1 DUP1 CALLDATALOAD PUSH20 0xFFFFFFFFFFFFFFFFFFFFFFFFFFFFFFFFFFFFFFFF AND SWAP1 PUSH1 0x20 ADD SWAP1 SWAP3 SWAP2 SWAP1 DUP1 CALLDATALOAD SWAP1 PUSH1 0x20 ADD SWAP1 SWAP3 SWAP2 SWAP1 POP POP POP PUSH2 0xD8A JUMP JUMPDEST STOP JUMPDEST PUSH2 0x51C PUSH2 0xDEC JUMP JUMPDEST PUSH1 0x40 MLOAD DUP1 DUP3 PUSH20 0xFFFFFFFFFFFFFFFFFFFFFFFFFFFFFFFFFFFFFFFF AND DUP2 MSTORE PUSH1 0x20 ADD SWAP2 POP POP PUSH1 0x40 MLOAD DUP1 SWAP2 SUB SWAP1 RETURN JUMPDEST PUSH2 0x550 PUSH2 0xE16 JUMP JUMPDEST PUSH1 0x40 MLOAD DUP1 DUP1 PUSH1 0x20 ADD DUP3 DUP2 SUB DUP3 MSTORE DUP4 DUP2 DUP2 MLOAD DUP2 MSTORE PUSH1 0x20 ADD SWAP2 POP DUP1 MLOAD SWAP1 PUSH1 0x20 ADD SWAP1 DUP1 DUP4 DUP4 PUSH1 0x0 JUMPDEST DUP4 DUP2 LT ISZERO PUSH2 0x590 JUMPI DUP1 DUP3 ADD MLOAD DUP2 DUP5 ADD MSTORE PUSH1 0x20 DUP2 ADD SWAP1 POP PUSH2 0x575 JUMP JUMPDEST POP POP POP POP SWAP1 POP SWAP1 DUP2 ADD SWAP1 PUSH1 0x1F AND DUP1 ISZERO PUSH2 0x5BD JUMPI DUP1 DUP3 SUB DUP1 MLOAD PUSH1 0x1 DUP4 PUSH1 0x20 SUB PUSH2 0x100 EXP SUB NOT AND DUP2 MSTORE PUSH1 0x20 ADD SWAP2 POP JUMPDEST POP SWAP3 POP POP POP PUSH1 0x40 MLOAD DUP1 SWAP2 SUB SWAP1 RETURN JUMPDEST PUSH2 0x60D PUSH1 0x4 DUP1 CALLDATASIZE SUB PUSH1 0x20 DUP2 LT ISZERO PUSH2 0x5E1 JUMPI PUSH1 0x0 DUP1 REVERT JUMPDEST DUP2 ADD SWAP1 DUP1 DUP1 CALLDATALOAD PUSH20 0xFFFFFFFFFFFFFFFFFFFFFFFFFFFFFFFFFFFFFFFF AND SWAP1 PUSH1 0x20 ADD SWAP1 SWAP3 SWAP2 SWAP1 POP POP POP PUSH2 0xEB8 JUMP JUMPDEST STOP JUMPDEST PUSH2 0x617 PUSH2 0xF73 JUMP JUMPDEST STOP JUMPDEST PUSH2 0x665 PUSH1 0x4 DUP1 CALLDATASIZE SUB PUSH1 0x40 DUP2 LT ISZERO PUSH2 0x62F JUMPI PUSH1 0x0 DUP1 REVERT JUMPDEST DUP2 ADD SWAP1 DUP1 DUP1 CALLDATALOAD PUSH20 0xFFFFFFFFFFFFFFFFFFFFFFFFFFFFFFFFFFFFFFFF AND SWAP1 PUSH1 0x20 ADD SWAP1 SWAP3 SWAP2 SWAP1 DUP1 CALLDATALOAD SWAP1 PUSH1 0x20 ADD SWAP1 SWAP3 SWAP2 SWAP1 POP POP POP PUSH2 0xF7E JUMP JUMPDEST PUSH1 0x40 MLOAD DUP1 DUP3 ISZERO ISZERO DUP2 MSTORE PUSH1 0x20 ADD SWAP2 POP POP PUSH1 0x40 MLOAD DUP1 SWAP2 SUB SWAP1 RETURN JUMPDEST PUSH2 0x6C9 PUSH1 0x4 DUP1 CALLDATASIZE SUB PUSH1 0x40 DUP2 LT ISZERO PUSH2 0x693 JUMPI PUSH1 0x0 DUP1 REVERT JUMPDEST DUP2 ADD SWAP1 DUP1 DUP1 CALLDATALOAD PUSH20 0xFFFFFFFFFFFFFFFFFFFFFFFFFFFFFFFFFFFFFFFF AND SWAP1 PUSH1 0x20 ADD SWAP1 SWAP3 SWAP2 SWAP1 DUP1 CALLDATALOAD SWAP1 PUSH1 0x20 ADD SWAP1 SWAP3 SWAP2 SWAP1 POP POP POP PUSH2 0x104B JUMP JUMPDEST PUSH1 0x40 MLOAD DUP1 DUP3 ISZERO ISZERO DUP2 MSTORE PUSH1 0x20 ADD SWAP2 POP POP PUSH1 0x40 MLOAD DUP1 SWAP2 SUB SWAP1 RETURN JUMPDEST PUSH2 0x743 PUSH1 0x4 DUP1 CALLDATASIZE SUB PUSH1 0x40 DUP2 LT ISZERO PUSH2 0x6F7 JUMPI PUSH1 0x0 DUP1 REVERT JUMPDEST DUP2 ADD SWAP1 DUP1 DUP1 CALLDATALOAD PUSH20 0xFFFFFFFFFFFFFFFFFFFFFFFFFFFFFFFFFFFFFFFF AND SWAP1 PUSH1 0x20 ADD SWAP1 SWAP3 SWAP2 SWAP1 DUP1 CALLDATALOAD PUSH20 0xFFFFFFFFFFFFFFFFFFFFFFFFFFFFFFFFFFFFFFFF AND SWAP1 PUSH1 0x20 ADD SWAP1 SWAP3 SWAP2 SWAP1 POP POP POP PUSH2 0x1069 JUMP JUMPDEST PUSH1 0x40 MLOAD DUP1 DUP3 DUP2 MSTORE PUSH1 0x20 ADD SWAP2 POP POP PUSH1 0x40 MLOAD DUP1 SWAP2 SUB SWAP1 RETURN JUMPDEST PUSH2 0x79B PUSH1 0x4 DUP1 CALLDATASIZE SUB PUSH1 0x20 DUP2 LT ISZERO PUSH2 0x76F JUMPI PUSH1 0x0 DUP1 REVERT JUMPDEST DUP2 ADD SWAP1 DUP1 DUP1 CALLDATALOAD PUSH20 0xFFFFFFFFFFFFFFFFFFFFFFFFFFFFFFFFFFFFFFFF AND SWAP1 PUSH1 0x20 ADD SWAP1 SWAP3 SWAP2 SWAP1 POP POP POP PUSH2 0x10F0 JUMP JUMPDEST STOP JUMPDEST PUSH1 0x60 PUSH1 0x3 DUP1 SLOAD PUSH1 0x1 DUP2 PUSH1 0x1 AND ISZERO PUSH2 0x100 MUL SUB AND PUSH1 0x2 SWAP1 DIV DUP1 PUSH1 0x1F ADD PUSH1 0x20 DUP1 SWAP2 DIV MUL PUSH1 0x20 ADD PUSH1 0x40 MLOAD SWAP1 DUP2 ADD PUSH1 0x40 MSTORE DUP1 SWAP3 SWAP2 SWAP1 DUP2 DUP2 MSTORE PUSH1 0x20 ADD DUP3 DUP1 SLOAD PUSH1 0x1 DUP2 PUSH1 0x1 AND ISZERO PUSH2 0x100 MUL SUB AND PUSH1 0x2 SWAP1 DIV DUP1 ISZERO PUSH2 0x835 JUMPI DUP1 PUSH1 0x1F LT PUSH2 0x80A JUMPI PUSH2 0x100 DUP1 DUP4 SLOAD DIV MUL DUP4 MSTORE SWAP2 PUSH1 0x20 ADD SWAP2 PUSH2 0x835 JUMP JUMPDEST DUP3 ADD SWAP2 SWAP1 PUSH1 0x0 MSTORE PUSH1 0x20 PUSH1 0x0 KECCAK256 SWAP1 JUMPDEST DUP2 SLOAD DUP2 MSTORE SWAP1 PUSH1 0x1 ADD SWAP1 PUSH1 0x20 ADD DUP1 DUP4 GT PUSH2 0x818 JUMPI DUP3 SWAP1 SUB PUSH1 0x1F AND DUP3 ADD SWAP2 JUMPDEST POP POP POP POP POP SWAP1 POP SWAP1 JUMP JUMPDEST PUSH1 0x0 PUSH2 0x853 PUSH2 0x84C PUSH2 0x1315 JUMP JUMPDEST DUP5 DUP5 PUSH2 0x131D JUMP JUMPDEST PUSH1 0x1 SWAP1 POP SWAP3 SWAP2 POP POP JUMP JUMPDEST PUSH1 0x0 PUSH1 0x2 SLOAD SWAP1 POP SWAP1 JUMP JUMPDEST PUSH1 0x0 PUSH2 0x874 DUP5 DUP5 DUP5 PUSH2 0x1514 JUMP JUMPDEST PUSH2 0x935 DUP5 PUSH2 0x880 PUSH2 0x1315 JUMP JUMPDEST PUSH2 0x930 DUP6 PUSH1 0x40 MLOAD DUP1 PUSH1 0x60 ADD PUSH1 0x40 MSTORE DUP1 PUSH1 0x28 DUP2 MSTORE PUSH1 0x20 ADD PUSH2 0x2031 PUSH1 0x28 SWAP2 CODECOPY PUSH1 0x1 PUSH1 0x0 DUP12 PUSH20 0xFFFFFFFFFFFFFFFFFFFFFFFFFFFFFFFFFFFFFFFF AND PUSH20 0xFFFFFFFFFFFFFFFFFFFFFFFFFFFFFFFFFFFFFFFF AND DUP2 MSTORE PUSH1 0x20 ADD SWAP1 DUP2 MSTORE PUSH1 0x20 ADD PUSH1 0x0 KECCAK256 PUSH1 0x0 PUSH2 0x8E6 PUSH2 0x1315 JUMP JUMPDEST PUSH20 0xFFFFFFFFFFFFFFFFFFFFFFFFFFFFFFFFFFFFFFFF AND PUSH20 0xFFFFFFFFFFFFFFFFFFFFFFFFFFFFFFFFFFFFFFFF AND DUP2 MSTORE PUSH1 0x20 ADD SWAP1 DUP2 MSTORE PUSH1 0x20 ADD PUSH1 0x0 KECCAK256 SLOAD PUSH2 0x17D5 SWAP1 SWAP3 SWAP2 SWAP1 PUSH4 0xFFFFFFFF AND JUMP JUMPDEST PUSH2 0x131D JUMP JUMPDEST PUSH1 0x1 SWAP1 POP SWAP4 SWAP3 POP POP POP JUMP JUMPDEST PUSH2 0x948 PUSH2 0x1315 JUMP JUMPDEST PUSH20 0xFFFFFFFFFFFFFFFFFFFFFFFFFFFFFFFFFFFFFFFF AND PUSH2 0x966 PUSH2 0xDEC JUMP JUMPDEST PUSH20 0xFFFFFFFFFFFFFFFFFFFFFFFFFFFFFFFFFFFFFFFF AND EQ PUSH2 0x9EF JUMPI PUSH1 0x40 MLOAD PUSH32 0x8C379A000000000000000000000000000000000000000000000000000000000 DUP2 MSTORE PUSH1 0x4 ADD DUP1 DUP1 PUSH1 0x20 ADD DUP3 DUP2 SUB DUP3 MSTORE PUSH1 0x20 DUP2 MSTORE PUSH1 0x20 ADD DUP1 PUSH32 0x4F776E61626C653A2063616C6C6572206973206E6F7420746865206F776E6572 DUP2 MSTORE POP PUSH1 0x20 ADD SWAP2 POP POP PUSH1 0x40 MLOAD DUP1 SWAP2 SUB SWAP1 REVERT JUMPDEST PUSH2 0x9F8 DUP2 PUSH2 0x188F JUMP JUMPDEST POP JUMP JUMPDEST PUSH1 0x0 PUSH1 0x5 PUSH1 0x0 SWAP1 SLOAD SWAP1 PUSH2 0x100 EXP SWAP1 DIV PUSH1 0xFF AND SWAP1 POP SWAP1 JUMP JUMPDEST PUSH1 0x0 PUSH1 0x6 SLOAD SWAP1 POP SWAP1 JUMP JUMPDEST PUSH1 0x0 PUSH2 0xAC5 PUSH2 0xA29 PUSH2 0x1315 JUMP JUMPDEST DUP5 PUSH2 0xAC0 DUP6 PUSH1 0x1 PUSH1 0x0 PUSH2 0xA3A PUSH2 0x1315 JUMP JUMPDEST PUSH20 0xFFFFFFFFFFFFFFFFFFFFFFFFFFFFFFFFFFFFFFFF AND PUSH20 0xFFFFFFFFFFFFFFFFFFFFFFFFFFFFFFFFFFFFFFFF AND DUP2 MSTORE PUSH1 0x20 ADD SWAP1 DUP2 MSTORE PUSH1 0x20 ADD PUSH1 0x0 KECCAK256 PUSH1 0x0 DUP10 PUSH20 0xFFFFFFFFFFFFFFFFFFFFFFFFFFFFFFFFFFFFFFFF AND PUSH20 0xFFFFFFFFFFFFFFFFFFFFFFFFFFFFFFFFFFFFFFFF AND DUP2 MSTORE PUSH1 0x20 ADD SWAP1 DUP2 MSTORE PUSH1 0x20 ADD PUSH1 0x0 KECCAK256 SLOAD PUSH2 0x18A7 SWAP1 SWAP2 SWAP1 PUSH4 0xFFFFFFFF AND JUMP JUMPDEST PUSH2 0x131D JUMP JUMPDEST PUSH1 0x1 SWAP1 POP SWAP3 SWAP2 POP POP JUMP JUMPDEST PUSH2 0xAE0 PUSH2 0xADA PUSH2 0x1315 JUMP JUMPDEST DUP3 PUSH2 0x192F JUMP JUMPDEST POP JUMP JUMPDEST PUSH1 0x0 PUSH1 0x5 PUSH1 0x1 SWAP1 SLOAD SWAP1 PUSH2 0x100 EXP SWAP1 DIV PUSH1 0xFF AND SWAP1 POP SWAP1 JUMP JUMPDEST PUSH1 0x60 DUP1 PUSH2 0xB07 PUSH1 0x8 PUSH2 0x1AF3 JUMP JUMPDEST PUSH8 0xFFFFFFFFFFFFFFFF DUP2 GT DUP1 ISZERO PUSH2 0xB1D JUMPI PUSH1 0x0 DUP1 REVERT JUMPDEST POP PUSH1 0x40 MLOAD SWAP1 DUP1 DUP3 MSTORE DUP1 PUSH1 0x20 MUL PUSH1 0x20 ADD DUP3 ADD PUSH1 0x40 MSTORE DUP1 ISZERO PUSH2 0xB4C JUMPI DUP2 PUSH1 0x20 ADD PUSH1 0x20 DUP3 MUL DUP1 CALLDATASIZE DUP4 CALLDATACOPY DUP1 DUP3 ADD SWAP2 POP POP SWAP1 POP JUMPDEST POP SWAP1 POP PUSH1 0x0 JUMPDEST PUSH2 0xB5C PUSH1 0x8 PUSH2 0x1AF3 JUMP JUMPDEST DUP2 LT ISZERO PUSH2 0xBCA JUMPI PUSH2 0xB77 DUP2 PUSH1 0x8 PUSH2 0x1B08 SWAP1 SWAP2 SWAP1 PUSH4 0xFFFFFFFF AND JUMP JUMPDEST DUP3 DUP3 DUP2 MLOAD DUP2 LT PUSH2 0xB83 JUMPI INVALID JUMPDEST PUSH1 0x20 MUL PUSH1 0x20 ADD ADD SWAP1 PUSH20 0xFFFFFFFFFFFFFFFFFFFFFFFFFFFFFFFFFFFFFFFF AND SWAP1 DUP2 PUSH20 0xFFFFFFFFFFFFFFFFFFFFFFFFFFFFFFFFFFFFFFFF AND DUP2 MSTORE POP POP DUP1 DUP1 PUSH1 0x1 ADD SWAP2 POP POP PUSH2 0xB52 JUMP JUMPDEST POP DUP1 SWAP2 POP POP SWAP1 JUMP JUMPDEST PUSH1 0x0 DUP1 PUSH1 0x0 DUP4 PUSH20 0xFFFFFFFFFFFFFFFFFFFFFFFFFFFFFFFFFFFFFFFF AND PUSH20 0xFFFFFFFFFFFFFFFFFFFFFFFFFFFFFFFFFFFFFFFF AND DUP2 MSTORE PUSH1 0x20 ADD SWAP1 DUP2 MSTORE PUSH1 0x20 ADD PUSH1 0x0 KECCAK256 SLOAD SWAP1 POP SWAP2 SWAP1 POP JUMP JUMPDEST PUSH2 0xC22 PUSH2 0x1315 JUMP JUMPDEST PUSH20 0xFFFFFFFFFFFFFFFFFFFFFFFFFFFFFFFFFFFFFFFF AND PUSH2 0xC40 PUSH2 0xDEC JUMP JUMPDEST PUSH20 0xFFFFFFFFFFFFFFFFFFFFFFFFFFFFFFFFFFFFFFFF AND EQ PUSH2 0xCC9 JUMPI PUSH1 0x40 MLOAD PUSH32 0x8C379A000000000000000000000000000000000000000000000000000000000 DUP2 MSTORE PUSH1 0x4 ADD DUP1 DUP1 PUSH1 0x20 ADD DUP3 DUP2 SUB DUP3 MSTORE PUSH1 0x20 DUP2 MSTORE PUSH1 0x20 ADD DUP1 PUSH32 0x4F776E61626C653A2063616C6C6572206973206E6F7420746865206F776E6572 DUP2 MSTORE POP PUSH1 0x20 ADD SWAP2 POP POP PUSH1 0x40 MLOAD DUP1 SWAP2 SUB SWAP1 REVERT JUMPDEST PUSH1 0x0 PUSH20 0xFFFFFFFFFFFFFFFFFFFFFFFFFFFFFFFFFFFFFFFF AND PUSH1 0x7 PUSH1 0x0 SWAP1 SLOAD SWAP1 PUSH2 0x100 EXP SWAP1 DIV PUSH20 0xFFFFFFFFFFFFFFFFFFFFFFFFFFFFFFFFFFFFFFFF AND PUSH20 0xFFFFFFFFFFFFFFFFFFFFFFFFFFFFFFFFFFFFFFFF AND PUSH32 0x8BE0079C531659141344CD1FD0A4F28419497F9722A3DAAFE3B4186F6B6457E0 PUSH1 0x40 MLOAD PUSH1 0x40 MLOAD DUP1 SWAP2 SUB SWAP1 LOG3 PUSH1 0x0 PUSH1 0x7 PUSH1 0x0 PUSH2 0x100 EXP DUP2 SLOAD DUP2 PUSH20 0xFFFFFFFFFFFFFFFFFFFFFFFFFFFFFFFFFFFFFFFF MUL NOT AND SWAP1 DUP4 PUSH20 0xFFFFFFFFFFFFFFFFFFFFFFFFFFFFFFFFFFFFFFFF AND MUL OR SWAP1 SSTORE POP JUMP JUMPDEST PUSH1 0x0 PUSH2 0xDC9 DUP3 PUSH1 0x40 MLOAD DUP1 PUSH1 0x60 ADD PUSH1 0x40 MSTORE DUP1 PUSH1 0x24 DUP2 MSTORE PUSH1 0x20 ADD PUSH2 0x2059 PUSH1 0x24 SWAP2 CODECOPY PUSH2 0xDBA DUP7 PUSH2 0xDB5 PUSH2 0x1315 JUMP JUMPDEST PUSH2 0x1069 JUMP JUMPDEST PUSH2 0x17D5 SWAP1 SWAP3 SWAP2 SWAP1 PUSH4 0xFFFFFFFF AND JUMP JUMPDEST SWAP1 POP PUSH2 0xDDD DUP4 PUSH2 0xDD7 PUSH2 0x1315 JUMP JUMPDEST DUP4 PUSH2 0x131D JUMP JUMPDEST PUSH2 0xDE7 DUP4 DUP4 PUSH2 0x192F JUMP JUMPDEST POP POP POP JUMP JUMPDEST PUSH1 0x0 PUSH1 0x7 PUSH1 0x0 SWAP1 SLOAD SWAP1 PUSH2 0x100 EXP SWAP1 DIV PUSH20 0xFFFFFFFFFFFFFFFFFFFFFFFFFFFFFFFFFFFFFFFF AND SWAP1 POP SWAP1 JUMP JUMPDEST PUSH1 0x60 PUSH1 0x4 DUP1 SLOAD PUSH1 0x1 DUP2 PUSH1 0x1 AND ISZERO PUSH2 0x100 MUL SUB AND PUSH1 0x2 SWAP1 DIV DUP1 PUSH1 0x1F ADD PUSH1 0x20 DUP1 SWAP2 DIV MUL PUSH1 0x20 ADD PUSH1 0x40 MLOAD SWAP1 DUP2 ADD PUSH1 0x40 MSTORE DUP1 SWAP3 SWAP2 SWAP1 DUP2 DUP2 MSTORE PUSH1 0x20 ADD DUP3 DUP1 SLOAD PUSH1 0x1 DUP2 PUSH1 0x1 AND ISZERO PUSH2 0x100 MUL SUB AND PUSH1 0x2 SWAP1 DIV DUP1 ISZERO PUSH2 0xEAE JUMPI DUP1 PUSH1 0x1F LT PUSH2 0xE83 JUMPI PUSH2 0x100 DUP1 DUP4 SLOAD DIV MUL DUP4 MSTORE SWAP2 PUSH1 0x20 ADD SWAP2 PUSH2 0xEAE JUMP JUMPDEST DUP3 ADD SWAP2 SWAP1 PUSH1 0x0 MSTORE PUSH1 0x20 PUSH1 0x0 KECCAK256 SWAP1 JUMPDEST DUP2 SLOAD DUP2 MSTORE SWAP1 PUSH1 0x1 ADD SWAP1 PUSH1 0x20 ADD DUP1 DUP4 GT PUSH2 0xE91 JUMPI DUP3 SWAP1 SUB PUSH1 0x1F AND DUP3 ADD SWAP2 JUMPDEST POP POP POP POP POP SWAP1 POP SWAP1 JUMP JUMPDEST PUSH2 0xEC0 PUSH2 0x1315 JUMP JUMPDEST PUSH20 0xFFFFFFFFFFFFFFFFFFFFFFFFFFFFFFFFFFFFFFFF AND PUSH2 0xEDE PUSH2 0xDEC JUMP JUMPDEST PUSH20 0xFFFFFFFFFFFFFFFFFFFFFFFFFFFFFFFFFFFFFFFF AND EQ PUSH2 0xF67 JUMPI PUSH1 0x40 MLOAD PUSH32 0x8C379A000000000000000000000000000000000000000000000000000000000 DUP2 MSTORE PUSH1 0x4 ADD DUP1 DUP1 PUSH1 0x20 ADD DUP3 DUP2 SUB DUP3 MSTORE PUSH1 0x20 DUP2 MSTORE PUSH1 0x20 ADD DUP1 PUSH32 0x4F776E61626C653A2063616C6C6572206973206E6F7420746865206F776E6572 DUP2 MSTORE POP PUSH1 0x20 ADD SWAP2 POP POP PUSH1 0x40 MLOAD DUP1 SWAP2 SUB SWAP1 REVERT JUMPDEST PUSH2 0xF70 DUP2 PUSH2 0x1B22 JUMP JUMPDEST POP JUMP JUMPDEST PUSH2 0xF7C CALLER PUSH2 0x188F JUMP JUMPDEST JUMP JUMPDEST PUSH1 0x0 PUSH2 0x1041 PUSH2 0xF8B PUSH2 0x1315 JUMP JUMPDEST DUP5 PUSH2 0x103C DUP6 PUSH1 0x40 MLOAD DUP1 PUSH1 0x60 ADD PUSH1 0x40 MSTORE DUP1 PUSH1 0x25 DUP2 MSTORE PUSH1 0x20 ADD PUSH2 0x20E7 PUSH1 0x25 SWAP2 CODECOPY PUSH1 0x1 PUSH1 0x0 PUSH2 0xFB5 PUSH2 0x1315 JUMP JUMPDEST PUSH20 0xFFFFFFFFFFFFFFFFFFFFFFFFFFFFFFFFFFFFFFFF AND PUSH20 0xFFFFFFFFFFFFFFFFFFFFFFFFFFFFFFFFFFFFFFFF AND DUP2 MSTORE PUSH1 0x20 ADD SWAP1 DUP2 MSTORE PUSH1 0x20 ADD PUSH1 0x0 KECCAK256 PUSH1 0x0 DUP11 PUSH20 0xFFFFFFFFFFFFFFFFFFFFFFFFFFFFFFFFFFFFFFFF AND PUSH20 0xFFFFFFFFFFFFFFFFFFFFFFFFFFFFFFFFFFFFFFFF AND DUP2 MSTORE PUSH1 0x20 ADD SWAP1 DUP2 MSTORE PUSH1 0x20 ADD PUSH1 0x0 KECCAK256 SLOAD PUSH2 0x17D5 SWAP1 SWAP3 SWAP2 SWAP1 PUSH4 0xFFFFFFFF AND JUMP JUMPDEST PUSH2 0x131D JUMP JUMPDEST PUSH1 0x1 SWAP1 POP SWAP3 SWAP2 POP POP JUMP JUMPDEST PUSH1 0x0 PUSH2 0x105F PUSH2 0x1058 PUSH2 0x1315 JUMP JUMPDEST DUP5 DUP5 PUSH2 0x1514 JUMP JUMPDEST PUSH1 0x1 SWAP1 POP SWAP3 SWAP2 POP POP JUMP JUMPDEST PUSH1 0x0 PUSH1 0x1 PUSH1 0x0 DUP5 PUSH20 0xFFFFFFFFFFFFFFFFFFFFFFFFFFFFFFFFFFFFFFFF AND PUSH20 0xFFFFFFFFFFFFFFFFFFFFFFFFFFFFFFFFFFFFFFFF AND DUP2 MSTORE PUSH1 0x20 ADD SWAP1 DUP2 MSTORE PUSH1 0x20 ADD PUSH1 0x0 KECCAK256 PUSH1 0x0 DUP4 PUSH20 0xFFFFFFFFFFFFFFFFFFFFFFFFFFFFFFFFFFFFFFFF AND PUSH20 0xFFFFFFFFFFFFFFFFFFFFFFFFFFFFFFFFFFFFFFFF AND DUP2 MSTORE PUSH1 0x20 ADD SWAP1 DUP2 MSTORE PUSH1 0x20 ADD PUSH1 0x0 KECCAK256 SLOAD SWAP1 POP SWAP3 SWAP2 POP POP JUMP JUMPDEST PUSH2 0x10F8 PUSH2 0x1315 JUMP JUMPDEST PUSH20 0xFFFFFFFFFFFFFFFFFFFFFFFFFFFFFFFFFFFFFFFF AND PUSH2 0x1116 PUSH2 0xDEC JUMP JUMPDEST PUSH20 0xFFFFFFFFFFFFFFFFFFFFFFFFFFFFFFFFFFFFFFFF AND EQ PUSH2 0x119F JUMPI PUSH1 0x40 MLOAD PUSH32 0x8C379A000000000000000000000000000000000000000000000000000000000 DUP2 MSTORE PUSH1 0x4 ADD DUP1 DUP1 PUSH1 0x20 ADD DUP3 DUP2 SUB DUP3 MSTORE PUSH1 0x20 DUP2 MSTORE PUSH1 0x20 ADD DUP1 PUSH32 0x4F776E61626C653A2063616C6C6572206973206E6F7420746865206F776E6572 DUP2 MSTORE POP PUSH1 0x20 ADD SWAP2 POP POP PUSH1 0x40 MLOAD DUP1 SWAP2 SUB SWAP1 REVERT JUMPDEST PUSH1 0x0 PUSH20 0xFFFFFFFFFFFFFFFFFFFFFFFFFFFFFFFFFFFFFFFF AND DUP2 PUSH20 0xFFFFFFFFFFFFFFFFFFFFFFFFFFFFFFFFFFFFFFFF AND EQ ISZERO PUSH2 0x1225 JUMPI PUSH1 0x40 MLOAD PUSH32 0x8C379A000000000000000000000000000000000000000000000000000000000 DUP2 MSTORE PUSH1 0x4 ADD DUP1 DUP1 PUSH1 0x20 ADD DUP3 DUP2 SUB DUP3 MSTORE PUSH1 0x26 DUP2 MSTORE PUSH1 0x20 ADD DUP1 PUSH2 0x1FC3 PUSH1 0x26 SWAP2 CODECOPY PUSH1 0x40 ADD SWAP2 POP POP PUSH1 0x40 MLOAD DUP1 SWAP2 SUB SWAP1 REVERT JUMPDEST DUP1 PUSH20 0xFFFFFFFFFFFFFFFFFFFFFFFFFFFFFFFFFFFFFFFF AND PUSH1 0x7 PUSH1 0x0 SWAP1 SLOAD SWAP1 PUSH2 0x100 EXP SWAP1 DIV PUSH20 0xFFFFFFFFFFFFFFFFFFFFFFFFFFFFFFFFFFFFFFFF AND PUSH20 0xFFFFFFFFFFFFFFFFFFFFFFFFFFFFFFFFFFFFFFFF AND PUSH32 0x8BE0079C531659141344CD1FD0A4F28419497F9722A3DAAFE3B4186F6B6457E0 PUSH1 0x40 MLOAD PUSH1 0x40 MLOAD DUP1 SWAP2 SUB SWAP1 LOG3 DUP1 PUSH1 0x7 PUSH1 0x0 PUSH2 0x100 EXP DUP2 SLOAD DUP2 PUSH20 0xFFFFFFFFFFFFFFFFFFFFFFFFFFFFFFFFFFFFFFFF MUL NOT AND SWAP1 DUP4 PUSH20 0xFFFFFFFFFFFFFFFFFFFFFFFFFFFFFFFFFFFFFFFF AND MUL OR SWAP1 SSTORE POP POP JUMP JUMPDEST PUSH1 0x0 PUSH2 0x130D DUP4 PUSH1 0x0 ADD DUP4 PUSH20 0xFFFFFFFFFFFFFFFFFFFFFFFFFFFFFFFFFFFFFFFF AND PUSH1 0x0 SHL PUSH2 0x1B3A JUMP JUMPDEST SWAP1 POP SWAP3 SWAP2 POP POP JUMP JUMPDEST PUSH1 0x0 CALLER SWAP1 POP SWAP1 JUMP JUMPDEST PUSH1 0x0 PUSH20 0xFFFFFFFFFFFFFFFFFFFFFFFFFFFFFFFFFFFFFFFF AND DUP4 PUSH20 0xFFFFFFFFFFFFFFFFFFFFFFFFFFFFFFFFFFFFFFFF AND EQ ISZERO PUSH2 0x13A3 JUMPI PUSH1 0x40 MLOAD PUSH32 0x8C379A000000000000000000000000000000000000000000000000000000000 DUP2 MSTORE PUSH1 0x4 ADD DUP1 DUP1 PUSH1 0x20 ADD DUP3 DUP2 SUB DUP3 MSTORE PUSH1 0x24 DUP2 MSTORE PUSH1 0x20 ADD DUP1 PUSH2 0x20C3 PUSH1 0x24 SWAP2 CODECOPY PUSH1 0x40 ADD SWAP2 POP POP PUSH1 0x40 MLOAD DUP1 SWAP2 SUB SWAP1 REVERT JUMPDEST PUSH1 0x0 PUSH20 0xFFFFFFFFFFFFFFFFFFFFFFFFFFFFFFFFFFFFFFFF AND DUP3 PUSH20 0xFFFFFFFFFFFFFFFFFFFFFFFFFFFFFFFFFFFFFFFF AND EQ ISZERO PUSH2 0x1429 JUMPI PUSH1 0x40 MLOAD PUSH32 0x8C379A000000000000000000000000000000000000000000000000000000000 DUP2 MSTORE PUSH1 0x4 ADD DUP1 DUP1 PUSH1 0x20 ADD DUP3 DUP2 SUB DUP3 MSTORE PUSH1 0x22 DUP2 MSTORE PUSH1 0x20 ADD DUP1 PUSH2 0x1FE9 PUSH1 0x22 SWAP2 CODECOPY PUSH1 0x40 ADD SWAP2 POP POP PUSH1 0x40 MLOAD DUP1 SWAP2 SUB SWAP1 REVERT JUMPDEST DUP1 PUSH1 0x1 PUSH1 0x0 DUP6 PUSH20 0xFFFFFFFFFFFFFFFFFFFFFFFFFFFFFFFFFFFFFFFF AND PUSH20 0xFFFFFFFFFFFFFFFFFFFFFFFFFFFFFFFFFFFFFFFF AND DUP2 MSTORE PUSH1 0x20 ADD SWAP1 DUP2 MSTORE PUSH1 0x20 ADD PUSH1 0x0 KECCAK256 PUSH1 0x0 DUP5 PUSH20 0xFFFFFFFFFFFFFFFFFFFFFFFFFFFFFFFFFFFFFFFF AND PUSH20 0xFFFFFFFFFFFFFFFFFFFFFFFFFFFFFFFFFFFFFFFF AND DUP2 MSTORE PUSH1 0x20 ADD SWAP1 DUP2 MSTORE PUSH1 0x20 ADD PUSH1 0x0 KECCAK256 DUP2 SWAP1 SSTORE POP DUP2 PUSH20 0xFFFFFFFFFFFFFFFFFFFFFFFFFFFFFFFFFFFFFFFF AND DUP4 PUSH20 0xFFFFFFFFFFFFFFFFFFFFFFFFFFFFFFFFFFFFFFFF AND PUSH32 0x8C5BE1E5EBEC7D5BD14F71427D1E84F3DD0314C0F7B2291E5B200AC8C7C3B925 DUP4 PUSH1 0x40 MLOAD DUP1 DUP3 DUP2 MSTORE PUSH1 0x20 ADD SWAP2 POP POP PUSH1 0x40 MLOAD DUP1 SWAP2 SUB SWAP1 LOG3 POP POP POP JUMP JUMPDEST PUSH1 0x0 PUSH20 0xFFFFFFFFFFFFFFFFFFFFFFFFFFFFFFFFFFFFFFFF AND DUP4 PUSH20 0xFFFFFFFFFFFFFFFFFFFFFFFFFFFFFFFFFFFFFFFF AND EQ ISZERO PUSH2 0x159A JUMPI PUSH1 0x40 MLOAD PUSH32 0x8C379A000000000000000000000000000000000000000000000000000000000 DUP2 MSTORE PUSH1 0x4 ADD DUP1 DUP1 PUSH1 0x20 ADD DUP3 DUP2 SUB DUP3 MSTORE PUSH1 0x25 DUP2 MSTORE PUSH1 0x20 ADD DUP1 PUSH2 0x209E PUSH1 0x25 SWAP2 CODECOPY PUSH1 0x40 ADD SWAP2 POP POP PUSH1 0x40 MLOAD DUP1 SWAP2 SUB SWAP1 REVERT JUMPDEST PUSH1 0x0 PUSH20 0xFFFFFFFFFFFFFFFFFFFFFFFFFFFFFFFFFFFFFFFF AND DUP3 PUSH20 0xFFFFFFFFFFFFFFFFFFFFFFFFFFFFFFFFFFFFFFFF AND EQ ISZERO PUSH2 0x1620 JUMPI PUSH1 0x40 MLOAD PUSH32 0x8C379A000000000000000000000000000000000000000000000000000000000 DUP2 MSTORE PUSH1 0x4 ADD DUP1 DUP1 PUSH1 0x20 ADD DUP3 DUP2 SUB DUP3 MSTORE PUSH1 0x23 DUP2 MSTORE PUSH1 0x20 ADD DUP1 PUSH2 0x1F7E PUSH1 0x23 SWAP2 CODECOPY PUSH1 0x40 ADD SWAP2 POP POP PUSH1 0x40 MLOAD DUP1 SWAP2 SUB SWAP1 REVERT JUMPDEST PUSH2 0x162B DUP4 DUP4 DUP4 PUSH2 0x1BAA JUMP JUMPDEST PUSH2 0x1696 DUP2 PUSH1 0x40 MLOAD DUP1 PUSH1 0x60 ADD PUSH1 0x40 MSTORE DUP1 PUSH1 0x26 DUP2 MSTORE PUSH1 0x20 ADD PUSH2 0x200B PUSH1 0x26 SWAP2 CODECOPY PUSH1 0x0 DUP1 DUP8 PUSH20 0xFFFFFFFFFFFFFFFFFFFFFFFFFFFFFFFFFFFFFFFF AND PUSH20 0xFFFFFFFFFFFFFFFFFFFFFFFFFFFFFFFFFFFFFFFF AND DUP2 MSTORE PUSH1 0x20 ADD SWAP1 DUP2 MSTORE PUSH1 0x20 ADD PUSH1 0x0 KECCAK256 SLOAD PUSH2 0x17D5 SWAP1 SWAP3 SWAP2 SWAP1 PUSH4 0xFFFFFFFF AND JUMP JUMPDEST PUSH1 0x0 DUP1 DUP6 PUSH20 0xFFFFFFFFFFFFFFFFFFFFFFFFFFFFFFFFFFFFFFFF AND PUSH20 0xFFFFFFFFFFFFFFFFFFFFFFFFFFFFFFFFFFFFFFFF AND DUP2 MSTORE PUSH1 0x20 ADD SWAP1 DUP2 MSTORE PUSH1 0x20 ADD PUSH1 0x0 KECCAK256 DUP2 SWAP1 SSTORE POP PUSH2 0x1729 DUP2 PUSH1 0x0 DUP1 DUP6 PUSH20 0xFFFFFFFFFFFFFFFFFFFFFFFFFFFFFFFFFFFFFFFF AND PUSH20 0xFFFFFFFFFFFFFFFFFFFFFFFFFFFFFFFFFFFFFFFF AND DUP2 MSTORE PUSH1 0x20 ADD SWAP1 DUP2 MSTORE PUSH1 0x20 ADD PUSH1 0x0 KECCAK256 SLOAD PUSH2 0x18A7 SWAP1 SWAP2 SWAP1 PUSH4 0xFFFFFFFF AND JUMP JUMPDEST PUSH1 0x0 DUP1 DUP5 PUSH20 0xFFFFFFFFFFFFFFFFFFFFFFFFFFFFFFFFFFFFFFFF AND PUSH20 0xFFFFFFFFFFFFFFFFFFFFFFFFFFFFFFFFFFFFFFFF AND DUP2 MSTORE PUSH1 0x20 ADD SWAP1 DUP2 MSTORE PUSH1 0x20 ADD PUSH1 0x0 KECCAK256 DUP2 SWAP1 SSTORE POP DUP2 PUSH20 0xFFFFFFFFFFFFFFFFFFFFFFFFFFFFFFFFFFFFFFFF AND DUP4 PUSH20 0xFFFFFFFFFFFFFFFFFFFFFFFFFFFFFFFFFFFFFFFF AND PUSH32 0xDDF252AD1BE2C89B69C2B068FC378DAA952BA7F163C4A11628F55A4DF523B3EF DUP4 PUSH1 0x40 MLOAD DUP1 DUP3 DUP2 MSTORE PUSH1 0x20 ADD SWAP2 POP POP PUSH1 0x40 MLOAD DUP1 SWAP2 SUB SWAP1 LOG3 POP POP POP JUMP JUMPDEST PUSH1 0x0 DUP4 DUP4 GT ISZERO DUP3 SWAP1 PUSH2 0x1882 JUMPI PUSH1 0x40 MLOAD PUSH32 0x8C379A000000000000000000000000000000000000000000000000000000000 DUP2 MSTORE PUSH1 0x4 ADD DUP1 DUP1 PUSH1 0x20 ADD DUP3 DUP2 SUB DUP3 MSTORE DUP4 DUP2 DUP2 MLOAD DUP2 MSTORE PUSH1 0x20 ADD SWAP2 POP DUP1 MLOAD SWAP1 PUSH1 0x20 ADD SWAP1 DUP1 DUP4 DUP4 PUSH1 0x0 JUMPDEST DUP4 DUP2 LT ISZERO PUSH2 0x1847 JUMPI DUP1 DUP3 ADD MLOAD DUP2 DUP5 ADD MSTORE PUSH1 0x20 DUP2 ADD SWAP1 POP PUSH2 0x182C JUMP JUMPDEST POP POP POP POP SWAP1 POP SWAP1 DUP2 ADD SWAP1 PUSH1 0x1F AND DUP1 ISZERO PUSH2 0x1874 JUMPI DUP1 DUP3 SUB DUP1 MLOAD PUSH1 0x1 DUP4 PUSH1 0x20 SUB PUSH2 0x100 EXP SUB NOT AND DUP2 MSTORE PUSH1 0x20 ADD SWAP2 POP JUMPDEST POP SWAP3 POP POP POP PUSH1 0x40 MLOAD DUP1 SWAP2 SUB SWAP1 REVERT JUMPDEST POP DUP3 DUP5 SUB SWAP1 POP SWAP4 SWAP3 POP POP POP JUMP JUMPDEST PUSH2 0x18A3 DUP2 PUSH1 0x8 PUSH2 0x1BBA SWAP1 SWAP2 SWAP1 PUSH4 0xFFFFFFFF AND JUMP JUMPDEST POP POP JUMP JUMPDEST PUSH1 0x0 DUP1 DUP3 DUP5 ADD SWAP1 POP DUP4 DUP2 LT ISZERO PUSH2 0x1925 JUMPI PUSH1 0x40 MLOAD PUSH32 0x8C379A000000000000000000000000000000000000000000000000000000000 DUP2 MSTORE PUSH1 0x4 ADD DUP1 DUP1 PUSH1 0x20 ADD DUP3 DUP2 SUB DUP3 MSTORE PUSH1 0x1B DUP2 MSTORE PUSH1 0x20 ADD DUP1 PUSH32 0x536166654D6174683A206164646974696F6E206F766572666C6F770000000000 DUP2 MSTORE POP PUSH1 0x20 ADD SWAP2 POP POP PUSH1 0x40 MLOAD DUP1 SWAP2 SUB SWAP1 REVERT JUMPDEST DUP1 SWAP2 POP POP SWAP3 SWAP2 POP POP JUMP JUMPDEST PUSH1 0x0 PUSH20 0xFFFFFFFFFFFFFFFFFFFFFFFFFFFFFFFFFFFFFFFF AND DUP3 PUSH20 0xFFFFFFFFFFFFFFFFFFFFFFFFFFFFFFFFFFFFFFFF AND EQ ISZERO PUSH2 0x19B5 JUMPI PUSH1 0x40 MLOAD PUSH32 0x8C379A000000000000000000000000000000000000000000000000000000000 DUP2 MSTORE PUSH1 0x4 ADD DUP1 DUP1 PUSH1 0x20 ADD DUP3 DUP2 SUB DUP3 MSTORE PUSH1 0x21 DUP2 MSTORE PUSH1 0x20 ADD DUP1 PUSH2 0x207D PUSH1 0x21 SWAP2 CODECOPY PUSH1 0x40 ADD SWAP2 POP POP PUSH1 0x40 MLOAD DUP1 SWAP2 SUB SWAP1 REVERT JUMPDEST PUSH2 0x19C1 DUP3 PUSH1 0x0 DUP4 PUSH2 0x1BAA JUMP JUMPDEST PUSH2 0x1A2C DUP2 PUSH1 0x40 MLOAD DUP1 PUSH1 0x60 ADD PUSH1 0x40 MSTORE DUP1 PUSH1 0x22 DUP2 MSTORE PUSH1 0x20 ADD PUSH2 0x1FA1 PUSH1 0x22 SWAP2 CODECOPY PUSH1 0x0 DUP1 DUP7 PUSH20 0xFFFFFFFFFFFFFFFFFFFFFFFFFFFFFFFFFFFFFFFF AND PUSH20 0xFFFFFFFFFFFFFFFFFFFFFFFFFFFFFFFFFFFFFFFF AND DUP2 MSTORE PUSH1 0x20 ADD SWAP1 DUP2 MSTORE PUSH1 0x20 ADD PUSH1 0x0 KECCAK256 SLOAD PUSH2 0x17D5 SWAP1 SWAP3 SWAP2 SWAP1 PUSH4 0xFFFFFFFF AND JUMP JUMPDEST PUSH1 0x0 DUP1 DUP5 PUSH20 0xFFFFFFFFFFFFFFFFFFFFFFFFFFFFFFFFFFFFFFFF AND PUSH20 0xFFFFFFFFFFFFFFFFFFFFFFFFFFFFFFFFFFFFFFFF AND DUP2 MSTORE PUSH1 0x20 ADD SWAP1 DUP2 MSTORE PUSH1 0x20 ADD PUSH1 0x0 KECCAK256 DUP2 SWAP1 SSTORE POP PUSH2 0x1A83 DUP2 PUSH1 0x2 SLOAD PUSH2 0x1BEA SWAP1 SWAP2 SWAP1 PUSH4 0xFFFFFFFF AND JUMP JUMPDEST PUSH1 0x2 DUP2 SWAP1 SSTORE POP PUSH1 0x0 PUSH20 0xFFFFFFFFFFFFFFFFFFFFFFFFFFFFFFFFFFFFFFFF AND DUP3 PUSH20 0xFFFFFFFFFFFFFFFFFFFFFFFFFFFFFFFFFFFFFFFF AND PUSH32 0xDDF252AD1BE2C89B69C2B068FC378DAA952BA7F163C4A11628F55A4DF523B3EF DUP4 PUSH1 0x40 MLOAD DUP1 DUP3 DUP2 MSTORE PUSH1 0x20 ADD SWAP2 POP POP PUSH1 0x40 MLOAD DUP1 SWAP2 SUB SWAP1 LOG3 POP POP JUMP JUMPDEST PUSH1 0x0 PUSH2 0x1B01 DUP3 PUSH1 0x0 ADD PUSH2 0x1C6D JUMP JUMPDEST SWAP1 POP SWAP2 SWAP1 POP JUMP JUMPDEST PUSH1 0x0 PUSH2 0x1B17 DUP4 PUSH1 0x0 ADD DUP4 PUSH2 0x1C7E JUMP JUMPDEST PUSH1 0x0 SHR SWAP1 POP SWAP3 SWAP2 POP POP JUMP JUMPDEST PUSH2 0x1B36 DUP2 PUSH1 0x8 PUSH2 0x12E5 SWAP1 SWAP2 SWAP1 PUSH4 0xFFFFFFFF AND JUMP JUMPDEST POP POP JUMP JUMPDEST PUSH1 0x0 PUSH2 0x1B46 DUP4 DUP4 PUSH2 0x1D01 JUMP JUMPDEST PUSH2 0x1B9F JUMPI DUP3 PUSH1 0x0 ADD DUP3 SWAP1 DUP1 PUSH1 0x1 DUP2 SLOAD ADD DUP1 DUP3 SSTORE DUP1 SWAP2 POP POP PUSH1 0x1 SWAP1 SUB SWAP1 PUSH1 0x0 MSTORE PUSH1 0x20 PUSH1 0x0 KECCAK256 ADD PUSH1 0x0 SWAP1 SWAP2 SWAP1 SWAP2 SWAP1 SWAP2 POP SSTORE DUP3 PUSH1 0x0 ADD DUP1 SLOAD SWAP1 POP DUP4 PUSH1 0x1 ADD PUSH1 0x0 DUP5 DUP2 MSTORE PUSH1 0x20 ADD SWAP1 DUP2 MSTORE PUSH1 0x20 ADD PUSH1 0x0 KECCAK256 DUP2 SWAP1 SSTORE POP PUSH1 0x1 SWAP1 POP PUSH2 0x1BA4 JUMP JUMPDEST PUSH1 0x0 SWAP1 POP JUMPDEST SWAP3 SWAP2 POP POP JUMP JUMPDEST PUSH2 0x1BB5 DUP4 DUP4 DUP4 PUSH2 0x1D24 JUMP JUMPDEST POP POP POP JUMP JUMPDEST PUSH1 0x0 PUSH2 0x1BE2 DUP4 PUSH1 0x0 ADD DUP4 PUSH20 0xFFFFFFFFFFFFFFFFFFFFFFFFFFFFFFFFFFFFFFFF AND PUSH1 0x0 SHL PUSH2 0x1E00 JUMP JUMPDEST SWAP1 POP SWAP3 SWAP2 POP POP JUMP JUMPDEST PUSH1 0x0 DUP3 DUP3 GT ISZERO PUSH2 0x1C62 JUMPI PUSH1 0x40 MLOAD PUSH32 0x8C379A000000000000000000000000000000000000000000000000000000000 DUP2 MSTORE PUSH1 0x4 ADD DUP1 DUP1 PUSH1 0x20 ADD DUP3 DUP2 SUB DUP3 MSTORE PUSH1 0x1E DUP2 MSTORE PUSH1 0x20 ADD DUP1 PUSH32 0x536166654D6174683A207375627472616374696F6E206F766572666C6F770000 DUP2 MSTORE POP PUSH1 0x20 ADD SWAP2 POP POP PUSH1 0x40 MLOAD DUP1 SWAP2 SUB SWAP1 REVERT JUMPDEST DUP2 DUP4 SUB SWAP1 POP SWAP3 SWAP2 POP POP JUMP JUMPDEST PUSH1 0x0 DUP2 PUSH1 0x0 ADD DUP1 SLOAD SWAP1 POP SWAP1 POP SWAP2 SWAP1 POP JUMP JUMPDEST PUSH1 0x0 DUP2 DUP4 PUSH1 0x0 ADD DUP1 SLOAD SWAP1 POP GT PUSH2 0x1CDF JUMPI PUSH1 0x40 MLOAD PUSH32 0x8C379A000000000000000000000000000000000000000000000000000000000 DUP2 MSTORE PUSH1 0x4 ADD DUP1 DUP1 PUSH1 0x20 ADD DUP3 DUP2 SUB DUP3 MSTORE PUSH1 0x22 DUP2 MSTORE PUSH1 0x20 ADD DUP1 PUSH2 0x1F5C PUSH1 0x22 SWAP2 CODECOPY PUSH1 0x40 ADD SWAP2 POP POP PUSH1 0x40 MLOAD DUP1 SWAP2 SUB SWAP1 REVERT JUMPDEST DUP3 PUSH1 0x0 ADD DUP3 DUP2 SLOAD DUP2 LT PUSH2 0x1CEE JUMPI INVALID JUMPDEST SWAP1 PUSH1 0x0 MSTORE PUSH1 0x20 PUSH1 0x0 KECCAK256 ADD SLOAD SWAP1 POP SWAP3 SWAP2 POP POP JUMP JUMPDEST PUSH1 0x0 DUP1 DUP4 PUSH1 0x1 ADD PUSH1 0x0 DUP5 DUP2 MSTORE PUSH1 0x20 ADD SWAP1 DUP2 MSTORE PUSH1 0x20 ADD PUSH1 0x0 KECCAK256 SLOAD EQ ISZERO SWAP1 POP SWAP3 SWAP2 POP POP JUMP JUMPDEST PUSH2 0x1D2F DUP4 DUP4 DUP4 PUSH2 0x1EE8 JUMP JUMPDEST PUSH1 0x0 PUSH20 0xFFFFFFFFFFFFFFFFFFFFFFFFFFFFFFFFFFFFFFFF AND DUP4 PUSH20 0xFFFFFFFFFFFFFFFFFFFFFFFFFFFFFFFFFFFFFFFF AND EQ ISZERO PUSH2 0x1DFB JUMPI PUSH2 0x1D6C PUSH2 0xA12 JUMP JUMPDEST PUSH2 0x1D86 DUP3 PUSH2 0x1D78 PUSH2 0x85D JUMP JUMPDEST PUSH2 0x18A7 SWAP1 SWAP2 SWAP1 PUSH4 0xFFFFFFFF AND JUMP JUMPDEST GT ISZERO PUSH2 0x1DFA JUMPI PUSH1 0x40 MLOAD PUSH32 0x8C379A000000000000000000000000000000000000000000000000000000000 DUP2 MSTORE PUSH1 0x4 ADD DUP1 DUP1 PUSH1 0x20 ADD DUP3 DUP2 SUB DUP3 MSTORE PUSH1 0x19 DUP2 MSTORE PUSH1 0x20 ADD DUP1 PUSH32 0x45524332304361707065643A2063617020657863656564656400000000000000 DUP2 MSTORE POP PUSH1 0x20 ADD SWAP2 POP POP PUSH1 0x40 MLOAD DUP1 SWAP2 SUB SWAP1 REVERT JUMPDEST JUMPDEST POP POP POP JUMP JUMPDEST PUSH1 0x0 DUP1 DUP4 PUSH1 0x1 ADD PUSH1 0x0 DUP5 DUP2 MSTORE PUSH1 0x20 ADD SWAP1 DUP2 MSTORE PUSH1 0x20 ADD PUSH1 0x0 KECCAK256 SLOAD SWAP1 POP PUSH1 0x0 DUP2 EQ PUSH2 0x1EDC JUMPI PUSH1 0x0 PUSH1 0x1 DUP3 SUB SWAP1 POP PUSH1 0x0 PUSH1 0x1 DUP7 PUSH1 0x0 ADD DUP1 SLOAD SWAP1 POP SUB SWAP1 POP PUSH1 0x0 DUP7 PUSH1 0x0 ADD DUP3 DUP2 SLOAD DUP2 LT PUSH2 0x1E4B JUMPI INVALID JUMPDEST SWAP1 PUSH1 0x0 MSTORE PUSH1 0x20 PUSH1 0x0 KECCAK256 ADD SLOAD SWAP1 POP DUP1 DUP8 PUSH1 0x0 ADD DUP5 DUP2 SLOAD DUP2 LT PUSH2 0x1E68 JUMPI INVALID JUMPDEST SWAP1 PUSH1 0x0 MSTORE PUSH1 0x20 PUSH1 0x0 KECCAK256 ADD DUP2 SWAP1 SSTORE POP PUSH1 0x1 DUP4 ADD DUP8 PUSH1 0x1 ADD PUSH1 0x0 DUP4 DUP2 MSTORE PUSH1 0x20 ADD SWAP1 DUP2 MSTORE PUSH1 0x20 ADD PUSH1 0x0 KECCAK256 DUP2 SWAP1 SSTORE POP DUP7 PUSH1 0x0 ADD DUP1 SLOAD DUP1 PUSH2 0x1EA0 JUMPI INVALID JUMPDEST PUSH1 0x1 SWAP1 SUB DUP2 DUP2 SWAP1 PUSH1 0x0 MSTORE PUSH1 0x20 PUSH1 0x0 KECCAK256 ADD PUSH1 0x0 SWAP1 SSTORE SWAP1 SSTORE DUP7 PUSH1 0x1 ADD PUSH1 0x0 DUP8 DUP2 MSTORE PUSH1 0x20 ADD SWAP1 DUP2 MSTORE PUSH1 0x20 ADD PUSH1 0x0 KECCAK256 PUSH1 0x0 SWAP1 SSTORE PUSH1 0x1 SWAP5 POP POP POP POP POP PUSH2 0x1EE2 JUMP JUMPDEST PUSH1 0x0 SWAP2 POP POP JUMPDEST SWAP3 SWAP2 POP POP JUMP JUMPDEST PUSH2 0x1EF3 DUP4 DUP4 DUP4 PUSH2 0x1F56 JUMP JUMPDEST PUSH2 0x1EFB PUSH2 0xAE3 JUMP JUMPDEST ISZERO PUSH2 0x1F51 JUMPI PUSH1 0x40 MLOAD PUSH32 0x8C379A000000000000000000000000000000000000000000000000000000000 DUP2 MSTORE PUSH1 0x4 ADD DUP1 DUP1 PUSH1 0x20 ADD DUP3 DUP2 SUB DUP3 MSTORE PUSH1 0x2A DUP2 MSTORE PUSH1 0x20 ADD DUP1 PUSH2 0x210C PUSH1 0x2A SWAP2 CODECOPY PUSH1 0x40 ADD SWAP2 POP POP PUSH1 0x40 MLOAD DUP1 SWAP2 SUB SWAP1 REVERT JUMPDEST POP POP POP JUMP JUMPDEST POP POP POP JUMP INVALID GASLIMIT PUSH15 0x756D657261626C655365743A20696E PUSH5 0x6578206F75 PUSH21 0x206F6620626F756E647345524332303A207472616E PUSH20 0x66657220746F20746865207A65726F2061646472 PUSH6 0x737345524332 ADDRESS GASPRICE KECCAK256 PUSH3 0x75726E KECCAK256 PUSH2 0x6D6F PUSH22 0x6E7420657863656564732062616C616E63654F776E61 PUSH3 0x6C653A KECCAK256 PUSH15 0x6577206F776E657220697320746865 KECCAK256 PUSH27 0x65726F206164647265737345524332303A20617070726F76652074 PUSH16 0x20746865207A65726F20616464726573 PUSH20 0x45524332303A207472616E7366657220616D6F75 PUSH15 0x7420657863656564732062616C616E PUSH4 0x65455243 ORIGIN ADDRESS GASPRICE KECCAK256 PUSH21 0x72616E7366657220616D6F756E7420657863656564 PUSH20 0x20616C6C6F77616E636545524332303A20627572 PUSH15 0x20616D6F756E742065786365656473 KECCAK256 PUSH2 0x6C6C PUSH16 0x77616E636545524332303A206275726E KECCAK256 PUSH7 0x726F6D20746865 KECCAK256 PUSH27 0x65726F206164647265737345524332303A207472616E7366657220 PUSH7 0x726F6D20746865 KECCAK256 PUSH27 0x65726F206164647265737345524332303A20617070726F76652066 PUSH19 0x6F6D20746865207A65726F2061646472657373 GASLIMIT MSTORE NUMBER ORIGIN ADDRESS GASPRICE KECCAK256 PUSH5 0x6563726561 PUSH20 0x656420616C6C6F77616E63652062656C6F77207A PUSH6 0x726F45524332 ADDRESS POP PUSH2 0x7573 PUSH2 0x626C PUSH6 0x3A20746F6B65 PUSH15 0x207472616E73666572207768696C65 KECCAK256 PUSH17 0x6175736564A264697066735822122027F8 0xC4 LOG0 0x4C 0xE8 0xE9 SHL 0xCA 0x4F 0x21 0xE0 0xE7 PUSH7 0xA88F3443EE3D3B 0xC5 CREATE 0xA8 PUSH2 0x6416 0xB5 PUSH26 0x21374664736F6C634300060C0033000000000000000000000000 "
				},
				"gasEstimates": {
					"creation": {
						"codeDepositCost": "1711000",
						"executionCost": "infinite",
						"totalCost": "infinite"
					},
					"external": {
						"addMinter(address)": "infinite",
						"allowance(address,address)": "1431",
						"approve(address,uint256)": "infinite",
						"balanceOf(address)": "1219",
						"burn(uint256)": "infinite",
						"burnFrom(address,uint256)": "infinite",
						"cap()": "1058",
						"decimals()": "1078",
						"decreaseAllowance(address,uint256)": "infinite",
						"getMinters()": "infinite",
						"increaseAllowance(address,uint256)": "infinite",
						"name()": "infinite",
						"owner()": "1144",
						"paused()": "1216",
						"removeMinter(address)": "infinite",
						"renounceMinter()": "infinite",
						"renounceOwnership()": "24377",
						"symbol()": "infinite",
						"totalSupply()": "1081",
						"transfer(address,uint256)": "infinite",
						"transferFrom(address,address,uint256)": "infinite",
						"transferOwnership(address)": "infinite"
					},
					"internal": {
						"_addMinter(address)": "infinite",
						"_beforeTokenTransfer(address,address,uint256)": "infinite",
						"_mint(address,uint256)": "infinite",
						"_removeMinter(address)": "infinite"
					}
				},
				"methodIdentifiers": {
					"addMinter(address)": "983b2d56",
					"allowance(address,address)": "dd62ed3e",
					"approve(address,uint256)": "095ea7b3",
					"balanceOf(address)": "70a08231",
					"burn(uint256)": "42966c68",
					"burnFrom(address,uint256)": "79cc6790",
					"cap()": "355274ea",
					"decimals()": "313ce567",
					"decreaseAllowance(address,uint256)": "a457c2d7",
					"getMinters()": "6b32810b",
					"increaseAllowance(address,uint256)": "39509351",
					"name()": "06fdde03",
					"owner()": "8da5cb5b",
					"paused()": "5c975abb",
					"removeMinter(address)": "3092afd5",
					"renounceMinter()": "98650275",
					"renounceOwnership()": "715018a6",
					"symbol()": "95d89b41",
					"totalSupply()": "18160ddd",
					"transfer(address,uint256)": "a9059cbb",
					"transferFrom(address,address,uint256)": "23b872dd",
					"transferOwnership(address)": "f2fde38b"
				}
			},
			"storageLayout": {
				"storage": [
					{
						"astId": 481,
						"contract": "contracts/mtb.sol:MTB",
						"label": "_balances",
						"offset": 0,
						"slot": "0",
						"type": "t_mapping(t_address,t_uint256)"
					},
					{
						"astId": 487,
						"contract": "contracts/mtb.sol:MTB",
						"label": "_allowances",
						"offset": 0,
						"slot": "1",
						"type": "t_mapping(t_address,t_mapping(t_address,t_uint256))"
					},
					{
						"astId": 489,
						"contract": "contracts/mtb.sol:MTB",
						"label": "_totalSupply",
						"offset": 0,
						"slot": "2",
						"type": "t_uint256"
					},
					{
						"astId": 491,
						"contract": "contracts/mtb.sol:MTB",
						"label": "_name",
						"offset": 0,
						"slot": "3",
						"type": "t_string_storage"
					},
					{
						"astId": 493,
						"contract": "contracts/mtb.sol:MTB",
						"label": "_symbol",
						"offset": 0,
						"slot": "4",
						"type": "t_string_storage"
					},
					{
						"astId": 495,
						"contract": "contracts/mtb.sol:MTB",
						"label": "_decimals",
						"offset": 0,
						"slot": "5",
						"type": "t_uint8"
					},
					{
						"astId": 1753,
						"contract": "contracts/mtb.sol:MTB",
						"label": "_paused",
						"offset": 1,
						"slot": "5",
						"type": "t_bool"
					},
					{
						"astId": 1037,
						"contract": "contracts/mtb.sol:MTB",
						"label": "_cap",
						"offset": 0,
						"slot": "6",
						"type": "t_uint256"
					},
					{
						"astId": 7,
						"contract": "contracts/mtb.sol:MTB",
						"label": "_owner",
						"offset": 0,
						"slot": "7",
						"type": "t_address"
					},
					{
						"astId": 1850,
						"contract": "contracts/mtb.sol:MTB",
						"label": "_minters",
						"offset": 0,
						"slot": "8",
						"type": "t_struct(AddressSet)1519_storage"
					}
				],
				"types": {
					"t_address": {
						"encoding": "inplace",
						"label": "address",
						"numberOfBytes": "20"
					},
					"t_array(t_bytes32)dyn_storage": {
						"base": "t_bytes32",
						"encoding": "dynamic_array",
						"label": "bytes32[]",
						"numberOfBytes": "32"
					},
					"t_bool": {
						"encoding": "inplace",
						"label": "bool",
						"numberOfBytes": "1"
					},
					"t_bytes32": {
						"encoding": "inplace",
						"label": "bytes32",
						"numberOfBytes": "32"
					},
					"t_mapping(t_address,t_mapping(t_address,t_uint256))": {
						"encoding": "mapping",
						"key": "t_address",
						"label": "mapping(address => mapping(address => uint256))",
						"numberOfBytes": "32",
						"value": "t_mapping(t_address,t_uint256)"
					},
					"t_mapping(t_address,t_uint256)": {
						"encoding": "mapping",
						"key": "t_address",
						"label": "mapping(address => uint256)",
						"numberOfBytes": "32",
						"value": "t_uint256"
					},
					"t_mapping(t_bytes32,t_uint256)": {
						"encoding": "mapping",
						"key": "t_bytes32",
						"label": "mapping(bytes32 => uint256)",
						"numberOfBytes": "32",
						"value": "t_uint256"
					},
					"t_string_storage": {
						"encoding": "bytes",
						"label": "string",
						"numberOfBytes": "32"
					},
					"t_struct(AddressSet)1519_storage": {
						"encoding": "inplace",
						"label": "struct EnumerableSet.AddressSet",
						"members": [
							{
								"astId": 1518,
								"contract": "contracts/mtb.sol:MTB",
								"label": "_inner",
								"offset": 0,
								"slot": "0",
								"type": "t_struct(Set)1254_storage"
							}
						],
						"numberOfBytes": "64"
					},
					"t_struct(Set)1254_storage": {
						"encoding": "inplace",
						"label": "struct EnumerableSet.Set",
						"members": [
							{
								"astId": 1249,
								"contract": "contracts/mtb.sol:MTB",
								"label": "_values",
								"offset": 0,
								"slot": "0",
								"type": "t_array(t_bytes32)dyn_storage"
							},
							{
								"astId": 1253,
								"contract": "contracts/mtb.sol:MTB",
								"label": "_indexes",
								"offset": 0,
								"slot": "1",
								"type": "t_mapping(t_bytes32,t_uint256)"
							}
						],
						"numberOfBytes": "64"
					},
					"t_uint256": {
						"encoding": "inplace",
						"label": "uint256",
						"numberOfBytes": "32"
					},
					"t_uint8": {
						"encoding": "inplace",
						"label": "uint8",
						"numberOfBytes": "1"
					}
				}
			},
			"userdoc": {
				"kind": "user",
				"methods": {},
				"version": 1
			}
		}
	}
}